{
  "_format": "hh-sol-artifact-1",
  "contractName": "Bets",
  "sourceName": "contracts/Bets.sol",
  "abi": [
    {
      "inputs": [
        {
          "internalType": "address",
          "name": "_profilesAddress",
          "type": "address"
        },
        {
          "internalType": "address",
          "name": "_gamesAddress",
          "type": "address"
        }
      ],
      "stateMutability": "nonpayable",
      "type": "constructor"
    },
    {
      "anonymous": false,
      "inputs": [
        {
          "indexed": true,
          "internalType": "uint256",
          "name": "id",
          "type": "uint256"
        },
        {
          "indexed": false,
          "internalType": "address",
          "name": "acceptor",
          "type": "address"
        },
        {
          "indexed": false,
          "internalType": "address",
          "name": "creator",
          "type": "address"
        }
      ],
      "name": "BetAccepted",
      "type": "event"
    },
    {
      "anonymous": false,
      "inputs": [
        {
          "indexed": true,
          "internalType": "uint256",
          "name": "id",
          "type": "uint256"
        }
      ],
      "name": "BetCancelled",
      "type": "event"
    },
    {
      "anonymous": false,
      "inputs": [
        {
          "indexed": true,
          "internalType": "uint256",
          "name": "id",
          "type": "uint256"
        },
        {
          "indexed": false,
          "internalType": "uint256",
          "name": "amount",
          "type": "uint256"
        },
        {
          "indexed": false,
          "internalType": "uint256",
          "name": "_odds",
          "type": "uint256"
        },
        {
          "indexed": false,
          "internalType": "uint256",
          "name": "teamId",
          "type": "uint256"
        },
        {
          "indexed": false,
          "internalType": "address",
          "name": "creator",
          "type": "address"
        }
      ],
      "name": "BetCreated",
      "type": "event"
    },
    {
      "anonymous": false,
      "inputs": [
        {
          "indexed": true,
          "internalType": "uint256",
          "name": "id",
          "type": "uint256"
        },
        {
          "indexed": false,
          "internalType": "uint256",
          "name": "teamId",
          "type": "uint256"
        }
      ],
      "name": "BetFinished",
      "type": "event"
    },
    {
      "anonymous": false,
      "inputs": [
        {
          "indexed": true,
          "internalType": "address",
          "name": "previousOwner",
          "type": "address"
        },
        {
          "indexed": true,
          "internalType": "address",
          "name": "newOwner",
          "type": "address"
        }
      ],
      "name": "OwnershipTransferred",
      "type": "event"
    },
    {
      "inputs": [
        {
          "internalType": "uint256",
          "name": "_id",
          "type": "uint256"
        }
      ],
      "name": "acceptBet",
      "outputs": [],
      "stateMutability": "payable",
      "type": "function"
    },
    {
      "inputs": [
        {
          "internalType": "uint256",
          "name": "",
          "type": "uint256"
        }
      ],
      "name": "bets",
      "outputs": [
        {
          "internalType": "uint256",
          "name": "betId",
          "type": "uint256"
        },
        {
          "internalType": "uint256",
          "name": "amount",
          "type": "uint256"
        },
        {
          "internalType": "uint256",
          "name": "odds",
          "type": "uint256"
        },
        {
          "internalType": "uint256",
          "name": "teamPickedId",
          "type": "uint256"
        },
        {
          "internalType": "uint256",
          "name": "otherTeamPickedId",
          "type": "uint256"
        },
        {
          "internalType": "uint256",
          "name": "gameId",
          "type": "uint256"
        },
        {
          "internalType": "uint256",
          "name": "betCreated",
          "type": "uint256"
        },
        {
          "internalType": "uint256",
          "name": "betAccepted",
          "type": "uint256"
        },
        {
          "internalType": "address",
          "name": "creator",
          "type": "address"
        },
        {
          "internalType": "address",
          "name": "acceptor",
          "type": "address"
        },
        {
          "internalType": "address",
          "name": "winner",
          "type": "address"
        },
        {
          "internalType": "enum Bets.BetState",
          "name": "state",
          "type": "uint8"
        }
      ],
      "stateMutability": "view",
      "type": "function"
    },
    {
      "inputs": [],
      "name": "betsAccepted",
      "outputs": [
        {
          "internalType": "uint256",
          "name": "",
          "type": "uint256"
        }
      ],
      "stateMutability": "view",
      "type": "function"
    },
    {
      "inputs": [],
      "name": "betsCancelled",
      "outputs": [
        {
          "internalType": "uint256",
          "name": "",
          "type": "uint256"
        }
      ],
      "stateMutability": "view",
      "type": "function"
    },
    {
      "inputs": [],
      "name": "betsCreated",
      "outputs": [
        {
          "internalType": "uint256",
          "name": "",
          "type": "uint256"
        }
      ],
      "stateMutability": "view",
      "type": "function"
    },
    {
      "inputs": [],
      "name": "betsFinished",
      "outputs": [
        {
          "internalType": "uint256",
          "name": "",
          "type": "uint256"
        }
      ],
      "stateMutability": "view",
      "type": "function"
    },
    {
      "inputs": [
        {
          "internalType": "uint256",
          "name": "_id",
          "type": "uint256"
        }
      ],
      "name": "cancelBet",
      "outputs": [],
      "stateMutability": "payable",
      "type": "function"
    },
    {
      "inputs": [
        {
          "internalType": "uint256",
          "name": "_gameId",
          "type": "uint256"
        },
        {
          "internalType": "uint256",
          "name": "_odds",
          "type": "uint256"
        },
        {
          "internalType": "uint256",
          "name": "_teamId",
          "type": "uint256"
        }
      ],
      "name": "createBet",
      "outputs": [],
      "stateMutability": "payable",
      "type": "function"
    },
    {
      "inputs": [
        {
          "internalType": "uint256",
          "name": "_id",
          "type": "uint256"
        },
        {
          "internalType": "uint256",
          "name": "_winningTeamId",
          "type": "uint256"
        }
      ],
      "name": "finishBet",
      "outputs": [],
      "stateMutability": "nonpayable",
      "type": "function"
    },
    {
      "inputs": [
        {
          "internalType": "uint256",
          "name": "",
          "type": "uint256"
        },
        {
          "internalType": "uint256",
          "name": "",
          "type": "uint256"
        }
      ],
      "name": "gameBets",
      "outputs": [
        {
          "internalType": "uint256",
          "name": "",
          "type": "uint256"
        }
      ],
      "stateMutability": "view",
      "type": "function"
    },
    {
      "inputs": [],
      "name": "games",
      "outputs": [
        {
          "internalType": "contract Games",
          "name": "",
          "type": "address"
        }
      ],
      "stateMutability": "view",
      "type": "function"
    },
    {
      "inputs": [
        {
          "internalType": "uint256",
          "name": "_id",
          "type": "uint256"
        }
      ],
      "name": "getBet",
      "outputs": [
        {
          "components": [
            {
              "internalType": "uint256",
              "name": "betId",
              "type": "uint256"
            },
            {
              "internalType": "uint256",
              "name": "amount",
              "type": "uint256"
            },
            {
              "internalType": "uint256",
              "name": "odds",
              "type": "uint256"
            },
            {
              "internalType": "uint256",
              "name": "teamPickedId",
              "type": "uint256"
            },
            {
              "internalType": "uint256",
              "name": "otherTeamPickedId",
              "type": "uint256"
            },
            {
              "internalType": "uint256",
              "name": "gameId",
              "type": "uint256"
            },
            {
              "internalType": "uint256",
              "name": "betCreated",
              "type": "uint256"
            },
            {
              "internalType": "uint256",
              "name": "betAccepted",
              "type": "uint256"
            },
            {
              "internalType": "address",
              "name": "creator",
              "type": "address"
            },
            {
              "internalType": "address",
              "name": "acceptor",
              "type": "address"
            },
            {
              "internalType": "address",
              "name": "winner",
              "type": "address"
            },
            {
              "internalType": "enum Bets.BetState",
              "name": "state",
              "type": "uint8"
            }
          ],
          "internalType": "struct Bets.Bet",
          "name": "",
          "type": "tuple"
        }
      ],
      "stateMutability": "view",
      "type": "function"
    },
    {
      "inputs": [],
      "name": "getBets",
      "outputs": [
        {
          "components": [
            {
              "internalType": "uint256",
              "name": "betId",
              "type": "uint256"
            },
            {
              "internalType": "uint256",
              "name": "amount",
              "type": "uint256"
            },
            {
              "internalType": "uint256",
              "name": "odds",
              "type": "uint256"
            },
            {
              "internalType": "uint256",
              "name": "teamPickedId",
              "type": "uint256"
            },
            {
              "internalType": "uint256",
              "name": "otherTeamPickedId",
              "type": "uint256"
            },
            {
              "internalType": "uint256",
              "name": "gameId",
              "type": "uint256"
            },
            {
              "internalType": "uint256",
              "name": "betCreated",
              "type": "uint256"
            },
            {
              "internalType": "uint256",
              "name": "betAccepted",
              "type": "uint256"
            },
            {
              "internalType": "address",
              "name": "creator",
              "type": "address"
            },
            {
              "internalType": "address",
              "name": "acceptor",
              "type": "address"
            },
            {
              "internalType": "address",
              "name": "winner",
              "type": "address"
            },
            {
              "internalType": "enum Bets.BetState",
              "name": "state",
              "type": "uint8"
            }
          ],
          "internalType": "struct Bets.Bet[]",
          "name": "",
          "type": "tuple[]"
        }
      ],
      "stateMutability": "view",
      "type": "function"
    },
    {
      "inputs": [
        {
          "internalType": "uint256",
          "name": "_gameId",
          "type": "uint256"
        }
      ],
      "name": "getGameBets",
      "outputs": [
        {
          "internalType": "uint256[]",
          "name": "",
          "type": "uint256[]"
        }
      ],
      "stateMutability": "view",
      "type": "function"
    },
    {
      "inputs": [
        {
          "internalType": "address",
          "name": "_wallet",
          "type": "address"
        }
      ],
      "name": "getWalletBets",
      "outputs": [
        {
          "internalType": "uint256[]",
          "name": "",
          "type": "uint256[]"
        }
      ],
      "stateMutability": "view",
      "type": "function"
    },
    {
      "inputs": [
        {
          "internalType": "address",
          "name": "forwarder",
          "type": "address"
        }
      ],
      "name": "isTrustedForwarder",
      "outputs": [
        {
          "internalType": "bool",
          "name": "",
          "type": "bool"
        }
      ],
      "stateMutability": "view",
      "type": "function"
    },
    {
      "inputs": [],
      "name": "owner",
      "outputs": [
        {
          "internalType": "address",
          "name": "",
          "type": "address"
        }
      ],
      "stateMutability": "view",
      "type": "function"
    },
    {
      "inputs": [],
      "name": "profiles",
      "outputs": [
        {
          "internalType": "contract Profiles",
          "name": "",
          "type": "address"
        }
      ],
      "stateMutability": "view",
      "type": "function"
    },
    {
      "inputs": [],
      "name": "renounceOwnership",
      "outputs": [],
      "stateMutability": "nonpayable",
      "type": "function"
    },
    {
      "inputs": [],
      "name": "totalBetMoney",
      "outputs": [
        {
          "internalType": "uint256",
          "name": "",
          "type": "uint256"
        }
      ],
      "stateMutability": "view",
      "type": "function"
    },
    {
      "inputs": [],
      "name": "totalRev",
      "outputs": [
        {
          "internalType": "uint256",
          "name": "",
          "type": "uint256"
        }
      ],
      "stateMutability": "view",
      "type": "function"
    },
    {
      "inputs": [
        {
          "internalType": "address",
          "name": "newOwner",
          "type": "address"
        }
      ],
      "name": "transferOwnership",
      "outputs": [],
      "stateMutability": "nonpayable",
      "type": "function"
    },
    {
      "inputs": [
        {
          "internalType": "address",
          "name": "",
          "type": "address"
        },
        {
          "internalType": "uint256",
          "name": "",
          "type": "uint256"
        }
      ],
      "name": "walletBets",
      "outputs": [
        {
          "internalType": "uint256",
          "name": "",
          "type": "uint256"
        }
      ],
      "stateMutability": "view",
      "type": "function"
    },
    {
      "inputs": [],
      "name": "withdraw",
      "outputs": [],
      "stateMutability": "nonpayable",
      "type": "function"
    }
  ],
  "bytecode": "0x60a060405260006006556000600755600060085560006009556000600a556000600b553480156200002f57600080fd5b5060405162003a3c38038062003a3c83398181016040528101906200005591906200031f565b73bf175fcc7086b4f9bd59d5eae8ea67b8f940de0d8073ffffffffffffffffffffffffffffffffffffffff1660808173ffffffffffffffffffffffffffffffffffffffff168152505050620000bf620000b36200014960201b60201c565b6200016560201b60201c565b81600160006101000a81548173ffffffffffffffffffffffffffffffffffffffff021916908373ffffffffffffffffffffffffffffffffffffffff16021790555080600260006101000a81548173ffffffffffffffffffffffffffffffffffffffff021916908373ffffffffffffffffffffffffffffffffffffffff160217905550505062000366565b6000620001606200022960201b620021391760201c565b905090565b60008060009054906101000a900473ffffffffffffffffffffffffffffffffffffffff169050816000806101000a81548173ffffffffffffffffffffffffffffffffffffffff021916908373ffffffffffffffffffffffffffffffffffffffff1602179055508173ffffffffffffffffffffffffffffffffffffffff168173ffffffffffffffffffffffffffffffffffffffff167f8be0079c531659141344cd1fd0a4f28419497f9722a3daafe3b4186f6b6457e060405160405180910390a35050565b60006200023c336200027360201b60201c565b156200025257601436033560601c90506200026f565b62000267620002ad60201b6200216b1760201c565b905062000270565b5b90565b600060805173ffffffffffffffffffffffffffffffffffffffff168273ffffffffffffffffffffffffffffffffffffffff16149050919050565b600033905090565b600080fd5b600073ffffffffffffffffffffffffffffffffffffffff82169050919050565b6000620002e782620002ba565b9050919050565b620002f981620002da565b81146200030557600080fd5b50565b6000815190506200031981620002ee565b92915050565b60008060408385031215620003395762000338620002b5565b5b6000620003498582860162000308565b92505060206200035c8582860162000308565b9150509250929050565b6080516136ba62000382600039600061131601526136ba6000f3fe60806040526004361061014b5760003560e01c8063715018a6116100b657806399d652ac1161006f57806399d652ac14610464578063a6afd5fd146104a1578063b4cdfdf0146104cc578063c8e40515146104f7578063eb4f0ab114610522578063f2fde38b1461055f5761014b565b8063715018a6146103735780638da5cb5b1461038a5780639062ce7d146103b5578063922ec805146103d1578063955a015b1461040e5780639590616c146104395761014b565b8063357401f511610108578063357401f5146102915780633ccfd60b146102ad578063495057cf146102c4578063572b6c05146102ef5780636c0c27e11461032c5780636edcf7c5146103485761014b565b806301ff9ce31461015057806304f29ae71461017b578063061e494f146101a457806322af00fa146101e1578063230fba481461022957806328ad30ed14610254575b600080fd5b34801561015c57600080fd5b50610165610588565b60405161017291906123a8565b60405180910390f35b34801561018757600080fd5b506101a2600480360381019061019d9190612403565b61058e565b005b3480156101b057600080fd5b506101cb60048036038101906101c69190612443565b610d51565b6040516101d8919061262d565b60405180910390f35b3480156101ed57600080fd5b5061020860048036038101906102039190612443565b610f1b565b6040516102209c9b9a99989796959493929190612667565b60405180910390f35b34801561023557600080fd5b5061023e610ff8565b60405161024b91906123a8565b60405180910390f35b34801561026057600080fd5b5061027b60048036038101906102769190612403565b610ffe565b60405161028891906123a8565b60405180910390f35b6102ab60048036038101906102a69190612443565b61102f565b005b3480156102b957600080fd5b506102c261124b565b005b3480156102d057600080fd5b506102d96112ec565b6040516102e69190612780565b60405180910390f35b3480156102fb57600080fd5b50610316600480360381019061031191906127c7565b611312565b604051610323919061280f565b60405180910390f35b61034660048036038101906103419190612443565b61136a565b005b34801561035457600080fd5b5061035d61164b565b60405161036a91906123a8565b60405180910390f35b34801561037f57600080fd5b50610388611651565b005b34801561039657600080fd5b5061039f611665565b6040516103ac919061282a565b60405180910390f35b6103cf60048036038101906103ca9190612845565b61168e565b005b3480156103dd57600080fd5b506103f860048036038101906103f391906127c7565b611d5e565b6040516104059190612947565b60405180910390f35b34801561041a57600080fd5b50610423611df5565b604051610430919061298a565b60405180910390f35b34801561044557600080fd5b5061044e611e1b565b60405161045b91906123a8565b60405180910390f35b34801561047057600080fd5b5061048b60048036038101906104869190612443565b611e21565b6040516104989190612947565b60405180910390f35b3480156104ad57600080fd5b506104b6611e8c565b6040516104c39190612b4b565b60405180910390f35b3480156104d857600080fd5b506104e1612079565b6040516104ee91906123a8565b60405180910390f35b34801561050357600080fd5b5061050c61207f565b60405161051991906123a8565b60405180910390f35b34801561052e57600080fd5b5061054960048036038101906105449190612b6d565b612085565b60405161055691906123a8565b60405180910390f35b34801561056b57600080fd5b50610586600480360381019061058191906127c7565b6120b6565b005b60095481565b610596612173565b6000600383815481106105ac576105ab612bad565b5b90600052602060002090600b02019050600160038111156105d0576105cf6124c0565b5b81600a0160149054906101000a900460ff1660038111156105f4576105f36124c0565b5b14610634576040517f08c379a000000000000000000000000000000000000000000000000000000000815260040161062b90612c5f565b60405180910390fd5b600281600a0160146101000a81548160ff0219169083600381111561065c5761065b6124c0565b5b02179055506000655af3107a4000826002015461271084600101546106819190612cae565b61068b9190612d1f565b6106959190612cae565b905060008183600101546106a99190612d50565b905060006106c16064836121f190919063ffffffff16565b905080600b60008282546106d59190612d50565b92505081905550600081836106ea9190612d84565b905084600301548603610943578460080160009054906101000a900473ffffffffffffffffffffffffffffffffffffffff1673ffffffffffffffffffffffffffffffffffffffff166108fc829081150290604051600060405180830381858888f19350505050158015610761573d6000803e3d6000fd5b50600160009054906101000a900473ffffffffffffffffffffffffffffffffffffffff1673ffffffffffffffffffffffffffffffffffffffff1663f42865698660080160009054906101000a900473ffffffffffffffffffffffffffffffffffffffff168488600101546107d59190612d84565b6040518363ffffffff1660e01b81526004016107f2929190612db8565b600060405180830381600087803b15801561080c57600080fd5b505af1158015610820573d6000803e3d6000fd5b50505050600160009054906101000a900473ffffffffffffffffffffffffffffffffffffffff1673ffffffffffffffffffffffffffffffffffffffff16630a1cb2728660090160009054906101000a900473ffffffffffffffffffffffffffffffffffffffff16866040518363ffffffff1660e01b81526004016108a5929190612db8565b600060405180830381600087803b1580156108bf57600080fd5b505af11580156108d3573d6000803e3d6000fd5b505050508460080160009054906101000a900473ffffffffffffffffffffffffffffffffffffffff1685600a0160006101000a81548173ffffffffffffffffffffffffffffffffffffffff021916908373ffffffffffffffffffffffffffffffffffffffff160217905550610b96565b8460090160009054906101000a900473ffffffffffffffffffffffffffffffffffffffff1673ffffffffffffffffffffffffffffffffffffffff166108fc829081150290604051600060405180830381858888f193505050501580156109ad573d6000803e3d6000fd5b50600160009054906101000a900473ffffffffffffffffffffffffffffffffffffffff1673ffffffffffffffffffffffffffffffffffffffff1663f42865698660090160009054906101000a900473ffffffffffffffffffffffffffffffffffffffff168487610a1d9190612d84565b6040518363ffffffff1660e01b8152600401610a3a929190612db8565b600060405180830381600087803b158015610a5457600080fd5b505af1158015610a68573d6000803e3d6000fd5b50505050600160009054906101000a900473ffffffffffffffffffffffffffffffffffffffff1673ffffffffffffffffffffffffffffffffffffffff16630a1cb2728660080160009054906101000a900473ffffffffffffffffffffffffffffffffffffffff16848860010154610adf9190612d84565b6040518363ffffffff1660e01b8152600401610afc929190612db8565b600060405180830381600087803b158015610b1657600080fd5b505af1158015610b2a573d6000803e3d6000fd5b505050508460090160009054906101000a900473ffffffffffffffffffffffffffffffffffffffff1685600a0160006101000a81548173ffffffffffffffffffffffffffffffffffffffff021916908373ffffffffffffffffffffffffffffffffffffffff1602179055505b600160009054906101000a900473ffffffffffffffffffffffffffffffffffffffff1673ffffffffffffffffffffffffffffffffffffffff16632876674f8660080160009054906101000a900473ffffffffffffffffffffffffffffffffffffffff166040518263ffffffff1660e01b8152600401610c15919061282a565b600060405180830381600087803b158015610c2f57600080fd5b505af1158015610c43573d6000803e3d6000fd5b50505050600160009054906101000a900473ffffffffffffffffffffffffffffffffffffffff1673ffffffffffffffffffffffffffffffffffffffff16632876674f8660090160009054906101000a900473ffffffffffffffffffffffffffffffffffffffff166040518263ffffffff1660e01b8152600401610cc6919061282a565b600060405180830381600087803b158015610ce057600080fd5b505af1158015610cf4573d6000803e3d6000fd5b5050505060086000815480929190610d0b90612de1565b9190505550867f83be4a35029cdd16d4a0947d817c0b35316867415898eb8c2fab99ddd2e098b687604051610d4091906123a8565b60405180910390a250505050505050565b610d596122da565b60038281548110610d6d57610d6c612bad565b5b90600052602060002090600b02016040518061018001604052908160008201548152602001600182015481526020016002820154815260200160038201548152602001600482015481526020016005820154815260200160068201548152602001600782015481526020016008820160009054906101000a900473ffffffffffffffffffffffffffffffffffffffff1673ffffffffffffffffffffffffffffffffffffffff1673ffffffffffffffffffffffffffffffffffffffff1681526020016009820160009054906101000a900473ffffffffffffffffffffffffffffffffffffffff1673ffffffffffffffffffffffffffffffffffffffff1673ffffffffffffffffffffffffffffffffffffffff168152602001600a820160009054906101000a900473ffffffffffffffffffffffffffffffffffffffff1673ffffffffffffffffffffffffffffffffffffffff1673ffffffffffffffffffffffffffffffffffffffff168152602001600a820160149054906101000a900460ff166003811115610efe57610efd6124c0565b5b6003811115610f1057610f0f6124c0565b5b815250509050919050565b60038181548110610f2b57600080fd5b90600052602060002090600b02016000915090508060000154908060010154908060020154908060030154908060040154908060050154908060060154908060070154908060080160009054906101000a900473ffffffffffffffffffffffffffffffffffffffff16908060090160009054906101000a900473ffffffffffffffffffffffffffffffffffffffff169080600a0160009054906101000a900473ffffffffffffffffffffffffffffffffffffffff169080600a0160149054906101000a900460ff1690508c565b60075481565b6005602052816000526040600020818154811061101a57600080fd5b90600052602060002001600091509150505481565b60006003828154811061104557611044612bad565b5b90600052602060002090600b020190508060080160009054906101000a900473ffffffffffffffffffffffffffffffffffffffff1673ffffffffffffffffffffffffffffffffffffffff16611098612207565b73ffffffffffffffffffffffffffffffffffffffff16146110ee576040517f08c379a00000000000000000000000000000000000000000000000000000000081526004016110e590612e9b565b60405180910390fd5b60006003811115611102576111016124c0565b5b81600a0160149054906101000a900460ff166003811115611126576111256124c0565b5b14611166576040517f08c379a000000000000000000000000000000000000000000000000000000000815260040161115d90612f07565b60405180910390fd5b600381600a0160146101000a81548160ff0219169083600381111561118e5761118d6124c0565b5b02179055508060080160009054906101000a900473ffffffffffffffffffffffffffffffffffffffff1673ffffffffffffffffffffffffffffffffffffffff166108fc82600101549081150290604051600060405180830381858888f19350505050158015611201573d6000803e3d6000fd5b506009600081548092919061121590612de1565b9190505550817fe3906e8d1e2167ef706b023e6e83af697db5cd38f233c71bf5021b26b316c3a260405160405180910390a25050565b611253612173565b60004790506000811161129b576040517f08c379a000000000000000000000000000000000000000000000000000000000815260040161129290612f73565b60405180910390fd5b6112a3611665565b73ffffffffffffffffffffffffffffffffffffffff166108fc829081150290604051600060405180830381858888f193505050501580156112e8573d6000803e3d6000fd5b5050565b600160009054906101000a900473ffffffffffffffffffffffffffffffffffffffff1681565b60007f000000000000000000000000000000000000000000000000000000000000000073ffffffffffffffffffffffffffffffffffffffff168273ffffffffffffffffffffffffffffffffffffffff16149050919050565b6000600382815481106113805761137f612bad565b5b90600052602060002090600b02019050655af3107a4000816002015461271083600101546113ae9190612cae565b6113b89190612d1f565b6113c29190612cae565b3414611403576040517f08c379a00000000000000000000000000000000000000000000000000000000081526004016113fa90613005565b60405180910390fd5b8060080160009054906101000a900473ffffffffffffffffffffffffffffffffffffffff1673ffffffffffffffffffffffffffffffffffffffff16611446612207565b73ffffffffffffffffffffffffffffffffffffffff160361149c576040517f08c379a000000000000000000000000000000000000000000000000000000000815260040161149390613071565b60405180910390fd5b600060038111156114b0576114af6124c0565b5b81600a0160149054906101000a900460ff1660038111156114d4576114d36124c0565b5b14611514576040517f08c379a000000000000000000000000000000000000000000000000000000000815260040161150b906130dd565b60405180910390fd5b61151c612207565b8160090160006101000a81548173ffffffffffffffffffffffffffffffffffffffff021916908373ffffffffffffffffffffffffffffffffffffffff160217905550600181600a0160146101000a81548160ff02191690836003811115611586576115856124c0565b5b021790555042816007018190555034600a60008282546115a69190612d50565b92505081905550600760008154809291906115c090612de1565b9190505550817f971b8d88bff3d04bf6a570fd87dd92a7711e4f569b37582a91798876ea0ea1e98260080160009054906101000a900473ffffffffffffffffffffffffffffffffffffffff168360090160009054906101000a900473ffffffffffffffffffffffffffffffffffffffff1660405161163f9291906130fd565b60405180910390a25050565b60065481565b611659612173565b6116636000612216565b565b60008060009054906101000a900473ffffffffffffffffffffffffffffffffffffffff16905090565b600034116116d1576040517f08c379a00000000000000000000000000000000000000000000000000000000081526004016116c890613198565b60405180910390fd5b60008211611714576040517f08c379a000000000000000000000000000000000000000000000000000000000815260040161170b90613204565b60405180910390fd5b42600260009054906101000a900473ffffffffffffffffffffffffffffffffffffffff1673ffffffffffffffffffffffffffffffffffffffff1663a2f77bcc856040518263ffffffff1660e01b815260040161177091906123a8565b600060405180830381865afa15801561178d573d6000803e3d6000fd5b505050506040513d6000823e3d601f19601f820116820180604052508101906117b6919061348c565b60600151116117fa576040517f08c379a00000000000000000000000000000000000000000000000000000000081526004016117f190613521565b60405180910390fd5b60006003805490509050600060405180610180016040528083815260200134815260200185815260200184815260200184600260009054906101000a900473ffffffffffffffffffffffffffffffffffffffff1673ffffffffffffffffffffffffffffffffffffffff1663a2f77bcc896040518263ffffffff1660e01b815260040161188691906123a8565b600060405180830381865afa1580156118a3573d6000803e3d6000fd5b505050506040513d6000823e3d601f19601f820116820180604052508101906118cc919061348c565b602001511461197f57600260009054906101000a900473ffffffffffffffffffffffffffffffffffffffff1673ffffffffffffffffffffffffffffffffffffffff1663a2f77bcc886040518263ffffffff1660e01b815260040161193091906123a8565b600060405180830381865afa15801561194d573d6000803e3d6000fd5b505050506040513d6000823e3d601f19601f82011682018060405250810190611976919061348c565b60200151611a25565b600260009054906101000a900473ffffffffffffffffffffffffffffffffffffffff1673ffffffffffffffffffffffffffffffffffffffff1663a2f77bcc886040518263ffffffff1660e01b81526004016119da91906123a8565b600060405180830381865afa1580156119f7573d6000803e3d6000fd5b505050506040513d6000823e3d601f19601f82011682018060405250810190611a20919061348c565b604001515b815260200186815260200142815260200160008152602001611a45612207565b73ffffffffffffffffffffffffffffffffffffffff168152602001600073ffffffffffffffffffffffffffffffffffffffff168152602001600073ffffffffffffffffffffffffffffffffffffffff16815260200160006003811115611aae57611aad6124c0565b5b815250905060038190806001815401808255809150506001900390600052602060002090600b0201600090919091909150600082015181600001556020820151816001015560408201518160020155606082015181600301556080820151816004015560a0820151816005015560c0820151816006015560e082015181600701556101008201518160080160006101000a81548173ffffffffffffffffffffffffffffffffffffffff021916908373ffffffffffffffffffffffffffffffffffffffff1602179055506101208201518160090160006101000a81548173ffffffffffffffffffffffffffffffffffffffff021916908373ffffffffffffffffffffffffffffffffffffffff16021790555061014082015181600a0160006101000a81548173ffffffffffffffffffffffffffffffffffffffff021916908373ffffffffffffffffffffffffffffffffffffffff16021790555061016082015181600a0160146101000a81548160ff02191690836003811115611c3357611c326124c0565b5b0217905550505034600a6000828254611c4c9190612d50565b9250508190555060046000611c5f612207565b73ffffffffffffffffffffffffffffffffffffffff1673ffffffffffffffffffffffffffffffffffffffff1681526020019081526020016000208290806001815401808255809150506001900390600052602060002001600090919091909150556005600086815260200190815260200160002082908060018154018082558091505060019003906000526020600020016000909190919091505560066000815480929190611d0d90612de1565b9190505550817f29f8f229585877f20d27efb1882df0ca806636f4c7c78e8f58cdc61934032cf1348686611d3f612207565b604051611d4f9493929190613541565b60405180910390a25050505050565b6060600460008373ffffffffffffffffffffffffffffffffffffffff1673ffffffffffffffffffffffffffffffffffffffff168152602001908152602001600020805480602002602001604051908101604052809291908181526020018280548015611de957602002820191906000526020600020905b815481526020019060010190808311611dd5575b50505050509050919050565b600260009054906101000a900473ffffffffffffffffffffffffffffffffffffffff1681565b600b5481565b606060056000838152602001908152602001600020805480602002602001604051908101604052809291908181526020018280548015611e8057602002820191906000526020600020905b815481526020019060010190808311611e6c575b50505050509050919050565b60606003805480602002602001604051908101604052809291908181526020016000905b8282101561207057838290600052602060002090600b02016040518061018001604052908160008201548152602001600182015481526020016002820154815260200160038201548152602001600482015481526020016005820154815260200160068201548152602001600782015481526020016008820160009054906101000a900473ffffffffffffffffffffffffffffffffffffffff1673ffffffffffffffffffffffffffffffffffffffff1673ffffffffffffffffffffffffffffffffffffffff1681526020016009820160009054906101000a900473ffffffffffffffffffffffffffffffffffffffff1673ffffffffffffffffffffffffffffffffffffffff1673ffffffffffffffffffffffffffffffffffffffff168152602001600a820160009054906101000a900473ffffffffffffffffffffffffffffffffffffffff1673ffffffffffffffffffffffffffffffffffffffff1673ffffffffffffffffffffffffffffffffffffffff168152602001600a820160149054906101000a900460ff16600381111561204b5761204a6124c0565b5b600381111561205d5761205c6124c0565b5b8152505081526020019060010190611eb0565b50505050905090565b60085481565b600a5481565b600460205281600052604060002081815481106120a157600080fd5b90600052602060002001600091509150505481565b6120be612173565b600073ffffffffffffffffffffffffffffffffffffffff168173ffffffffffffffffffffffffffffffffffffffff160361212d576040517f08c379a0000000000000000000000000000000000000000000000000000000008152600401612124906135f8565b60405180910390fd5b61213681612216565b50565b600061214433611312565b1561215857601436033560601c9050612167565b61216061216b565b9050612168565b5b90565b600033905090565b61217b612207565b73ffffffffffffffffffffffffffffffffffffffff16612199611665565b73ffffffffffffffffffffffffffffffffffffffff16146121ef576040517f08c379a00000000000000000000000000000000000000000000000000000000081526004016121e690613664565b60405180910390fd5b565b600081836121ff9190612d1f565b905092915050565b6000612211612139565b905090565b60008060009054906101000a900473ffffffffffffffffffffffffffffffffffffffff169050816000806101000a81548173ffffffffffffffffffffffffffffffffffffffff021916908373ffffffffffffffffffffffffffffffffffffffff1602179055508173ffffffffffffffffffffffffffffffffffffffff168173ffffffffffffffffffffffffffffffffffffffff167f8be0079c531659141344cd1fd0a4f28419497f9722a3daafe3b4186f6b6457e060405160405180910390a35050565b6040518061018001604052806000815260200160008152602001600081526020016000815260200160008152602001600081526020016000815260200160008152602001600073ffffffffffffffffffffffffffffffffffffffff168152602001600073ffffffffffffffffffffffffffffffffffffffff168152602001600073ffffffffffffffffffffffffffffffffffffffff16815260200160006003811115612389576123886124c0565b5b81525090565b6000819050919050565b6123a28161238f565b82525050565b60006020820190506123bd6000830184612399565b92915050565b6000604051905090565b600080fd5b600080fd5b6123e08161238f565b81146123eb57600080fd5b50565b6000813590506123fd816123d7565b92915050565b6000806040838503121561241a576124196123cd565b5b6000612428858286016123ee565b9250506020612439858286016123ee565b9150509250929050565b600060208284031215612459576124586123cd565b5b6000612467848285016123ee565b91505092915050565b6124798161238f565b82525050565b600073ffffffffffffffffffffffffffffffffffffffff82169050919050565b60006124aa8261247f565b9050919050565b6124ba8161249f565b82525050565b7f4e487b7100000000000000000000000000000000000000000000000000000000600052602160045260246000fd5b60048110612500576124ff6124c0565b5b50565b6000819050612511826124ef565b919050565b600061252182612503565b9050919050565b61253181612516565b82525050565b6101808201600082015161254e6000850182612470565b5060208201516125616020850182612470565b5060408201516125746040850182612470565b5060608201516125876060850182612470565b50608082015161259a6080850182612470565b5060a08201516125ad60a0850182612470565b5060c08201516125c060c0850182612470565b5060e08201516125d360e0850182612470565b506101008201516125e86101008501826124b1565b506101208201516125fd6101208501826124b1565b506101408201516126126101408501826124b1565b50610160820151612627610160850182612528565b50505050565b6000610180820190506126436000830184612537565b92915050565b6126528161249f565b82525050565b61266181612516565b82525050565b60006101808201905061267d600083018f612399565b61268a602083018e612399565b612697604083018d612399565b6126a4606083018c612399565b6126b1608083018b612399565b6126be60a083018a612399565b6126cb60c0830189612399565b6126d860e0830188612399565b6126e6610100830187612649565b6126f4610120830186612649565b612702610140830185612649565b612710610160830184612658565b9d9c50505050505050505050505050565b6000819050919050565b600061274661274161273c8461247f565b612721565b61247f565b9050919050565b60006127588261272b565b9050919050565b600061276a8261274d565b9050919050565b61277a8161275f565b82525050565b60006020820190506127956000830184612771565b92915050565b6127a48161249f565b81146127af57600080fd5b50565b6000813590506127c18161279b565b92915050565b6000602082840312156127dd576127dc6123cd565b5b60006127eb848285016127b2565b91505092915050565b60008115159050919050565b612809816127f4565b82525050565b60006020820190506128246000830184612800565b92915050565b600060208201905061283f6000830184612649565b92915050565b60008060006060848603121561285e5761285d6123cd565b5b600061286c868287016123ee565b935050602061287d868287016123ee565b925050604061288e868287016123ee565b9150509250925092565b600081519050919050565b600082825260208201905092915050565b6000819050602082019050919050565b60006128d08383612470565b60208301905092915050565b6000602082019050919050565b60006128f482612898565b6128fe81856128a3565b9350612909836128b4565b8060005b8381101561293a57815161292188826128c4565b975061292c836128dc565b92505060018101905061290d565b5085935050505092915050565b6000602082019050818103600083015261296181846128e9565b905092915050565b60006129748261274d565b9050919050565b61298481612969565b82525050565b600060208201905061299f600083018461297b565b92915050565b600081519050919050565b600082825260208201905092915050565b6000819050602082019050919050565b610180820160008201516129e86000850182612470565b5060208201516129fb6020850182612470565b506040820151612a0e6040850182612470565b506060820151612a216060850182612470565b506080820151612a346080850182612470565b5060a0820151612a4760a0850182612470565b5060c0820151612a5a60c0850182612470565b5060e0820151612a6d60e0850182612470565b50610100820151612a826101008501826124b1565b50610120820151612a976101208501826124b1565b50610140820151612aac6101408501826124b1565b50610160820151612ac1610160850182612528565b50505050565b6000612ad383836129d1565b6101808301905092915050565b6000602082019050919050565b6000612af8826129a5565b612b0281856129b0565b9350612b0d836129c1565b8060005b83811015612b3e578151612b258882612ac7565b9750612b3083612ae0565b925050600181019050612b11565b5085935050505092915050565b60006020820190508181036000830152612b658184612aed565b905092915050565b60008060408385031215612b8457612b836123cd565b5b6000612b92858286016127b2565b9250506020612ba3858286016123ee565b9150509250929050565b7f4e487b7100000000000000000000000000000000000000000000000000000000600052603260045260246000fd5b600082825260208201905092915050565b7f596f752063616e206f6e6c792066696e69736820616e2061636365707465642060008201527f6265740000000000000000000000000000000000000000000000000000000000602082015250565b6000612c49602383612bdc565b9150612c5482612bed565b604082019050919050565b60006020820190508181036000830152612c7881612c3c565b9050919050565b7f4e487b7100000000000000000000000000000000000000000000000000000000600052601160045260246000fd5b6000612cb98261238f565b9150612cc48361238f565b9250828202612cd28161238f565b91508282048414831517612ce957612ce8612c7f565b5b5092915050565b7f4e487b7100000000000000000000000000000000000000000000000000000000600052601260045260246000fd5b6000612d2a8261238f565b9150612d358361238f565b925082612d4557612d44612cf0565b5b828204905092915050565b6000612d5b8261238f565b9150612d668361238f565b9250828201905080821115612d7e57612d7d612c7f565b5b92915050565b6000612d8f8261238f565b9150612d9a8361238f565b9250828203905081811115612db257612db1612c7f565b5b92915050565b6000604082019050612dcd6000830185612649565b612dda6020830184612399565b9392505050565b6000612dec8261238f565b91507fffffffffffffffffffffffffffffffffffffffffffffffffffffffffffffffff8203612e1e57612e1d612c7f565b5b600182019050919050565b7f4f6e6c7920746865206265742063726561746f722063616e2063616e63656c2060008201527f7468652062657400000000000000000000000000000000000000000000000000602082015250565b6000612e85602783612bdc565b9150612e9082612e29565b604082019050919050565b60006020820190508181036000830152612eb481612e78565b9050919050565b7f426574206e6f7420617661696c61626c65000000000000000000000000000000600082015250565b6000612ef1601183612bdc565b9150612efc82612ebb565b602082019050919050565b60006020820190508181036000830152612f2081612ee4565b9050919050565b7f436f6e74726163742062616c616e6365206973207a65726f2e00000000000000600082015250565b6000612f5d601983612bdc565b9150612f6882612f27565b602082019050919050565b60006020820190508181036000830152612f8c81612f50565b9050919050565b7f446f6573206e6f74206d617463682074686520657870656374656420616d6f7560008201527f6e74000000000000000000000000000000000000000000000000000000000000602082015250565b6000612fef602283612bdc565b9150612ffa82612f93565b604082019050919050565b6000602082019050818103600083015261301e81612fe2565b9050919050565b7f43616e6e6f742061636365707420796f7572206f776e20626574000000000000600082015250565b600061305b601a83612bdc565b915061306682613025565b602082019050919050565b6000602082019050818103600083015261308a8161304e565b9050919050565b7f426574206973206e6f206c6f6e67657220617661696c61626c65000000000000600082015250565b60006130c7601a83612bdc565b91506130d282613091565b602082019050919050565b600060208201905081810360008301526130f6816130ba565b9050919050565b60006040820190506131126000830185612649565b61311f6020830184612649565b9392505050565b7f42657420616d6f756e74206d7573742062652067726561746572207468616e2060008201527f3000000000000000000000000000000000000000000000000000000000000000602082015250565b6000613182602183612bdc565b915061318d82613126565b604082019050919050565b600060208201905081810360008301526131b181613175565b9050919050565b7f4f646473206d7573742062652067726561746572207468616e20300000000000600082015250565b60006131ee601b83612bdc565b91506131f9826131b8565b602082019050919050565b6000602082019050818103600083015261321d816131e1565b9050919050565b600080fd5b6000601f19601f8301169050919050565b7f4e487b7100000000000000000000000000000000000000000000000000000000600052604160045260246000fd5b61327282613229565b810181811067ffffffffffffffff821117156132915761329061323a565b5b80604052505050565b60006132a46123c3565b90506132b08282613269565b919050565b600080fd5b6000815190506132c9816123d7565b92915050565b6132d8816127f4565b81146132e357600080fd5b50565b6000815190506132f5816132cf565b92915050565b600080fd5b600080fd5b600067ffffffffffffffff8211156133205761331f61323a565b5b61332982613229565b9050602081019050919050565b60005b83811015613354578082015181840152602081019050613339565b60008484015250505050565b600061337361336e84613305565b61329a565b90508281526020810184848401111561338f5761338e613300565b5b61339a848285613336565b509392505050565b600082601f8301126133b7576133b66132fb565b5b81516133c7848260208601613360565b91505092915050565b600060c082840312156133e6576133e5613224565b5b6133f060c061329a565b90506000613400848285016132ba565b6000830152506020613414848285016132ba565b6020830152506040613428848285016132ba565b604083015250606061343c848285016132ba565b6060830152506080613450848285016132e6565b60808301525060a082015167ffffffffffffffff811115613474576134736132b5565b5b613480848285016133a2565b60a08301525092915050565b6000602082840312156134a2576134a16123cd565b5b600082015167ffffffffffffffff8111156134c0576134bf6123d2565b5b6134cc848285016133d0565b91505092915050565b7f47616d652068617320616c726561647920737461727465640000000000000000600082015250565b600061350b601883612bdc565b9150613516826134d5565b602082019050919050565b6000602082019050818103600083015261353a816134fe565b9050919050565b60006080820190506135566000830187612399565b6135636020830186612399565b6135706040830185612399565b61357d6060830184612649565b95945050505050565b7f4f776e61626c653a206e6577206f776e657220697320746865207a65726f206160008201527f6464726573730000000000000000000000000000000000000000000000000000602082015250565b60006135e2602683612bdc565b91506135ed82613586565b604082019050919050565b60006020820190508181036000830152613611816135d5565b9050919050565b7f4f776e61626c653a2063616c6c6572206973206e6f7420746865206f776e6572600082015250565b600061364e602083612bdc565b915061365982613618565b602082019050919050565b6000602082019050818103600083015261367d81613641565b905091905056fea2646970667358221220406ce7c2132446238c34609ec912178b848c28d2fe60b7e38f4a60dc5399be9264736f6c63430008110033",
  "linkReferences": {},
  "deployedLinkReferences": {}
}