{
  "_format": "hh-sol-artifact-1",
  "contractName": "Bets",
  "sourceName": "contracts/Bets.sol",
  "abi": [
    {
      "inputs": [
        {
          "internalType": "address",
          "name": "_profilesAddress",
          "type": "address"
        },
        {
          "internalType": "address",
          "name": "_teamsAddress",
          "type": "address"
        },
        {
          "internalType": "address",
          "name": "_gamesAddress",
          "type": "address"
        }
      ],
      "stateMutability": "nonpayable",
      "type": "constructor"
    },
    {
      "anonymous": false,
      "inputs": [
        {
          "indexed": true,
          "internalType": "uint256",
          "name": "id",
          "type": "uint256"
        },
        {
          "indexed": false,
          "internalType": "address",
          "name": "acceptor",
          "type": "address"
        },
        {
          "indexed": false,
          "internalType": "address",
          "name": "creator",
          "type": "address"
        }
      ],
      "name": "BetAccepted",
      "type": "event"
    },
    {
      "anonymous": false,
      "inputs": [
        {
          "indexed": true,
          "internalType": "uint256",
          "name": "id",
          "type": "uint256"
        }
      ],
      "name": "BetCancelled",
      "type": "event"
    },
    {
      "anonymous": false,
      "inputs": [
        {
          "indexed": true,
          "internalType": "uint256",
          "name": "id",
          "type": "uint256"
        },
        {
          "indexed": false,
          "internalType": "uint256",
          "name": "amount",
          "type": "uint256"
        },
        {
          "indexed": false,
          "internalType": "uint256",
          "name": "_odds",
          "type": "uint256"
        },
        {
          "indexed": false,
          "internalType": "uint256",
          "name": "teamId",
          "type": "uint256"
        },
        {
          "indexed": false,
          "internalType": "address",
          "name": "creator",
          "type": "address"
        }
      ],
      "name": "BetCreated",
      "type": "event"
    },
    {
      "anonymous": false,
      "inputs": [
        {
          "indexed": true,
          "internalType": "uint256",
          "name": "id",
          "type": "uint256"
        },
        {
          "indexed": false,
          "internalType": "uint256",
          "name": "teamId",
          "type": "uint256"
        }
      ],
      "name": "BetFinished",
      "type": "event"
    },
    {
      "anonymous": false,
      "inputs": [
        {
          "indexed": true,
          "internalType": "address",
          "name": "previousOwner",
          "type": "address"
        },
        {
          "indexed": true,
          "internalType": "address",
          "name": "newOwner",
          "type": "address"
        }
      ],
      "name": "OwnershipTransferred",
      "type": "event"
    },
    {
      "inputs": [
        {
          "internalType": "uint256",
          "name": "_id",
          "type": "uint256"
        }
      ],
      "name": "acceptBet",
      "outputs": [],
      "stateMutability": "payable",
      "type": "function"
    },
    {
      "inputs": [
        {
          "internalType": "uint256",
          "name": "",
          "type": "uint256"
        }
      ],
      "name": "bets",
      "outputs": [
        {
          "internalType": "uint256",
          "name": "betId",
          "type": "uint256"
        },
        {
          "internalType": "uint256",
          "name": "amount",
          "type": "uint256"
        },
        {
          "internalType": "uint256",
          "name": "odds",
          "type": "uint256"
        },
        {
          "internalType": "uint256",
          "name": "teamPickedId",
          "type": "uint256"
        },
        {
          "internalType": "uint256",
          "name": "otherTeamPickedId",
          "type": "uint256"
        },
        {
          "internalType": "uint256",
          "name": "gameId",
          "type": "uint256"
        },
        {
          "internalType": "uint256",
          "name": "betCreated",
          "type": "uint256"
        },
        {
          "internalType": "uint256",
          "name": "betAccepted",
          "type": "uint256"
        },
        {
          "internalType": "address",
          "name": "creator",
          "type": "address"
        },
        {
          "internalType": "address",
          "name": "acceptor",
          "type": "address"
        },
        {
          "internalType": "address",
          "name": "winner",
          "type": "address"
        },
        {
          "internalType": "enum Bets.BetState",
          "name": "state",
          "type": "uint8"
        }
      ],
      "stateMutability": "view",
      "type": "function"
    },
    {
      "inputs": [],
      "name": "betsAccepted",
      "outputs": [
        {
          "internalType": "uint256",
          "name": "",
          "type": "uint256"
        }
      ],
      "stateMutability": "view",
      "type": "function"
    },
    {
      "inputs": [],
      "name": "betsCancelled",
      "outputs": [
        {
          "internalType": "uint256",
          "name": "",
          "type": "uint256"
        }
      ],
      "stateMutability": "view",
      "type": "function"
    },
    {
      "inputs": [],
      "name": "betsCreated",
      "outputs": [
        {
          "internalType": "uint256",
          "name": "",
          "type": "uint256"
        }
      ],
      "stateMutability": "view",
      "type": "function"
    },
    {
      "inputs": [],
      "name": "betsFinished",
      "outputs": [
        {
          "internalType": "uint256",
          "name": "",
          "type": "uint256"
        }
      ],
      "stateMutability": "view",
      "type": "function"
    },
    {
      "inputs": [
        {
          "internalType": "uint256",
          "name": "_id",
          "type": "uint256"
        }
      ],
      "name": "cancelBet",
      "outputs": [],
      "stateMutability": "payable",
      "type": "function"
    },
    {
      "inputs": [
        {
          "internalType": "uint256",
          "name": "_gameId",
          "type": "uint256"
        },
        {
          "internalType": "uint256",
          "name": "_odds",
          "type": "uint256"
        },
        {
          "internalType": "uint256",
          "name": "_teamId",
          "type": "uint256"
        }
      ],
      "name": "createBet",
      "outputs": [],
      "stateMutability": "payable",
      "type": "function"
    },
    {
      "inputs": [
        {
          "internalType": "uint256",
          "name": "_id",
          "type": "uint256"
        },
        {
          "internalType": "uint256",
          "name": "_winningTeamId",
          "type": "uint256"
        }
      ],
      "name": "finishBet",
      "outputs": [],
      "stateMutability": "nonpayable",
      "type": "function"
    },
    {
      "inputs": [
        {
          "internalType": "uint256",
          "name": "",
          "type": "uint256"
        },
        {
          "internalType": "uint256",
          "name": "",
          "type": "uint256"
        }
      ],
      "name": "gameBets",
      "outputs": [
        {
          "internalType": "uint256",
          "name": "",
          "type": "uint256"
        }
      ],
      "stateMutability": "view",
      "type": "function"
    },
    {
      "inputs": [],
      "name": "games",
      "outputs": [
        {
          "internalType": "contract Games",
          "name": "",
          "type": "address"
        }
      ],
      "stateMutability": "view",
      "type": "function"
    },
    {
      "inputs": [
        {
          "internalType": "uint256",
          "name": "_id",
          "type": "uint256"
        }
      ],
      "name": "getBet",
      "outputs": [
        {
          "components": [
            {
              "internalType": "uint256",
              "name": "betId",
              "type": "uint256"
            },
            {
              "internalType": "uint256",
              "name": "amount",
              "type": "uint256"
            },
            {
              "internalType": "uint256",
              "name": "odds",
              "type": "uint256"
            },
            {
              "internalType": "uint256",
              "name": "teamPickedId",
              "type": "uint256"
            },
            {
              "internalType": "uint256",
              "name": "otherTeamPickedId",
              "type": "uint256"
            },
            {
              "internalType": "uint256",
              "name": "gameId",
              "type": "uint256"
            },
            {
              "internalType": "uint256",
              "name": "betCreated",
              "type": "uint256"
            },
            {
              "internalType": "uint256",
              "name": "betAccepted",
              "type": "uint256"
            },
            {
              "internalType": "address",
              "name": "creator",
              "type": "address"
            },
            {
              "internalType": "address",
              "name": "acceptor",
              "type": "address"
            },
            {
              "internalType": "address",
              "name": "winner",
              "type": "address"
            },
            {
              "internalType": "enum Bets.BetState",
              "name": "state",
              "type": "uint8"
            }
          ],
          "internalType": "struct Bets.Bet",
          "name": "",
          "type": "tuple"
        }
      ],
      "stateMutability": "view",
      "type": "function"
    },
    {
      "inputs": [],
      "name": "getBets",
      "outputs": [
        {
          "components": [
            {
              "internalType": "uint256",
              "name": "betId",
              "type": "uint256"
            },
            {
              "internalType": "uint256",
              "name": "amount",
              "type": "uint256"
            },
            {
              "internalType": "uint256",
              "name": "odds",
              "type": "uint256"
            },
            {
              "internalType": "uint256",
              "name": "teamPickedId",
              "type": "uint256"
            },
            {
              "internalType": "uint256",
              "name": "otherTeamPickedId",
              "type": "uint256"
            },
            {
              "internalType": "uint256",
              "name": "gameId",
              "type": "uint256"
            },
            {
              "internalType": "uint256",
              "name": "betCreated",
              "type": "uint256"
            },
            {
              "internalType": "uint256",
              "name": "betAccepted",
              "type": "uint256"
            },
            {
              "internalType": "address",
              "name": "creator",
              "type": "address"
            },
            {
              "internalType": "address",
              "name": "acceptor",
              "type": "address"
            },
            {
              "internalType": "address",
              "name": "winner",
              "type": "address"
            },
            {
              "internalType": "enum Bets.BetState",
              "name": "state",
              "type": "uint8"
            }
          ],
          "internalType": "struct Bets.Bet[]",
          "name": "",
          "type": "tuple[]"
        }
      ],
      "stateMutability": "view",
      "type": "function"
    },
    {
      "inputs": [
        {
          "internalType": "uint256",
          "name": "_gameId",
          "type": "uint256"
        }
      ],
      "name": "getGameBets",
      "outputs": [
        {
          "internalType": "uint256[]",
          "name": "",
          "type": "uint256[]"
        }
      ],
      "stateMutability": "view",
      "type": "function"
    },
    {
      "inputs": [
        {
          "internalType": "address",
          "name": "_wallet",
          "type": "address"
        }
      ],
      "name": "getWalletBets",
      "outputs": [
        {
          "internalType": "uint256[]",
          "name": "",
          "type": "uint256[]"
        }
      ],
      "stateMutability": "view",
      "type": "function"
    },
    {
      "inputs": [
        {
          "internalType": "address",
          "name": "forwarder",
          "type": "address"
        }
      ],
      "name": "isTrustedForwarder",
      "outputs": [
        {
          "internalType": "bool",
          "name": "",
          "type": "bool"
        }
      ],
      "stateMutability": "view",
      "type": "function"
    },
    {
      "inputs": [],
      "name": "owner",
      "outputs": [
        {
          "internalType": "address",
          "name": "",
          "type": "address"
        }
      ],
      "stateMutability": "view",
      "type": "function"
    },
    {
      "inputs": [],
      "name": "profiles",
      "outputs": [
        {
          "internalType": "contract Profiles",
          "name": "",
          "type": "address"
        }
      ],
      "stateMutability": "view",
      "type": "function"
    },
    {
      "inputs": [],
      "name": "renounceOwnership",
      "outputs": [],
      "stateMutability": "nonpayable",
      "type": "function"
    },
    {
      "inputs": [],
      "name": "teams",
      "outputs": [
        {
          "internalType": "contract Teams",
          "name": "",
          "type": "address"
        }
      ],
      "stateMutability": "view",
      "type": "function"
    },
    {
      "inputs": [],
      "name": "totalBetMoney",
      "outputs": [
        {
          "internalType": "uint256",
          "name": "",
          "type": "uint256"
        }
      ],
      "stateMutability": "view",
      "type": "function"
    },
    {
      "inputs": [],
      "name": "totalRev",
      "outputs": [
        {
          "internalType": "uint256",
          "name": "",
          "type": "uint256"
        }
      ],
      "stateMutability": "view",
      "type": "function"
    },
    {
      "inputs": [
        {
          "internalType": "address",
          "name": "newOwner",
          "type": "address"
        }
      ],
      "name": "transferOwnership",
      "outputs": [],
      "stateMutability": "nonpayable",
      "type": "function"
    },
    {
      "inputs": [
        {
          "internalType": "address",
          "name": "",
          "type": "address"
        },
        {
          "internalType": "uint256",
          "name": "",
          "type": "uint256"
        }
      ],
      "name": "walletBets",
      "outputs": [
        {
          "internalType": "uint256",
          "name": "",
          "type": "uint256"
        }
      ],
      "stateMutability": "view",
      "type": "function"
    },
    {
      "inputs": [],
      "name": "withdraw",
      "outputs": [],
      "stateMutability": "nonpayable",
      "type": "function"
    }
  ],
  "bytecode": "0x60a06040526000600755600060085560006009556000600a556000600b556000600c553480156200002f57600080fd5b5060405162003b6438038062003b64833981810160405281019062000055919062000361565b73bf175fcc7086b4f9bd59d5eae8ea67b8f940de0d8073ffffffffffffffffffffffffffffffffffffffff1660808173ffffffffffffffffffffffffffffffffffffffff168152505050620000bf620000b36200018b60201b60201c565b620001a760201b60201c565b82600160006101000a81548173ffffffffffffffffffffffffffffffffffffffff021916908373ffffffffffffffffffffffffffffffffffffffff16021790555081600260006101000a81548173ffffffffffffffffffffffffffffffffffffffff021916908373ffffffffffffffffffffffffffffffffffffffff16021790555080600360006101000a81548173ffffffffffffffffffffffffffffffffffffffff021916908373ffffffffffffffffffffffffffffffffffffffff160217905550505050620003bd565b6000620001a26200026b60201b620021b81760201c565b905090565b60008060009054906101000a900473ffffffffffffffffffffffffffffffffffffffff169050816000806101000a81548173ffffffffffffffffffffffffffffffffffffffff021916908373ffffffffffffffffffffffffffffffffffffffff1602179055508173ffffffffffffffffffffffffffffffffffffffff168173ffffffffffffffffffffffffffffffffffffffff167f8be0079c531659141344cd1fd0a4f28419497f9722a3daafe3b4186f6b6457e060405160405180910390a35050565b60006200027e33620002b560201b60201c565b156200029457601436033560601c9050620002b1565b620002a9620002ef60201b620021ea1760201c565b9050620002b2565b5b90565b600060805173ffffffffffffffffffffffffffffffffffffffff168273ffffffffffffffffffffffffffffffffffffffff16149050919050565b600033905090565b600080fd5b600073ffffffffffffffffffffffffffffffffffffffff82169050919050565b60006200032982620002fc565b9050919050565b6200033b816200031c565b81146200034757600080fd5b50565b6000815190506200035b8162000330565b92915050565b6000806000606084860312156200037d576200037c620002f7565b5b60006200038d868287016200034a565b9350506020620003a0868287016200034a565b9250506040620003b3868287016200034a565b9150509250925092565b60805161378b620003d96000396000611395015261378b6000f3fe6080604052600436106101665760003560e01c80636edcf7c5116100d15780639590616c1161008a578063b4cdfdf011610064578063b4cdfdf014610512578063c8e405151461053d578063eb4f0ab114610568578063f2fde38b146105a557610166565b80639590616c1461047f57806399d652ac146104aa578063a6afd5fd146104e757610166565b80636edcf7c51461038e578063715018a6146103b95780638da5cb5b146103d05780639062ce7d146103fb578063922ec80514610417578063955a015b1461045457610166565b806328ad30ed1161012357806328ad30ed1461029a578063357401f5146102d75780633ccfd60b146102f3578063495057cf1461030a578063572b6c05146103355780636c0c27e11461037257610166565b806301ff9ce31461016b57806303de3ad71461019657806304f29ae7146101c1578063061e494f146101ea57806322af00fa14610227578063230fba481461026f575b600080fd5b34801561017757600080fd5b506101806105ce565b60405161018d919061243d565b60405180910390f35b3480156101a257600080fd5b506101ab6105d4565b6040516101b891906124d7565b60405180910390f35b3480156101cd57600080fd5b506101e860048036038101906101e39190612532565b6105fa565b005b3480156101f657600080fd5b50610211600480360381019061020c9190612572565b610dd0565b60405161021e919061273c565b60405180910390f35b34801561023357600080fd5b5061024e60048036038101906102499190612572565b610f9a565b6040516102669c9b9a99989796959493929190612776565b60405180910390f35b34801561027b57600080fd5b50610284611077565b604051610291919061243d565b60405180910390f35b3480156102a657600080fd5b506102c160048036038101906102bc9190612532565b61107d565b6040516102ce919061243d565b60405180910390f35b6102f160048036038101906102ec9190612572565b6110ae565b005b3480156102ff57600080fd5b506103086112ca565b005b34801561031657600080fd5b5061031f61136b565b60405161032c9190612851565b60405180910390f35b34801561034157600080fd5b5061035c60048036038101906103579190612898565b611391565b60405161036991906128e0565b60405180910390f35b61038c60048036038101906103879190612572565b6113e9565b005b34801561039a57600080fd5b506103a36116ca565b6040516103b0919061243d565b60405180910390f35b3480156103c557600080fd5b506103ce6116d0565b005b3480156103dc57600080fd5b506103e56116e4565b6040516103f291906128fb565b60405180910390f35b61041560048036038101906104109190612916565b61170d565b005b34801561042357600080fd5b5061043e60048036038101906104399190612898565b611ddd565b60405161044b9190612a18565b60405180910390f35b34801561046057600080fd5b50610469611e74565b6040516104769190612a5b565b60405180910390f35b34801561048b57600080fd5b50610494611e9a565b6040516104a1919061243d565b60405180910390f35b3480156104b657600080fd5b506104d160048036038101906104cc9190612572565b611ea0565b6040516104de9190612a18565b60405180910390f35b3480156104f357600080fd5b506104fc611f0b565b6040516105099190612c1c565b60405180910390f35b34801561051e57600080fd5b506105276120f8565b604051610534919061243d565b60405180910390f35b34801561054957600080fd5b506105526120fe565b60405161055f919061243d565b60405180910390f35b34801561057457600080fd5b5061058f600480360381019061058a9190612c3e565b612104565b60405161059c919061243d565b60405180910390f35b3480156105b157600080fd5b506105cc60048036038101906105c79190612898565b612135565b005b600a5481565b600260009054906101000a900473ffffffffffffffffffffffffffffffffffffffff1681565b6106026121f2565b60006004838154811061061857610617612c7e565b5b90600052602060002090600b020190506001600381111561063c5761063b6125cf565b5b81600a0160149054906101000a900460ff1660038111156106605761065f6125cf565b5b146106a0576040517f08c379a000000000000000000000000000000000000000000000000000000000815260040161069790612d30565b60405180910390fd5b600281600a0160146101000a81548160ff021916908360038111156106c8576106c76125cf565b5b02179055506000662386f26fc100008260020154606484600101546106ed9190612d7f565b6106f79190612df0565b6107019190612d7f565b905060008183600101546107159190612e21565b90506000610740606461073260058561227090919063ffffffff16565b61228690919063ffffffff16565b905080600c60008282546107549190612e21565b92505081905550600081836107699190612e55565b9050846003015486036109c2578460080160009054906101000a900473ffffffffffffffffffffffffffffffffffffffff1673ffffffffffffffffffffffffffffffffffffffff166108fc829081150290604051600060405180830381858888f193505050501580156107e0573d6000803e3d6000fd5b50600160009054906101000a900473ffffffffffffffffffffffffffffffffffffffff1673ffffffffffffffffffffffffffffffffffffffff1663f42865698660080160009054906101000a900473ffffffffffffffffffffffffffffffffffffffff168488600101546108549190612e55565b6040518363ffffffff1660e01b8152600401610871929190612e89565b600060405180830381600087803b15801561088b57600080fd5b505af115801561089f573d6000803e3d6000fd5b50505050600160009054906101000a900473ffffffffffffffffffffffffffffffffffffffff1673ffffffffffffffffffffffffffffffffffffffff16630a1cb2728660090160009054906101000a900473ffffffffffffffffffffffffffffffffffffffff16866040518363ffffffff1660e01b8152600401610924929190612e89565b600060405180830381600087803b15801561093e57600080fd5b505af1158015610952573d6000803e3d6000fd5b505050508460080160009054906101000a900473ffffffffffffffffffffffffffffffffffffffff1685600a0160006101000a81548173ffffffffffffffffffffffffffffffffffffffff021916908373ffffffffffffffffffffffffffffffffffffffff160217905550610c15565b8460090160009054906101000a900473ffffffffffffffffffffffffffffffffffffffff1673ffffffffffffffffffffffffffffffffffffffff166108fc829081150290604051600060405180830381858888f19350505050158015610a2c573d6000803e3d6000fd5b50600160009054906101000a900473ffffffffffffffffffffffffffffffffffffffff1673ffffffffffffffffffffffffffffffffffffffff1663f42865698660090160009054906101000a900473ffffffffffffffffffffffffffffffffffffffff168487610a9c9190612e55565b6040518363ffffffff1660e01b8152600401610ab9929190612e89565b600060405180830381600087803b158015610ad357600080fd5b505af1158015610ae7573d6000803e3d6000fd5b50505050600160009054906101000a900473ffffffffffffffffffffffffffffffffffffffff1673ffffffffffffffffffffffffffffffffffffffff16630a1cb2728660080160009054906101000a900473ffffffffffffffffffffffffffffffffffffffff16848860010154610b5e9190612e55565b6040518363ffffffff1660e01b8152600401610b7b929190612e89565b600060405180830381600087803b158015610b9557600080fd5b505af1158015610ba9573d6000803e3d6000fd5b505050508460090160009054906101000a900473ffffffffffffffffffffffffffffffffffffffff1685600a0160006101000a81548173ffffffffffffffffffffffffffffffffffffffff021916908373ffffffffffffffffffffffffffffffffffffffff1602179055505b600160009054906101000a900473ffffffffffffffffffffffffffffffffffffffff1673ffffffffffffffffffffffffffffffffffffffff16632876674f8660080160009054906101000a900473ffffffffffffffffffffffffffffffffffffffff166040518263ffffffff1660e01b8152600401610c9491906128fb565b600060405180830381600087803b158015610cae57600080fd5b505af1158015610cc2573d6000803e3d6000fd5b50505050600160009054906101000a900473ffffffffffffffffffffffffffffffffffffffff1673ffffffffffffffffffffffffffffffffffffffff16632876674f8660090160009054906101000a900473ffffffffffffffffffffffffffffffffffffffff166040518263ffffffff1660e01b8152600401610d4591906128fb565b600060405180830381600087803b158015610d5f57600080fd5b505af1158015610d73573d6000803e3d6000fd5b5050505060096000815480929190610d8a90612eb2565b9190505550867f83be4a35029cdd16d4a0947d817c0b35316867415898eb8c2fab99ddd2e098b687604051610dbf919061243d565b60405180910390a250505050505050565b610dd861236f565b60048281548110610dec57610deb612c7e565b5b90600052602060002090600b02016040518061018001604052908160008201548152602001600182015481526020016002820154815260200160038201548152602001600482015481526020016005820154815260200160068201548152602001600782015481526020016008820160009054906101000a900473ffffffffffffffffffffffffffffffffffffffff1673ffffffffffffffffffffffffffffffffffffffff1673ffffffffffffffffffffffffffffffffffffffff1681526020016009820160009054906101000a900473ffffffffffffffffffffffffffffffffffffffff1673ffffffffffffffffffffffffffffffffffffffff1673ffffffffffffffffffffffffffffffffffffffff168152602001600a820160009054906101000a900473ffffffffffffffffffffffffffffffffffffffff1673ffffffffffffffffffffffffffffffffffffffff1673ffffffffffffffffffffffffffffffffffffffff168152602001600a820160149054906101000a900460ff166003811115610f7d57610f7c6125cf565b5b6003811115610f8f57610f8e6125cf565b5b815250509050919050565b60048181548110610faa57600080fd5b90600052602060002090600b02016000915090508060000154908060010154908060020154908060030154908060040154908060050154908060060154908060070154908060080160009054906101000a900473ffffffffffffffffffffffffffffffffffffffff16908060090160009054906101000a900473ffffffffffffffffffffffffffffffffffffffff169080600a0160009054906101000a900473ffffffffffffffffffffffffffffffffffffffff169080600a0160149054906101000a900460ff1690508c565b60085481565b6006602052816000526040600020818154811061109957600080fd5b90600052602060002001600091509150505481565b6000600482815481106110c4576110c3612c7e565b5b90600052602060002090600b020190508060080160009054906101000a900473ffffffffffffffffffffffffffffffffffffffff1673ffffffffffffffffffffffffffffffffffffffff1661111761229c565b73ffffffffffffffffffffffffffffffffffffffff161461116d576040517f08c379a000000000000000000000000000000000000000000000000000000000815260040161116490612f6c565b60405180910390fd5b60006003811115611181576111806125cf565b5b81600a0160149054906101000a900460ff1660038111156111a5576111a46125cf565b5b146111e5576040517f08c379a00000000000000000000000000000000000000000000000000000000081526004016111dc90612fd8565b60405180910390fd5b600381600a0160146101000a81548160ff0219169083600381111561120d5761120c6125cf565b5b02179055508060080160009054906101000a900473ffffffffffffffffffffffffffffffffffffffff1673ffffffffffffffffffffffffffffffffffffffff166108fc82600101549081150290604051600060405180830381858888f19350505050158015611280573d6000803e3d6000fd5b50600a600081548092919061129490612eb2565b9190505550817fe3906e8d1e2167ef706b023e6e83af697db5cd38f233c71bf5021b26b316c3a260405160405180910390a25050565b6112d26121f2565b60004790506000811161131a576040517f08c379a000000000000000000000000000000000000000000000000000000000815260040161131190613044565b60405180910390fd5b6113226116e4565b73ffffffffffffffffffffffffffffffffffffffff166108fc829081150290604051600060405180830381858888f19350505050158015611367573d6000803e3d6000fd5b5050565b600160009054906101000a900473ffffffffffffffffffffffffffffffffffffffff1681565b60007f000000000000000000000000000000000000000000000000000000000000000073ffffffffffffffffffffffffffffffffffffffff168273ffffffffffffffffffffffffffffffffffffffff16149050919050565b6000600482815481106113ff576113fe612c7e565b5b90600052602060002090600b02019050662386f26fc1000081600201546064836001015461142d9190612d7f565b6114379190612df0565b6114419190612d7f565b3414611482576040517f08c379a0000000000000000000000000000000000000000000000000000000008152600401611479906130d6565b60405180910390fd5b8060080160009054906101000a900473ffffffffffffffffffffffffffffffffffffffff1673ffffffffffffffffffffffffffffffffffffffff166114c561229c565b73ffffffffffffffffffffffffffffffffffffffff160361151b576040517f08c379a000000000000000000000000000000000000000000000000000000000815260040161151290613142565b60405180910390fd5b6000600381111561152f5761152e6125cf565b5b81600a0160149054906101000a900460ff166003811115611553576115526125cf565b5b14611593576040517f08c379a000000000000000000000000000000000000000000000000000000000815260040161158a906131ae565b60405180910390fd5b61159b61229c565b8160090160006101000a81548173ffffffffffffffffffffffffffffffffffffffff021916908373ffffffffffffffffffffffffffffffffffffffff160217905550600181600a0160146101000a81548160ff02191690836003811115611605576116046125cf565b5b021790555042816007018190555034600b60008282546116259190612e21565b925050819055506008600081548092919061163f90612eb2565b9190505550817f971b8d88bff3d04bf6a570fd87dd92a7711e4f569b37582a91798876ea0ea1e98260080160009054906101000a900473ffffffffffffffffffffffffffffffffffffffff168360090160009054906101000a900473ffffffffffffffffffffffffffffffffffffffff166040516116be9291906131ce565b60405180910390a25050565b60075481565b6116d86121f2565b6116e260006122ab565b565b60008060009054906101000a900473ffffffffffffffffffffffffffffffffffffffff16905090565b60003411611750576040517f08c379a000000000000000000000000000000000000000000000000000000000815260040161174790613269565b60405180910390fd5b60008211611793576040517f08c379a000000000000000000000000000000000000000000000000000000000815260040161178a906132d5565b60405180910390fd5b42600360009054906101000a900473ffffffffffffffffffffffffffffffffffffffff1673ffffffffffffffffffffffffffffffffffffffff1663a2f77bcc856040518263ffffffff1660e01b81526004016117ef919061243d565b600060405180830381865afa15801561180c573d6000803e3d6000fd5b505050506040513d6000823e3d601f19601f82011682018060405250810190611835919061355d565b6060015111611879576040517f08c379a0000000000000000000000000000000000000000000000000000000008152600401611870906135f2565b60405180910390fd5b60006004805490509050600060405180610180016040528083815260200134815260200185815260200184815260200184600360009054906101000a900473ffffffffffffffffffffffffffffffffffffffff1673ffffffffffffffffffffffffffffffffffffffff1663a2f77bcc896040518263ffffffff1660e01b8152600401611905919061243d565b600060405180830381865afa158015611922573d6000803e3d6000fd5b505050506040513d6000823e3d601f19601f8201168201806040525081019061194b919061355d565b60200151146119fe57600360009054906101000a900473ffffffffffffffffffffffffffffffffffffffff1673ffffffffffffffffffffffffffffffffffffffff1663a2f77bcc886040518263ffffffff1660e01b81526004016119af919061243d565b600060405180830381865afa1580156119cc573d6000803e3d6000fd5b505050506040513d6000823e3d601f19601f820116820180604052508101906119f5919061355d565b60200151611aa4565b600360009054906101000a900473ffffffffffffffffffffffffffffffffffffffff1673ffffffffffffffffffffffffffffffffffffffff1663a2f77bcc886040518263ffffffff1660e01b8152600401611a59919061243d565b600060405180830381865afa158015611a76573d6000803e3d6000fd5b505050506040513d6000823e3d601f19601f82011682018060405250810190611a9f919061355d565b604001515b815260200186815260200142815260200160008152602001611ac461229c565b73ffffffffffffffffffffffffffffffffffffffff168152602001600073ffffffffffffffffffffffffffffffffffffffff168152602001600073ffffffffffffffffffffffffffffffffffffffff16815260200160006003811115611b2d57611b2c6125cf565b5b815250905060048190806001815401808255809150506001900390600052602060002090600b0201600090919091909150600082015181600001556020820151816001015560408201518160020155606082015181600301556080820151816004015560a0820151816005015560c0820151816006015560e082015181600701556101008201518160080160006101000a81548173ffffffffffffffffffffffffffffffffffffffff021916908373ffffffffffffffffffffffffffffffffffffffff1602179055506101208201518160090160006101000a81548173ffffffffffffffffffffffffffffffffffffffff021916908373ffffffffffffffffffffffffffffffffffffffff16021790555061014082015181600a0160006101000a81548173ffffffffffffffffffffffffffffffffffffffff021916908373ffffffffffffffffffffffffffffffffffffffff16021790555061016082015181600a0160146101000a81548160ff02191690836003811115611cb257611cb16125cf565b5b0217905550505034600b6000828254611ccb9190612e21565b9250508190555060056000611cde61229c565b73ffffffffffffffffffffffffffffffffffffffff1673ffffffffffffffffffffffffffffffffffffffff1681526020019081526020016000208290806001815401808255809150506001900390600052602060002001600090919091909150556006600086815260200190815260200160002082908060018154018082558091505060019003906000526020600020016000909190919091505560076000815480929190611d8c90612eb2565b9190505550817f29f8f229585877f20d27efb1882df0ca806636f4c7c78e8f58cdc61934032cf1348686611dbe61229c565b604051611dce9493929190613612565b60405180910390a25050505050565b6060600560008373ffffffffffffffffffffffffffffffffffffffff1673ffffffffffffffffffffffffffffffffffffffff168152602001908152602001600020805480602002602001604051908101604052809291908181526020018280548015611e6857602002820191906000526020600020905b815481526020019060010190808311611e54575b50505050509050919050565b600360009054906101000a900473ffffffffffffffffffffffffffffffffffffffff1681565b600c5481565b606060066000838152602001908152602001600020805480602002602001604051908101604052809291908181526020018280548015611eff57602002820191906000526020600020905b815481526020019060010190808311611eeb575b50505050509050919050565b60606004805480602002602001604051908101604052809291908181526020016000905b828210156120ef57838290600052602060002090600b02016040518061018001604052908160008201548152602001600182015481526020016002820154815260200160038201548152602001600482015481526020016005820154815260200160068201548152602001600782015481526020016008820160009054906101000a900473ffffffffffffffffffffffffffffffffffffffff1673ffffffffffffffffffffffffffffffffffffffff1673ffffffffffffffffffffffffffffffffffffffff1681526020016009820160009054906101000a900473ffffffffffffffffffffffffffffffffffffffff1673ffffffffffffffffffffffffffffffffffffffff1673ffffffffffffffffffffffffffffffffffffffff168152602001600a820160009054906101000a900473ffffffffffffffffffffffffffffffffffffffff1673ffffffffffffffffffffffffffffffffffffffff1673ffffffffffffffffffffffffffffffffffffffff168152602001600a820160149054906101000a900460ff1660038111156120ca576120c96125cf565b5b60038111156120dc576120db6125cf565b5b8152505081526020019060010190611f2f565b50505050905090565b60095481565b600b5481565b6005602052816000526040600020818154811061212057600080fd5b90600052602060002001600091509150505481565b61213d6121f2565b600073ffffffffffffffffffffffffffffffffffffffff168173ffffffffffffffffffffffffffffffffffffffff16036121ac576040517f08c379a00000000000000000000000000000000000000000000000000000000081526004016121a3906136c9565b60405180910390fd5b6121b5816122ab565b50565b60006121c333611391565b156121d757601436033560601c90506121e6565b6121df6121ea565b90506121e7565b5b90565b600033905090565b6121fa61229c565b73ffffffffffffffffffffffffffffffffffffffff166122186116e4565b73ffffffffffffffffffffffffffffffffffffffff161461226e576040517f08c379a000000000000000000000000000000000000000000000000000000000815260040161226590613735565b60405180910390fd5b565b6000818361227e9190612d7f565b905092915050565b600081836122949190612df0565b905092915050565b60006122a66121b8565b905090565b60008060009054906101000a900473ffffffffffffffffffffffffffffffffffffffff169050816000806101000a81548173ffffffffffffffffffffffffffffffffffffffff021916908373ffffffffffffffffffffffffffffffffffffffff1602179055508173ffffffffffffffffffffffffffffffffffffffff168173ffffffffffffffffffffffffffffffffffffffff167f8be0079c531659141344cd1fd0a4f28419497f9722a3daafe3b4186f6b6457e060405160405180910390a35050565b6040518061018001604052806000815260200160008152602001600081526020016000815260200160008152602001600081526020016000815260200160008152602001600073ffffffffffffffffffffffffffffffffffffffff168152602001600073ffffffffffffffffffffffffffffffffffffffff168152602001600073ffffffffffffffffffffffffffffffffffffffff1681526020016000600381111561241e5761241d6125cf565b5b81525090565b6000819050919050565b61243781612424565b82525050565b6000602082019050612452600083018461242e565b92915050565b600073ffffffffffffffffffffffffffffffffffffffff82169050919050565b6000819050919050565b600061249d61249861249384612458565b612478565b612458565b9050919050565b60006124af82612482565b9050919050565b60006124c1826124a4565b9050919050565b6124d1816124b6565b82525050565b60006020820190506124ec60008301846124c8565b92915050565b6000604051905090565b600080fd5b600080fd5b61250f81612424565b811461251a57600080fd5b50565b60008135905061252c81612506565b92915050565b60008060408385031215612549576125486124fc565b5b60006125578582860161251d565b92505060206125688582860161251d565b9150509250929050565b600060208284031215612588576125876124fc565b5b60006125968482850161251d565b91505092915050565b6125a881612424565b82525050565b60006125b982612458565b9050919050565b6125c9816125ae565b82525050565b7f4e487b7100000000000000000000000000000000000000000000000000000000600052602160045260246000fd5b6004811061260f5761260e6125cf565b5b50565b6000819050612620826125fe565b919050565b600061263082612612565b9050919050565b61264081612625565b82525050565b6101808201600082015161265d600085018261259f565b506020820151612670602085018261259f565b506040820151612683604085018261259f565b506060820151612696606085018261259f565b5060808201516126a9608085018261259f565b5060a08201516126bc60a085018261259f565b5060c08201516126cf60c085018261259f565b5060e08201516126e260e085018261259f565b506101008201516126f76101008501826125c0565b5061012082015161270c6101208501826125c0565b506101408201516127216101408501826125c0565b50610160820151612736610160850182612637565b50505050565b6000610180820190506127526000830184612646565b92915050565b612761816125ae565b82525050565b61277081612625565b82525050565b60006101808201905061278c600083018f61242e565b612799602083018e61242e565b6127a6604083018d61242e565b6127b3606083018c61242e565b6127c0608083018b61242e565b6127cd60a083018a61242e565b6127da60c083018961242e565b6127e760e083018861242e565b6127f5610100830187612758565b612803610120830186612758565b612811610140830185612758565b61281f610160830184612767565b9d9c50505050505050505050505050565b600061283b826124a4565b9050919050565b61284b81612830565b82525050565b60006020820190506128666000830184612842565b92915050565b612875816125ae565b811461288057600080fd5b50565b6000813590506128928161286c565b92915050565b6000602082840312156128ae576128ad6124fc565b5b60006128bc84828501612883565b91505092915050565b60008115159050919050565b6128da816128c5565b82525050565b60006020820190506128f560008301846128d1565b92915050565b60006020820190506129106000830184612758565b92915050565b60008060006060848603121561292f5761292e6124fc565b5b600061293d8682870161251d565b935050602061294e8682870161251d565b925050604061295f8682870161251d565b9150509250925092565b600081519050919050565b600082825260208201905092915050565b6000819050602082019050919050565b60006129a1838361259f565b60208301905092915050565b6000602082019050919050565b60006129c582612969565b6129cf8185612974565b93506129da83612985565b8060005b83811015612a0b5781516129f28882612995565b97506129fd836129ad565b9250506001810190506129de565b5085935050505092915050565b60006020820190508181036000830152612a3281846129ba565b905092915050565b6000612a45826124a4565b9050919050565b612a5581612a3a565b82525050565b6000602082019050612a706000830184612a4c565b92915050565b600081519050919050565b600082825260208201905092915050565b6000819050602082019050919050565b61018082016000820151612ab9600085018261259f565b506020820151612acc602085018261259f565b506040820151612adf604085018261259f565b506060820151612af2606085018261259f565b506080820151612b05608085018261259f565b5060a0820151612b1860a085018261259f565b5060c0820151612b2b60c085018261259f565b5060e0820151612b3e60e085018261259f565b50610100820151612b536101008501826125c0565b50610120820151612b686101208501826125c0565b50610140820151612b7d6101408501826125c0565b50610160820151612b92610160850182612637565b50505050565b6000612ba48383612aa2565b6101808301905092915050565b6000602082019050919050565b6000612bc982612a76565b612bd38185612a81565b9350612bde83612a92565b8060005b83811015612c0f578151612bf68882612b98565b9750612c0183612bb1565b925050600181019050612be2565b5085935050505092915050565b60006020820190508181036000830152612c368184612bbe565b905092915050565b60008060408385031215612c5557612c546124fc565b5b6000612c6385828601612883565b9250506020612c748582860161251d565b9150509250929050565b7f4e487b7100000000000000000000000000000000000000000000000000000000600052603260045260246000fd5b600082825260208201905092915050565b7f596f752063616e206f6e6c792066696e69736820616e2061636365707465642060008201527f6265740000000000000000000000000000000000000000000000000000000000602082015250565b6000612d1a602383612cad565b9150612d2582612cbe565b604082019050919050565b60006020820190508181036000830152612d4981612d0d565b9050919050565b7f4e487b7100000000000000000000000000000000000000000000000000000000600052601160045260246000fd5b6000612d8a82612424565b9150612d9583612424565b9250828202612da381612424565b91508282048414831517612dba57612db9612d50565b5b5092915050565b7f4e487b7100000000000000000000000000000000000000000000000000000000600052601260045260246000fd5b6000612dfb82612424565b9150612e0683612424565b925082612e1657612e15612dc1565b5b828204905092915050565b6000612e2c82612424565b9150612e3783612424565b9250828201905080821115612e4f57612e4e612d50565b5b92915050565b6000612e6082612424565b9150612e6b83612424565b9250828203905081811115612e8357612e82612d50565b5b92915050565b6000604082019050612e9e6000830185612758565b612eab602083018461242e565b9392505050565b6000612ebd82612424565b91507fffffffffffffffffffffffffffffffffffffffffffffffffffffffffffffffff8203612eef57612eee612d50565b5b600182019050919050565b7f4f6e6c7920746865206265742063726561746f722063616e2063616e63656c2060008201527f7468652062657400000000000000000000000000000000000000000000000000602082015250565b6000612f56602783612cad565b9150612f6182612efa565b604082019050919050565b60006020820190508181036000830152612f8581612f49565b9050919050565b7f426574206e6f7420617661696c61626c65000000000000000000000000000000600082015250565b6000612fc2601183612cad565b9150612fcd82612f8c565b602082019050919050565b60006020820190508181036000830152612ff181612fb5565b9050919050565b7f436f6e74726163742062616c616e6365206973207a65726f2e00000000000000600082015250565b600061302e601983612cad565b915061303982612ff8565b602082019050919050565b6000602082019050818103600083015261305d81613021565b9050919050565b7f446f6573206e6f74206d617463682074686520657870656374656420616d6f7560008201527f6e74000000000000000000000000000000000000000000000000000000000000602082015250565b60006130c0602283612cad565b91506130cb82613064565b604082019050919050565b600060208201905081810360008301526130ef816130b3565b9050919050565b7f43616e6e6f742061636365707420796f7572206f776e20626574000000000000600082015250565b600061312c601a83612cad565b9150613137826130f6565b602082019050919050565b6000602082019050818103600083015261315b8161311f565b9050919050565b7f426574206973206e6f206c6f6e67657220617661696c61626c65000000000000600082015250565b6000613198601a83612cad565b91506131a382613162565b602082019050919050565b600060208201905081810360008301526131c78161318b565b9050919050565b60006040820190506131e36000830185612758565b6131f06020830184612758565b9392505050565b7f42657420616d6f756e74206d7573742062652067726561746572207468616e2060008201527f3000000000000000000000000000000000000000000000000000000000000000602082015250565b6000613253602183612cad565b915061325e826131f7565b604082019050919050565b6000602082019050818103600083015261328281613246565b9050919050565b7f4f646473206d7573742062652067726561746572207468616e20300000000000600082015250565b60006132bf601b83612cad565b91506132ca82613289565b602082019050919050565b600060208201905081810360008301526132ee816132b2565b9050919050565b600080fd5b6000601f19601f8301169050919050565b7f4e487b7100000000000000000000000000000000000000000000000000000000600052604160045260246000fd5b613343826132fa565b810181811067ffffffffffffffff821117156133625761336161330b565b5b80604052505050565b60006133756124f2565b9050613381828261333a565b919050565b600080fd5b60008151905061339a81612506565b92915050565b6133a9816128c5565b81146133b457600080fd5b50565b6000815190506133c6816133a0565b92915050565b600080fd5b600080fd5b600067ffffffffffffffff8211156133f1576133f061330b565b5b6133fa826132fa565b9050602081019050919050565b60005b8381101561342557808201518184015260208101905061340a565b60008484015250505050565b600061344461343f846133d6565b61336b565b9050828152602081018484840111156134605761345f6133d1565b5b61346b848285613407565b509392505050565b600082601f830112613488576134876133cc565b5b8151613498848260208601613431565b91505092915050565b600060c082840312156134b7576134b66132f5565b5b6134c160c061336b565b905060006134d18482850161338b565b60008301525060206134e58482850161338b565b60208301525060406134f98482850161338b565b604083015250606061350d8482850161338b565b6060830152506080613521848285016133b7565b60808301525060a082015167ffffffffffffffff81111561354557613544613386565b5b61355184828501613473565b60a08301525092915050565b600060208284031215613573576135726124fc565b5b600082015167ffffffffffffffff81111561359157613590612501565b5b61359d848285016134a1565b91505092915050565b7f47616d652068617320616c726561647920737461727465640000000000000000600082015250565b60006135dc601883612cad565b91506135e7826135a6565b602082019050919050565b6000602082019050818103600083015261360b816135cf565b9050919050565b6000608082019050613627600083018761242e565b613634602083018661242e565b613641604083018561242e565b61364e6060830184612758565b95945050505050565b7f4f776e61626c653a206e6577206f776e657220697320746865207a65726f206160008201527f6464726573730000000000000000000000000000000000000000000000000000602082015250565b60006136b3602683612cad565b91506136be82613657565b604082019050919050565b600060208201905081810360008301526136e2816136a6565b9050919050565b7f4f776e61626c653a2063616c6c6572206973206e6f7420746865206f776e6572600082015250565b600061371f602083612cad565b915061372a826136e9565b602082019050919050565b6000602082019050818103600083015261374e81613712565b905091905056fea2646970667358221220b803a1ee9cd8cc0589e8e3ab008642d10c3e4d057f0c28bc521563894744ff0b64736f6c63430008110033",
  "linkReferences": {},
  "deployedLinkReferences": {}
}