{
  "_format": "hh-sol-artifact-1",
  "contractName": "Bets",
  "sourceName": "contracts/Bets.sol",
  "abi": [
    {
      "inputs": [
        {
          "internalType": "address",
          "name": "_profilesAddress",
          "type": "address"
        },
        {
          "internalType": "address",
          "name": "_gamesAddress",
          "type": "address"
        }
      ],
      "stateMutability": "nonpayable",
      "type": "constructor"
    },
    {
      "anonymous": false,
      "inputs": [
        {
          "indexed": true,
          "internalType": "uint256",
          "name": "id",
          "type": "uint256"
        },
        {
          "indexed": false,
          "internalType": "address",
          "name": "acceptor",
          "type": "address"
        },
        {
          "indexed": false,
          "internalType": "address",
          "name": "creator",
          "type": "address"
        }
      ],
      "name": "BetAccepted",
      "type": "event"
    },
    {
      "anonymous": false,
      "inputs": [
        {
          "indexed": true,
          "internalType": "uint256",
          "name": "id",
          "type": "uint256"
        }
      ],
      "name": "BetCancelled",
      "type": "event"
    },
    {
      "anonymous": false,
      "inputs": [
        {
          "indexed": true,
          "internalType": "uint256",
          "name": "id",
          "type": "uint256"
        },
        {
          "indexed": false,
          "internalType": "uint256",
          "name": "amount",
          "type": "uint256"
        },
        {
          "indexed": false,
          "internalType": "uint256",
          "name": "_odds",
          "type": "uint256"
        },
        {
          "indexed": false,
          "internalType": "uint256",
          "name": "teamId",
          "type": "uint256"
        },
        {
          "indexed": false,
          "internalType": "address",
          "name": "creator",
          "type": "address"
        }
      ],
      "name": "BetCreated",
      "type": "event"
    },
    {
      "anonymous": false,
      "inputs": [
        {
          "indexed": true,
          "internalType": "uint256",
          "name": "id",
          "type": "uint256"
        },
        {
          "indexed": false,
          "internalType": "uint256",
          "name": "teamId",
          "type": "uint256"
        }
      ],
      "name": "BetFinished",
      "type": "event"
    },
    {
      "anonymous": false,
      "inputs": [
        {
          "indexed": true,
          "internalType": "address",
          "name": "previousOwner",
          "type": "address"
        },
        {
          "indexed": true,
          "internalType": "address",
          "name": "newOwner",
          "type": "address"
        }
      ],
      "name": "OwnershipTransferred",
      "type": "event"
    },
    {
      "inputs": [
        {
          "internalType": "uint256",
          "name": "_id",
          "type": "uint256"
        }
      ],
      "name": "acceptBet",
      "outputs": [],
      "stateMutability": "payable",
      "type": "function"
    },
    {
      "inputs": [
        {
          "internalType": "uint256",
          "name": "",
          "type": "uint256"
        }
      ],
      "name": "bets",
      "outputs": [
        {
          "internalType": "uint256",
          "name": "betId",
          "type": "uint256"
        },
        {
          "internalType": "uint256",
          "name": "amount",
          "type": "uint256"
        },
        {
          "internalType": "uint256",
          "name": "odds",
          "type": "uint256"
        },
        {
          "internalType": "uint256",
          "name": "teamPickedId",
          "type": "uint256"
        },
        {
          "internalType": "uint256",
          "name": "otherTeamPickedId",
          "type": "uint256"
        },
        {
          "internalType": "uint256",
          "name": "gameId",
          "type": "uint256"
        },
        {
          "internalType": "uint256",
          "name": "betCreated",
          "type": "uint256"
        },
        {
          "internalType": "uint256",
          "name": "betAccepted",
          "type": "uint256"
        },
        {
          "internalType": "address",
          "name": "creator",
          "type": "address"
        },
        {
          "internalType": "address",
          "name": "acceptor",
          "type": "address"
        },
        {
          "internalType": "address",
          "name": "winner",
          "type": "address"
        },
        {
          "internalType": "enum Bets.BetState",
          "name": "state",
          "type": "uint8"
        }
      ],
      "stateMutability": "view",
      "type": "function"
    },
    {
      "inputs": [],
      "name": "betsAccepted",
      "outputs": [
        {
          "internalType": "uint256",
          "name": "",
          "type": "uint256"
        }
      ],
      "stateMutability": "view",
      "type": "function"
    },
    {
      "inputs": [],
      "name": "betsCancelled",
      "outputs": [
        {
          "internalType": "uint256",
          "name": "",
          "type": "uint256"
        }
      ],
      "stateMutability": "view",
      "type": "function"
    },
    {
      "inputs": [],
      "name": "betsCreated",
      "outputs": [
        {
          "internalType": "uint256",
          "name": "",
          "type": "uint256"
        }
      ],
      "stateMutability": "view",
      "type": "function"
    },
    {
      "inputs": [],
      "name": "betsFinished",
      "outputs": [
        {
          "internalType": "uint256",
          "name": "",
          "type": "uint256"
        }
      ],
      "stateMutability": "view",
      "type": "function"
    },
    {
      "inputs": [
        {
          "internalType": "uint256",
          "name": "_id",
          "type": "uint256"
        }
      ],
      "name": "cancelBet",
      "outputs": [],
      "stateMutability": "payable",
      "type": "function"
    },
    {
      "inputs": [
        {
          "internalType": "uint256",
          "name": "_gameId",
          "type": "uint256"
        },
        {
          "internalType": "uint256",
          "name": "_odds",
          "type": "uint256"
        },
        {
          "internalType": "uint256",
          "name": "_teamId",
          "type": "uint256"
        }
      ],
      "name": "createBet",
      "outputs": [],
      "stateMutability": "payable",
      "type": "function"
    },
    {
      "inputs": [
        {
          "internalType": "uint256",
          "name": "_id",
          "type": "uint256"
        },
        {
          "internalType": "uint256",
          "name": "_winningTeamId",
          "type": "uint256"
        }
      ],
      "name": "finishBet",
      "outputs": [],
      "stateMutability": "nonpayable",
      "type": "function"
    },
    {
      "inputs": [
        {
          "internalType": "uint256",
          "name": "",
          "type": "uint256"
        },
        {
          "internalType": "uint256",
          "name": "",
          "type": "uint256"
        }
      ],
      "name": "gameBets",
      "outputs": [
        {
          "internalType": "uint256",
          "name": "",
          "type": "uint256"
        }
      ],
      "stateMutability": "view",
      "type": "function"
    },
    {
      "inputs": [],
      "name": "games",
      "outputs": [
        {
          "internalType": "contract Games",
          "name": "",
          "type": "address"
        }
      ],
      "stateMutability": "view",
      "type": "function"
    },
    {
      "inputs": [
        {
          "internalType": "uint256",
          "name": "_id",
          "type": "uint256"
        }
      ],
      "name": "getBet",
      "outputs": [
        {
          "components": [
            {
              "internalType": "uint256",
              "name": "betId",
              "type": "uint256"
            },
            {
              "internalType": "uint256",
              "name": "amount",
              "type": "uint256"
            },
            {
              "internalType": "uint256",
              "name": "odds",
              "type": "uint256"
            },
            {
              "internalType": "uint256",
              "name": "teamPickedId",
              "type": "uint256"
            },
            {
              "internalType": "uint256",
              "name": "otherTeamPickedId",
              "type": "uint256"
            },
            {
              "internalType": "uint256",
              "name": "gameId",
              "type": "uint256"
            },
            {
              "internalType": "uint256",
              "name": "betCreated",
              "type": "uint256"
            },
            {
              "internalType": "uint256",
              "name": "betAccepted",
              "type": "uint256"
            },
            {
              "internalType": "address",
              "name": "creator",
              "type": "address"
            },
            {
              "internalType": "address",
              "name": "acceptor",
              "type": "address"
            },
            {
              "internalType": "address",
              "name": "winner",
              "type": "address"
            },
            {
              "internalType": "enum Bets.BetState",
              "name": "state",
              "type": "uint8"
            }
          ],
          "internalType": "struct Bets.Bet",
          "name": "",
          "type": "tuple"
        }
      ],
      "stateMutability": "view",
      "type": "function"
    },
    {
      "inputs": [],
      "name": "getBets",
      "outputs": [
        {
          "components": [
            {
              "internalType": "uint256",
              "name": "betId",
              "type": "uint256"
            },
            {
              "internalType": "uint256",
              "name": "amount",
              "type": "uint256"
            },
            {
              "internalType": "uint256",
              "name": "odds",
              "type": "uint256"
            },
            {
              "internalType": "uint256",
              "name": "teamPickedId",
              "type": "uint256"
            },
            {
              "internalType": "uint256",
              "name": "otherTeamPickedId",
              "type": "uint256"
            },
            {
              "internalType": "uint256",
              "name": "gameId",
              "type": "uint256"
            },
            {
              "internalType": "uint256",
              "name": "betCreated",
              "type": "uint256"
            },
            {
              "internalType": "uint256",
              "name": "betAccepted",
              "type": "uint256"
            },
            {
              "internalType": "address",
              "name": "creator",
              "type": "address"
            },
            {
              "internalType": "address",
              "name": "acceptor",
              "type": "address"
            },
            {
              "internalType": "address",
              "name": "winner",
              "type": "address"
            },
            {
              "internalType": "enum Bets.BetState",
              "name": "state",
              "type": "uint8"
            }
          ],
          "internalType": "struct Bets.Bet[]",
          "name": "",
          "type": "tuple[]"
        }
      ],
      "stateMutability": "view",
      "type": "function"
    },
    {
      "inputs": [
        {
          "internalType": "uint256",
          "name": "_gameId",
          "type": "uint256"
        }
      ],
      "name": "getGameBets",
      "outputs": [
        {
          "internalType": "uint256[]",
          "name": "",
          "type": "uint256[]"
        }
      ],
      "stateMutability": "view",
      "type": "function"
    },
    {
      "inputs": [
        {
          "internalType": "address",
          "name": "_wallet",
          "type": "address"
        }
      ],
      "name": "getWalletBets",
      "outputs": [
        {
          "internalType": "uint256[]",
          "name": "",
          "type": "uint256[]"
        }
      ],
      "stateMutability": "view",
      "type": "function"
    },
    {
      "inputs": [
        {
          "internalType": "address",
          "name": "forwarder",
          "type": "address"
        }
      ],
      "name": "isTrustedForwarder",
      "outputs": [
        {
          "internalType": "bool",
          "name": "",
          "type": "bool"
        }
      ],
      "stateMutability": "view",
      "type": "function"
    },
    {
      "inputs": [],
      "name": "owner",
      "outputs": [
        {
          "internalType": "address",
          "name": "",
          "type": "address"
        }
      ],
      "stateMutability": "view",
      "type": "function"
    },
    {
      "inputs": [],
      "name": "profiles",
      "outputs": [
        {
          "internalType": "contract Profiles",
          "name": "",
          "type": "address"
        }
      ],
      "stateMutability": "view",
      "type": "function"
    },
    {
      "inputs": [],
      "name": "renounceOwnership",
      "outputs": [],
      "stateMutability": "nonpayable",
      "type": "function"
    },
    {
      "inputs": [],
      "name": "totalBetMoney",
      "outputs": [
        {
          "internalType": "uint256",
          "name": "",
          "type": "uint256"
        }
      ],
      "stateMutability": "view",
      "type": "function"
    },
    {
      "inputs": [],
      "name": "totalRev",
      "outputs": [
        {
          "internalType": "uint256",
          "name": "",
          "type": "uint256"
        }
      ],
      "stateMutability": "view",
      "type": "function"
    },
    {
      "inputs": [
        {
          "internalType": "address",
          "name": "newOwner",
          "type": "address"
        }
      ],
      "name": "transferOwnership",
      "outputs": [],
      "stateMutability": "nonpayable",
      "type": "function"
    },
    {
      "inputs": [
        {
          "internalType": "address",
          "name": "",
          "type": "address"
        },
        {
          "internalType": "uint256",
          "name": "",
          "type": "uint256"
        }
      ],
      "name": "walletBets",
      "outputs": [
        {
          "internalType": "uint256",
          "name": "",
          "type": "uint256"
        }
      ],
      "stateMutability": "view",
      "type": "function"
    },
    {
      "inputs": [],
      "name": "withdraw",
      "outputs": [],
      "stateMutability": "nonpayable",
      "type": "function"
    }
  ],
  "bytecode": "0x60a060405260006006556000600755600060085560006009556000600a556000600b553480156200002f57600080fd5b5060405162003a6538038062003a6583398181016040528101906200005591906200031f565b73bf175fcc7086b4f9bd59d5eae8ea67b8f940de0d8073ffffffffffffffffffffffffffffffffffffffff1660808173ffffffffffffffffffffffffffffffffffffffff168152505050620000bf620000b36200014960201b60201c565b6200016560201b60201c565b81600160006101000a81548173ffffffffffffffffffffffffffffffffffffffff021916908373ffffffffffffffffffffffffffffffffffffffff16021790555080600260006101000a81548173ffffffffffffffffffffffffffffffffffffffff021916908373ffffffffffffffffffffffffffffffffffffffff160217905550505062000366565b6000620001606200022960201b6200214c1760201c565b905090565b60008060009054906101000a900473ffffffffffffffffffffffffffffffffffffffff169050816000806101000a81548173ffffffffffffffffffffffffffffffffffffffff021916908373ffffffffffffffffffffffffffffffffffffffff1602179055508173ffffffffffffffffffffffffffffffffffffffff168173ffffffffffffffffffffffffffffffffffffffff167f8be0079c531659141344cd1fd0a4f28419497f9722a3daafe3b4186f6b6457e060405160405180910390a35050565b60006200023c336200027360201b60201c565b156200025257601436033560601c90506200026f565b62000267620002ad60201b6200217e1760201c565b905062000270565b5b90565b600060805173ffffffffffffffffffffffffffffffffffffffff168273ffffffffffffffffffffffffffffffffffffffff16149050919050565b600033905090565b600080fd5b600073ffffffffffffffffffffffffffffffffffffffff82169050919050565b6000620002e782620002ba565b9050919050565b620002f981620002da565b81146200030557600080fd5b50565b6000815190506200031981620002ee565b92915050565b60008060408385031215620003395762000338620002b5565b5b6000620003498582860162000308565b92505060206200035c8582860162000308565b9150509250929050565b6080516136e362000382600039600061132901526136e36000f3fe60806040526004361061014b5760003560e01c8063715018a6116100b657806399d652ac1161006f57806399d652ac14610464578063a6afd5fd146104a1578063b4cdfdf0146104cc578063c8e40515146104f7578063eb4f0ab114610522578063f2fde38b1461055f5761014b565b8063715018a6146103735780638da5cb5b1461038a5780639062ce7d146103b5578063922ec805146103d1578063955a015b1461040e5780639590616c146104395761014b565b8063357401f511610108578063357401f5146102915780633ccfd60b146102ad578063495057cf146102c4578063572b6c05146102ef5780636c0c27e11461032c5780636edcf7c5146103485761014b565b806301ff9ce31461015057806304f29ae71461017b578063061e494f146101a457806322af00fa146101e1578063230fba481461022957806328ad30ed14610254575b600080fd5b34801561015c57600080fd5b50610165610588565b60405161017291906123d1565b60405180910390f35b34801561018757600080fd5b506101a2600480360381019061019d919061242c565b61058e565b005b3480156101b057600080fd5b506101cb60048036038101906101c6919061246c565b610d64565b6040516101d89190612656565b60405180910390f35b3480156101ed57600080fd5b506102086004803603810190610203919061246c565b610f2e565b6040516102209c9b9a99989796959493929190612690565b60405180910390f35b34801561023557600080fd5b5061023e61100b565b60405161024b91906123d1565b60405180910390f35b34801561026057600080fd5b5061027b6004803603810190610276919061242c565b611011565b60405161028891906123d1565b60405180910390f35b6102ab60048036038101906102a6919061246c565b611042565b005b3480156102b957600080fd5b506102c261125e565b005b3480156102d057600080fd5b506102d96112ff565b6040516102e691906127a9565b60405180910390f35b3480156102fb57600080fd5b50610316600480360381019061031191906127f0565b611325565b6040516103239190612838565b60405180910390f35b6103466004803603810190610341919061246c565b61137d565b005b34801561035457600080fd5b5061035d61165e565b60405161036a91906123d1565b60405180910390f35b34801561037f57600080fd5b50610388611664565b005b34801561039657600080fd5b5061039f611678565b6040516103ac9190612853565b60405180910390f35b6103cf60048036038101906103ca919061286e565b6116a1565b005b3480156103dd57600080fd5b506103f860048036038101906103f391906127f0565b611d71565b6040516104059190612970565b60405180910390f35b34801561041a57600080fd5b50610423611e08565b60405161043091906129b3565b60405180910390f35b34801561044557600080fd5b5061044e611e2e565b60405161045b91906123d1565b60405180910390f35b34801561047057600080fd5b5061048b6004803603810190610486919061246c565b611e34565b6040516104989190612970565b60405180910390f35b3480156104ad57600080fd5b506104b6611e9f565b6040516104c39190612b74565b60405180910390f35b3480156104d857600080fd5b506104e161208c565b6040516104ee91906123d1565b60405180910390f35b34801561050357600080fd5b5061050c612092565b60405161051991906123d1565b60405180910390f35b34801561052e57600080fd5b5061054960048036038101906105449190612b96565b612098565b60405161055691906123d1565b60405180910390f35b34801561056b57600080fd5b50610586600480360381019061058191906127f0565b6120c9565b005b60095481565b610596612186565b6000600383815481106105ac576105ab612bd6565b5b90600052602060002090600b02019050600160038111156105d0576105cf6124e9565b5b81600a0160149054906101000a900460ff1660038111156105f4576105f36124e9565b5b14610634576040517f08c379a000000000000000000000000000000000000000000000000000000000815260040161062b90612c88565b60405180910390fd5b600281600a0160146101000a81548160ff0219169083600381111561065c5761065b6124e9565b5b02179055506000662386f26fc100008260020154606484600101546106819190612cd7565b61068b9190612d48565b6106959190612cd7565b905060008183600101546106a99190612d79565b905060006106d460646106c660058561220490919063ffffffff16565b61221a90919063ffffffff16565b905080600b60008282546106e89190612d79565b92505081905550600081836106fd9190612dad565b905084600301548603610956578460080160009054906101000a900473ffffffffffffffffffffffffffffffffffffffff1673ffffffffffffffffffffffffffffffffffffffff166108fc829081150290604051600060405180830381858888f19350505050158015610774573d6000803e3d6000fd5b50600160009054906101000a900473ffffffffffffffffffffffffffffffffffffffff1673ffffffffffffffffffffffffffffffffffffffff1663f42865698660080160009054906101000a900473ffffffffffffffffffffffffffffffffffffffff168488600101546107e89190612dad565b6040518363ffffffff1660e01b8152600401610805929190612de1565b600060405180830381600087803b15801561081f57600080fd5b505af1158015610833573d6000803e3d6000fd5b50505050600160009054906101000a900473ffffffffffffffffffffffffffffffffffffffff1673ffffffffffffffffffffffffffffffffffffffff16630a1cb2728660090160009054906101000a900473ffffffffffffffffffffffffffffffffffffffff16866040518363ffffffff1660e01b81526004016108b8929190612de1565b600060405180830381600087803b1580156108d257600080fd5b505af11580156108e6573d6000803e3d6000fd5b505050508460080160009054906101000a900473ffffffffffffffffffffffffffffffffffffffff1685600a0160006101000a81548173ffffffffffffffffffffffffffffffffffffffff021916908373ffffffffffffffffffffffffffffffffffffffff160217905550610ba9565b8460090160009054906101000a900473ffffffffffffffffffffffffffffffffffffffff1673ffffffffffffffffffffffffffffffffffffffff166108fc829081150290604051600060405180830381858888f193505050501580156109c0573d6000803e3d6000fd5b50600160009054906101000a900473ffffffffffffffffffffffffffffffffffffffff1673ffffffffffffffffffffffffffffffffffffffff1663f42865698660090160009054906101000a900473ffffffffffffffffffffffffffffffffffffffff168487610a309190612dad565b6040518363ffffffff1660e01b8152600401610a4d929190612de1565b600060405180830381600087803b158015610a6757600080fd5b505af1158015610a7b573d6000803e3d6000fd5b50505050600160009054906101000a900473ffffffffffffffffffffffffffffffffffffffff1673ffffffffffffffffffffffffffffffffffffffff16630a1cb2728660080160009054906101000a900473ffffffffffffffffffffffffffffffffffffffff16848860010154610af29190612dad565b6040518363ffffffff1660e01b8152600401610b0f929190612de1565b600060405180830381600087803b158015610b2957600080fd5b505af1158015610b3d573d6000803e3d6000fd5b505050508460090160009054906101000a900473ffffffffffffffffffffffffffffffffffffffff1685600a0160006101000a81548173ffffffffffffffffffffffffffffffffffffffff021916908373ffffffffffffffffffffffffffffffffffffffff1602179055505b600160009054906101000a900473ffffffffffffffffffffffffffffffffffffffff1673ffffffffffffffffffffffffffffffffffffffff16632876674f8660080160009054906101000a900473ffffffffffffffffffffffffffffffffffffffff166040518263ffffffff1660e01b8152600401610c289190612853565b600060405180830381600087803b158015610c4257600080fd5b505af1158015610c56573d6000803e3d6000fd5b50505050600160009054906101000a900473ffffffffffffffffffffffffffffffffffffffff1673ffffffffffffffffffffffffffffffffffffffff16632876674f8660090160009054906101000a900473ffffffffffffffffffffffffffffffffffffffff166040518263ffffffff1660e01b8152600401610cd99190612853565b600060405180830381600087803b158015610cf357600080fd5b505af1158015610d07573d6000803e3d6000fd5b5050505060086000815480929190610d1e90612e0a565b9190505550867f83be4a35029cdd16d4a0947d817c0b35316867415898eb8c2fab99ddd2e098b687604051610d5391906123d1565b60405180910390a250505050505050565b610d6c612303565b60038281548110610d8057610d7f612bd6565b5b90600052602060002090600b02016040518061018001604052908160008201548152602001600182015481526020016002820154815260200160038201548152602001600482015481526020016005820154815260200160068201548152602001600782015481526020016008820160009054906101000a900473ffffffffffffffffffffffffffffffffffffffff1673ffffffffffffffffffffffffffffffffffffffff1673ffffffffffffffffffffffffffffffffffffffff1681526020016009820160009054906101000a900473ffffffffffffffffffffffffffffffffffffffff1673ffffffffffffffffffffffffffffffffffffffff1673ffffffffffffffffffffffffffffffffffffffff168152602001600a820160009054906101000a900473ffffffffffffffffffffffffffffffffffffffff1673ffffffffffffffffffffffffffffffffffffffff1673ffffffffffffffffffffffffffffffffffffffff168152602001600a820160149054906101000a900460ff166003811115610f1157610f106124e9565b5b6003811115610f2357610f226124e9565b5b815250509050919050565b60038181548110610f3e57600080fd5b90600052602060002090600b02016000915090508060000154908060010154908060020154908060030154908060040154908060050154908060060154908060070154908060080160009054906101000a900473ffffffffffffffffffffffffffffffffffffffff16908060090160009054906101000a900473ffffffffffffffffffffffffffffffffffffffff169080600a0160009054906101000a900473ffffffffffffffffffffffffffffffffffffffff169080600a0160149054906101000a900460ff1690508c565b60075481565b6005602052816000526040600020818154811061102d57600080fd5b90600052602060002001600091509150505481565b60006003828154811061105857611057612bd6565b5b90600052602060002090600b020190508060080160009054906101000a900473ffffffffffffffffffffffffffffffffffffffff1673ffffffffffffffffffffffffffffffffffffffff166110ab612230565b73ffffffffffffffffffffffffffffffffffffffff1614611101576040517f08c379a00000000000000000000000000000000000000000000000000000000081526004016110f890612ec4565b60405180910390fd5b60006003811115611115576111146124e9565b5b81600a0160149054906101000a900460ff166003811115611139576111386124e9565b5b14611179576040517f08c379a000000000000000000000000000000000000000000000000000000000815260040161117090612f30565b60405180910390fd5b600381600a0160146101000a81548160ff021916908360038111156111a1576111a06124e9565b5b02179055508060080160009054906101000a900473ffffffffffffffffffffffffffffffffffffffff1673ffffffffffffffffffffffffffffffffffffffff166108fc82600101549081150290604051600060405180830381858888f19350505050158015611214573d6000803e3d6000fd5b506009600081548092919061122890612e0a565b9190505550817fe3906e8d1e2167ef706b023e6e83af697db5cd38f233c71bf5021b26b316c3a260405160405180910390a25050565b611266612186565b6000479050600081116112ae576040517f08c379a00000000000000000000000000000000000000000000000000000000081526004016112a590612f9c565b60405180910390fd5b6112b6611678565b73ffffffffffffffffffffffffffffffffffffffff166108fc829081150290604051600060405180830381858888f193505050501580156112fb573d6000803e3d6000fd5b5050565b600160009054906101000a900473ffffffffffffffffffffffffffffffffffffffff1681565b60007f000000000000000000000000000000000000000000000000000000000000000073ffffffffffffffffffffffffffffffffffffffff168273ffffffffffffffffffffffffffffffffffffffff16149050919050565b60006003828154811061139357611392612bd6565b5b90600052602060002090600b02019050662386f26fc100008160020154606483600101546113c19190612cd7565b6113cb9190612d48565b6113d59190612cd7565b3414611416576040517f08c379a000000000000000000000000000000000000000000000000000000000815260040161140d9061302e565b60405180910390fd5b8060080160009054906101000a900473ffffffffffffffffffffffffffffffffffffffff1673ffffffffffffffffffffffffffffffffffffffff16611459612230565b73ffffffffffffffffffffffffffffffffffffffff16036114af576040517f08c379a00000000000000000000000000000000000000000000000000000000081526004016114a69061309a565b60405180910390fd5b600060038111156114c3576114c26124e9565b5b81600a0160149054906101000a900460ff1660038111156114e7576114e66124e9565b5b14611527576040517f08c379a000000000000000000000000000000000000000000000000000000000815260040161151e90613106565b60405180910390fd5b61152f612230565b8160090160006101000a81548173ffffffffffffffffffffffffffffffffffffffff021916908373ffffffffffffffffffffffffffffffffffffffff160217905550600181600a0160146101000a81548160ff02191690836003811115611599576115986124e9565b5b021790555042816007018190555034600a60008282546115b99190612d79565b92505081905550600760008154809291906115d390612e0a565b9190505550817f971b8d88bff3d04bf6a570fd87dd92a7711e4f569b37582a91798876ea0ea1e98260080160009054906101000a900473ffffffffffffffffffffffffffffffffffffffff168360090160009054906101000a900473ffffffffffffffffffffffffffffffffffffffff16604051611652929190613126565b60405180910390a25050565b60065481565b61166c612186565b611676600061223f565b565b60008060009054906101000a900473ffffffffffffffffffffffffffffffffffffffff16905090565b600034116116e4576040517f08c379a00000000000000000000000000000000000000000000000000000000081526004016116db906131c1565b60405180910390fd5b60008211611727576040517f08c379a000000000000000000000000000000000000000000000000000000000815260040161171e9061322d565b60405180910390fd5b42600260009054906101000a900473ffffffffffffffffffffffffffffffffffffffff1673ffffffffffffffffffffffffffffffffffffffff1663a2f77bcc856040518263ffffffff1660e01b815260040161178391906123d1565b600060405180830381865afa1580156117a0573d6000803e3d6000fd5b505050506040513d6000823e3d601f19601f820116820180604052508101906117c991906134b5565b606001511161180d576040517f08c379a00000000000000000000000000000000000000000000000000000000081526004016118049061354a565b60405180910390fd5b60006003805490509050600060405180610180016040528083815260200134815260200185815260200184815260200184600260009054906101000a900473ffffffffffffffffffffffffffffffffffffffff1673ffffffffffffffffffffffffffffffffffffffff1663a2f77bcc896040518263ffffffff1660e01b815260040161189991906123d1565b600060405180830381865afa1580156118b6573d6000803e3d6000fd5b505050506040513d6000823e3d601f19601f820116820180604052508101906118df91906134b5565b602001511461199257600260009054906101000a900473ffffffffffffffffffffffffffffffffffffffff1673ffffffffffffffffffffffffffffffffffffffff1663a2f77bcc886040518263ffffffff1660e01b815260040161194391906123d1565b600060405180830381865afa158015611960573d6000803e3d6000fd5b505050506040513d6000823e3d601f19601f8201168201806040525081019061198991906134b5565b60200151611a38565b600260009054906101000a900473ffffffffffffffffffffffffffffffffffffffff1673ffffffffffffffffffffffffffffffffffffffff1663a2f77bcc886040518263ffffffff1660e01b81526004016119ed91906123d1565b600060405180830381865afa158015611a0a573d6000803e3d6000fd5b505050506040513d6000823e3d601f19601f82011682018060405250810190611a3391906134b5565b604001515b815260200186815260200142815260200160008152602001611a58612230565b73ffffffffffffffffffffffffffffffffffffffff168152602001600073ffffffffffffffffffffffffffffffffffffffff168152602001600073ffffffffffffffffffffffffffffffffffffffff16815260200160006003811115611ac157611ac06124e9565b5b815250905060038190806001815401808255809150506001900390600052602060002090600b0201600090919091909150600082015181600001556020820151816001015560408201518160020155606082015181600301556080820151816004015560a0820151816005015560c0820151816006015560e082015181600701556101008201518160080160006101000a81548173ffffffffffffffffffffffffffffffffffffffff021916908373ffffffffffffffffffffffffffffffffffffffff1602179055506101208201518160090160006101000a81548173ffffffffffffffffffffffffffffffffffffffff021916908373ffffffffffffffffffffffffffffffffffffffff16021790555061014082015181600a0160006101000a81548173ffffffffffffffffffffffffffffffffffffffff021916908373ffffffffffffffffffffffffffffffffffffffff16021790555061016082015181600a0160146101000a81548160ff02191690836003811115611c4657611c456124e9565b5b0217905550505034600a6000828254611c5f9190612d79565b9250508190555060046000611c72612230565b73ffffffffffffffffffffffffffffffffffffffff1673ffffffffffffffffffffffffffffffffffffffff1681526020019081526020016000208290806001815401808255809150506001900390600052602060002001600090919091909150556005600086815260200190815260200160002082908060018154018082558091505060019003906000526020600020016000909190919091505560066000815480929190611d2090612e0a565b9190505550817f29f8f229585877f20d27efb1882df0ca806636f4c7c78e8f58cdc61934032cf1348686611d52612230565b604051611d62949392919061356a565b60405180910390a25050505050565b6060600460008373ffffffffffffffffffffffffffffffffffffffff1673ffffffffffffffffffffffffffffffffffffffff168152602001908152602001600020805480602002602001604051908101604052809291908181526020018280548015611dfc57602002820191906000526020600020905b815481526020019060010190808311611de8575b50505050509050919050565b600260009054906101000a900473ffffffffffffffffffffffffffffffffffffffff1681565b600b5481565b606060056000838152602001908152602001600020805480602002602001604051908101604052809291908181526020018280548015611e9357602002820191906000526020600020905b815481526020019060010190808311611e7f575b50505050509050919050565b60606003805480602002602001604051908101604052809291908181526020016000905b8282101561208357838290600052602060002090600b02016040518061018001604052908160008201548152602001600182015481526020016002820154815260200160038201548152602001600482015481526020016005820154815260200160068201548152602001600782015481526020016008820160009054906101000a900473ffffffffffffffffffffffffffffffffffffffff1673ffffffffffffffffffffffffffffffffffffffff1673ffffffffffffffffffffffffffffffffffffffff1681526020016009820160009054906101000a900473ffffffffffffffffffffffffffffffffffffffff1673ffffffffffffffffffffffffffffffffffffffff1673ffffffffffffffffffffffffffffffffffffffff168152602001600a820160009054906101000a900473ffffffffffffffffffffffffffffffffffffffff1673ffffffffffffffffffffffffffffffffffffffff1673ffffffffffffffffffffffffffffffffffffffff168152602001600a820160149054906101000a900460ff16600381111561205e5761205d6124e9565b5b60038111156120705761206f6124e9565b5b8152505081526020019060010190611ec3565b50505050905090565b60085481565b600a5481565b600460205281600052604060002081815481106120b457600080fd5b90600052602060002001600091509150505481565b6120d1612186565b600073ffffffffffffffffffffffffffffffffffffffff168173ffffffffffffffffffffffffffffffffffffffff1603612140576040517f08c379a000000000000000000000000000000000000000000000000000000000815260040161213790613621565b60405180910390fd5b6121498161223f565b50565b600061215733611325565b1561216b57601436033560601c905061217a565b61217361217e565b905061217b565b5b90565b600033905090565b61218e612230565b73ffffffffffffffffffffffffffffffffffffffff166121ac611678565b73ffffffffffffffffffffffffffffffffffffffff1614612202576040517f08c379a00000000000000000000000000000000000000000000000000000000081526004016121f99061368d565b60405180910390fd5b565b600081836122129190612cd7565b905092915050565b600081836122289190612d48565b905092915050565b600061223a61214c565b905090565b60008060009054906101000a900473ffffffffffffffffffffffffffffffffffffffff169050816000806101000a81548173ffffffffffffffffffffffffffffffffffffffff021916908373ffffffffffffffffffffffffffffffffffffffff1602179055508173ffffffffffffffffffffffffffffffffffffffff168173ffffffffffffffffffffffffffffffffffffffff167f8be0079c531659141344cd1fd0a4f28419497f9722a3daafe3b4186f6b6457e060405160405180910390a35050565b6040518061018001604052806000815260200160008152602001600081526020016000815260200160008152602001600081526020016000815260200160008152602001600073ffffffffffffffffffffffffffffffffffffffff168152602001600073ffffffffffffffffffffffffffffffffffffffff168152602001600073ffffffffffffffffffffffffffffffffffffffff168152602001600060038111156123b2576123b16124e9565b5b81525090565b6000819050919050565b6123cb816123b8565b82525050565b60006020820190506123e660008301846123c2565b92915050565b6000604051905090565b600080fd5b600080fd5b612409816123b8565b811461241457600080fd5b50565b60008135905061242681612400565b92915050565b60008060408385031215612443576124426123f6565b5b600061245185828601612417565b925050602061246285828601612417565b9150509250929050565b600060208284031215612482576124816123f6565b5b600061249084828501612417565b91505092915050565b6124a2816123b8565b82525050565b600073ffffffffffffffffffffffffffffffffffffffff82169050919050565b60006124d3826124a8565b9050919050565b6124e3816124c8565b82525050565b7f4e487b7100000000000000000000000000000000000000000000000000000000600052602160045260246000fd5b60048110612529576125286124e9565b5b50565b600081905061253a82612518565b919050565b600061254a8261252c565b9050919050565b61255a8161253f565b82525050565b610180820160008201516125776000850182612499565b50602082015161258a6020850182612499565b50604082015161259d6040850182612499565b5060608201516125b06060850182612499565b5060808201516125c36080850182612499565b5060a08201516125d660a0850182612499565b5060c08201516125e960c0850182612499565b5060e08201516125fc60e0850182612499565b506101008201516126116101008501826124da565b506101208201516126266101208501826124da565b5061014082015161263b6101408501826124da565b50610160820151612650610160850182612551565b50505050565b60006101808201905061266c6000830184612560565b92915050565b61267b816124c8565b82525050565b61268a8161253f565b82525050565b6000610180820190506126a6600083018f6123c2565b6126b3602083018e6123c2565b6126c0604083018d6123c2565b6126cd606083018c6123c2565b6126da608083018b6123c2565b6126e760a083018a6123c2565b6126f460c08301896123c2565b61270160e08301886123c2565b61270f610100830187612672565b61271d610120830186612672565b61272b610140830185612672565b612739610160830184612681565b9d9c50505050505050505050505050565b6000819050919050565b600061276f61276a612765846124a8565b61274a565b6124a8565b9050919050565b600061278182612754565b9050919050565b600061279382612776565b9050919050565b6127a381612788565b82525050565b60006020820190506127be600083018461279a565b92915050565b6127cd816124c8565b81146127d857600080fd5b50565b6000813590506127ea816127c4565b92915050565b600060208284031215612806576128056123f6565b5b6000612814848285016127db565b91505092915050565b60008115159050919050565b6128328161281d565b82525050565b600060208201905061284d6000830184612829565b92915050565b60006020820190506128686000830184612672565b92915050565b600080600060608486031215612887576128866123f6565b5b600061289586828701612417565b93505060206128a686828701612417565b92505060406128b786828701612417565b9150509250925092565b600081519050919050565b600082825260208201905092915050565b6000819050602082019050919050565b60006128f98383612499565b60208301905092915050565b6000602082019050919050565b600061291d826128c1565b61292781856128cc565b9350612932836128dd565b8060005b8381101561296357815161294a88826128ed565b975061295583612905565b925050600181019050612936565b5085935050505092915050565b6000602082019050818103600083015261298a8184612912565b905092915050565b600061299d82612776565b9050919050565b6129ad81612992565b82525050565b60006020820190506129c860008301846129a4565b92915050565b600081519050919050565b600082825260208201905092915050565b6000819050602082019050919050565b61018082016000820151612a116000850182612499565b506020820151612a246020850182612499565b506040820151612a376040850182612499565b506060820151612a4a6060850182612499565b506080820151612a5d6080850182612499565b5060a0820151612a7060a0850182612499565b5060c0820151612a8360c0850182612499565b5060e0820151612a9660e0850182612499565b50610100820151612aab6101008501826124da565b50610120820151612ac06101208501826124da565b50610140820151612ad56101408501826124da565b50610160820151612aea610160850182612551565b50505050565b6000612afc83836129fa565b6101808301905092915050565b6000602082019050919050565b6000612b21826129ce565b612b2b81856129d9565b9350612b36836129ea565b8060005b83811015612b67578151612b4e8882612af0565b9750612b5983612b09565b925050600181019050612b3a565b5085935050505092915050565b60006020820190508181036000830152612b8e8184612b16565b905092915050565b60008060408385031215612bad57612bac6123f6565b5b6000612bbb858286016127db565b9250506020612bcc85828601612417565b9150509250929050565b7f4e487b7100000000000000000000000000000000000000000000000000000000600052603260045260246000fd5b600082825260208201905092915050565b7f596f752063616e206f6e6c792066696e69736820616e2061636365707465642060008201527f6265740000000000000000000000000000000000000000000000000000000000602082015250565b6000612c72602383612c05565b9150612c7d82612c16565b604082019050919050565b60006020820190508181036000830152612ca181612c65565b9050919050565b7f4e487b7100000000000000000000000000000000000000000000000000000000600052601160045260246000fd5b6000612ce2826123b8565b9150612ced836123b8565b9250828202612cfb816123b8565b91508282048414831517612d1257612d11612ca8565b5b5092915050565b7f4e487b7100000000000000000000000000000000000000000000000000000000600052601260045260246000fd5b6000612d53826123b8565b9150612d5e836123b8565b925082612d6e57612d6d612d19565b5b828204905092915050565b6000612d84826123b8565b9150612d8f836123b8565b9250828201905080821115612da757612da6612ca8565b5b92915050565b6000612db8826123b8565b9150612dc3836123b8565b9250828203905081811115612ddb57612dda612ca8565b5b92915050565b6000604082019050612df66000830185612672565b612e0360208301846123c2565b9392505050565b6000612e15826123b8565b91507fffffffffffffffffffffffffffffffffffffffffffffffffffffffffffffffff8203612e4757612e46612ca8565b5b600182019050919050565b7f4f6e6c7920746865206265742063726561746f722063616e2063616e63656c2060008201527f7468652062657400000000000000000000000000000000000000000000000000602082015250565b6000612eae602783612c05565b9150612eb982612e52565b604082019050919050565b60006020820190508181036000830152612edd81612ea1565b9050919050565b7f426574206e6f7420617661696c61626c65000000000000000000000000000000600082015250565b6000612f1a601183612c05565b9150612f2582612ee4565b602082019050919050565b60006020820190508181036000830152612f4981612f0d565b9050919050565b7f436f6e74726163742062616c616e6365206973207a65726f2e00000000000000600082015250565b6000612f86601983612c05565b9150612f9182612f50565b602082019050919050565b60006020820190508181036000830152612fb581612f79565b9050919050565b7f446f6573206e6f74206d617463682074686520657870656374656420616d6f7560008201527f6e74000000000000000000000000000000000000000000000000000000000000602082015250565b6000613018602283612c05565b915061302382612fbc565b604082019050919050565b600060208201905081810360008301526130478161300b565b9050919050565b7f43616e6e6f742061636365707420796f7572206f776e20626574000000000000600082015250565b6000613084601a83612c05565b915061308f8261304e565b602082019050919050565b600060208201905081810360008301526130b381613077565b9050919050565b7f426574206973206e6f206c6f6e67657220617661696c61626c65000000000000600082015250565b60006130f0601a83612c05565b91506130fb826130ba565b602082019050919050565b6000602082019050818103600083015261311f816130e3565b9050919050565b600060408201905061313b6000830185612672565b6131486020830184612672565b9392505050565b7f42657420616d6f756e74206d7573742062652067726561746572207468616e2060008201527f3000000000000000000000000000000000000000000000000000000000000000602082015250565b60006131ab602183612c05565b91506131b68261314f565b604082019050919050565b600060208201905081810360008301526131da8161319e565b9050919050565b7f4f646473206d7573742062652067726561746572207468616e20300000000000600082015250565b6000613217601b83612c05565b9150613222826131e1565b602082019050919050565b600060208201905081810360008301526132468161320a565b9050919050565b600080fd5b6000601f19601f8301169050919050565b7f4e487b7100000000000000000000000000000000000000000000000000000000600052604160045260246000fd5b61329b82613252565b810181811067ffffffffffffffff821117156132ba576132b9613263565b5b80604052505050565b60006132cd6123ec565b90506132d98282613292565b919050565b600080fd5b6000815190506132f281612400565b92915050565b6133018161281d565b811461330c57600080fd5b50565b60008151905061331e816132f8565b92915050565b600080fd5b600080fd5b600067ffffffffffffffff82111561334957613348613263565b5b61335282613252565b9050602081019050919050565b60005b8381101561337d578082015181840152602081019050613362565b60008484015250505050565b600061339c6133978461332e565b6132c3565b9050828152602081018484840111156133b8576133b7613329565b5b6133c384828561335f565b509392505050565b600082601f8301126133e0576133df613324565b5b81516133f0848260208601613389565b91505092915050565b600060c0828403121561340f5761340e61324d565b5b61341960c06132c3565b90506000613429848285016132e3565b600083015250602061343d848285016132e3565b6020830152506040613451848285016132e3565b6040830152506060613465848285016132e3565b60608301525060806134798482850161330f565b60808301525060a082015167ffffffffffffffff81111561349d5761349c6132de565b5b6134a9848285016133cb565b60a08301525092915050565b6000602082840312156134cb576134ca6123f6565b5b600082015167ffffffffffffffff8111156134e9576134e86123fb565b5b6134f5848285016133f9565b91505092915050565b7f47616d652068617320616c726561647920737461727465640000000000000000600082015250565b6000613534601883612c05565b915061353f826134fe565b602082019050919050565b6000602082019050818103600083015261356381613527565b9050919050565b600060808201905061357f60008301876123c2565b61358c60208301866123c2565b61359960408301856123c2565b6135a66060830184612672565b95945050505050565b7f4f776e61626c653a206e6577206f776e657220697320746865207a65726f206160008201527f6464726573730000000000000000000000000000000000000000000000000000602082015250565b600061360b602683612c05565b9150613616826135af565b604082019050919050565b6000602082019050818103600083015261363a816135fe565b9050919050565b7f4f776e61626c653a2063616c6c6572206973206e6f7420746865206f776e6572600082015250565b6000613677602083612c05565b915061368282613641565b602082019050919050565b600060208201905081810360008301526136a68161366a565b905091905056fea2646970667358221220d45889aec68c4f80595378df04587c0b9ebeac67bbdc4ebaa530c3026a83012d64736f6c63430008110033",
  "linkReferences": {},
  "deployedLinkReferences": {}
}