{
  "_format": "hh-sol-artifact-1",
  "contractName": "Bets",
  "sourceName": "contracts/Bets.sol",
  "abi": [
    {
      "inputs": [
        {
          "internalType": "address",
          "name": "_profilesAddress",
          "type": "address"
        },
        {
          "internalType": "address",
          "name": "_teamsAddress",
          "type": "address"
        },
        {
          "internalType": "address",
          "name": "_gamesAddress",
          "type": "address"
        }
      ],
      "stateMutability": "nonpayable",
      "type": "constructor"
    },
    {
      "anonymous": false,
      "inputs": [
        {
          "indexed": true,
          "internalType": "uint256",
          "name": "id",
          "type": "uint256"
        },
        {
          "indexed": false,
          "internalType": "address",
          "name": "acceptor",
          "type": "address"
        },
        {
          "indexed": false,
          "internalType": "address",
          "name": "creator",
          "type": "address"
        }
      ],
      "name": "BetAccepted",
      "type": "event"
    },
    {
      "anonymous": false,
      "inputs": [
        {
          "indexed": true,
          "internalType": "uint256",
          "name": "id",
          "type": "uint256"
        }
      ],
      "name": "BetCancelled",
      "type": "event"
    },
    {
      "anonymous": false,
      "inputs": [
        {
          "indexed": true,
          "internalType": "uint256",
          "name": "id",
          "type": "uint256"
        },
        {
          "indexed": false,
          "internalType": "uint256",
          "name": "amount",
          "type": "uint256"
        },
        {
          "indexed": false,
          "internalType": "uint256",
          "name": "_odds",
          "type": "uint256"
        },
        {
          "indexed": false,
          "internalType": "uint256",
          "name": "teamId",
          "type": "uint256"
        },
        {
          "indexed": false,
          "internalType": "address",
          "name": "creator",
          "type": "address"
        }
      ],
      "name": "BetCreated",
      "type": "event"
    },
    {
      "anonymous": false,
      "inputs": [
        {
          "indexed": true,
          "internalType": "uint256",
          "name": "id",
          "type": "uint256"
        },
        {
          "indexed": false,
          "internalType": "uint256",
          "name": "teamId",
          "type": "uint256"
        }
      ],
      "name": "BetFinished",
      "type": "event"
    },
    {
      "anonymous": false,
      "inputs": [
        {
          "indexed": true,
          "internalType": "address",
          "name": "previousOwner",
          "type": "address"
        },
        {
          "indexed": true,
          "internalType": "address",
          "name": "newOwner",
          "type": "address"
        }
      ],
      "name": "OwnershipTransferred",
      "type": "event"
    },
    {
      "inputs": [
        {
          "internalType": "uint256",
          "name": "_id",
          "type": "uint256"
        }
      ],
      "name": "acceptBet",
      "outputs": [],
      "stateMutability": "payable",
      "type": "function"
    },
    {
      "inputs": [
        {
          "internalType": "uint256",
          "name": "",
          "type": "uint256"
        }
      ],
      "name": "bets",
      "outputs": [
        {
          "internalType": "uint256",
          "name": "betId",
          "type": "uint256"
        },
        {
          "internalType": "uint256",
          "name": "amount",
          "type": "uint256"
        },
        {
          "internalType": "uint256",
          "name": "odds",
          "type": "uint256"
        },
        {
          "internalType": "uint256",
          "name": "teamPickedId",
          "type": "uint256"
        },
        {
          "internalType": "uint256",
          "name": "otherTeamPickedId",
          "type": "uint256"
        },
        {
          "internalType": "uint256",
          "name": "gameId",
          "type": "uint256"
        },
        {
          "internalType": "uint256",
          "name": "betCreated",
          "type": "uint256"
        },
        {
          "internalType": "uint256",
          "name": "betAccepted",
          "type": "uint256"
        },
        {
          "internalType": "address",
          "name": "creator",
          "type": "address"
        },
        {
          "internalType": "address",
          "name": "acceptor",
          "type": "address"
        },
        {
          "internalType": "address",
          "name": "winner",
          "type": "address"
        },
        {
          "internalType": "enum Bets.BetState",
          "name": "state",
          "type": "uint8"
        }
      ],
      "stateMutability": "view",
      "type": "function"
    },
    {
      "inputs": [],
      "name": "betsAccepted",
      "outputs": [
        {
          "internalType": "uint256",
          "name": "",
          "type": "uint256"
        }
      ],
      "stateMutability": "view",
      "type": "function"
    },
    {
      "inputs": [],
      "name": "betsCancelled",
      "outputs": [
        {
          "internalType": "uint256",
          "name": "",
          "type": "uint256"
        }
      ],
      "stateMutability": "view",
      "type": "function"
    },
    {
      "inputs": [],
      "name": "betsCreated",
      "outputs": [
        {
          "internalType": "uint256",
          "name": "",
          "type": "uint256"
        }
      ],
      "stateMutability": "view",
      "type": "function"
    },
    {
      "inputs": [],
      "name": "betsFinished",
      "outputs": [
        {
          "internalType": "uint256",
          "name": "",
          "type": "uint256"
        }
      ],
      "stateMutability": "view",
      "type": "function"
    },
    {
      "inputs": [
        {
          "internalType": "uint256",
          "name": "_id",
          "type": "uint256"
        }
      ],
      "name": "cancelBet",
      "outputs": [],
      "stateMutability": "payable",
      "type": "function"
    },
    {
      "inputs": [
        {
          "internalType": "uint256",
          "name": "_gameId",
          "type": "uint256"
        },
        {
          "internalType": "uint256",
          "name": "_odds",
          "type": "uint256"
        },
        {
          "internalType": "uint256",
          "name": "_teamId",
          "type": "uint256"
        }
      ],
      "name": "createBet",
      "outputs": [],
      "stateMutability": "payable",
      "type": "function"
    },
    {
      "inputs": [
        {
          "internalType": "uint256",
          "name": "_id",
          "type": "uint256"
        },
        {
          "internalType": "uint256",
          "name": "_winningTeamId",
          "type": "uint256"
        }
      ],
      "name": "finishBet",
      "outputs": [],
      "stateMutability": "nonpayable",
      "type": "function"
    },
    {
      "inputs": [
        {
          "internalType": "uint256",
          "name": "",
          "type": "uint256"
        },
        {
          "internalType": "uint256",
          "name": "",
          "type": "uint256"
        }
      ],
      "name": "gameBets",
      "outputs": [
        {
          "internalType": "uint256",
          "name": "",
          "type": "uint256"
        }
      ],
      "stateMutability": "view",
      "type": "function"
    },
    {
      "inputs": [],
      "name": "games",
      "outputs": [
        {
          "internalType": "contract Games",
          "name": "",
          "type": "address"
        }
      ],
      "stateMutability": "view",
      "type": "function"
    },
    {
      "inputs": [
        {
          "internalType": "uint256",
          "name": "_id",
          "type": "uint256"
        }
      ],
      "name": "getBet",
      "outputs": [
        {
          "components": [
            {
              "internalType": "uint256",
              "name": "betId",
              "type": "uint256"
            },
            {
              "internalType": "uint256",
              "name": "amount",
              "type": "uint256"
            },
            {
              "internalType": "uint256",
              "name": "odds",
              "type": "uint256"
            },
            {
              "internalType": "uint256",
              "name": "teamPickedId",
              "type": "uint256"
            },
            {
              "internalType": "uint256",
              "name": "otherTeamPickedId",
              "type": "uint256"
            },
            {
              "internalType": "uint256",
              "name": "gameId",
              "type": "uint256"
            },
            {
              "internalType": "uint256",
              "name": "betCreated",
              "type": "uint256"
            },
            {
              "internalType": "uint256",
              "name": "betAccepted",
              "type": "uint256"
            },
            {
              "internalType": "address",
              "name": "creator",
              "type": "address"
            },
            {
              "internalType": "address",
              "name": "acceptor",
              "type": "address"
            },
            {
              "internalType": "address",
              "name": "winner",
              "type": "address"
            },
            {
              "internalType": "enum Bets.BetState",
              "name": "state",
              "type": "uint8"
            }
          ],
          "internalType": "struct Bets.Bet",
          "name": "",
          "type": "tuple"
        }
      ],
      "stateMutability": "view",
      "type": "function"
    },
    {
      "inputs": [],
      "name": "getBets",
      "outputs": [
        {
          "components": [
            {
              "internalType": "uint256",
              "name": "betId",
              "type": "uint256"
            },
            {
              "internalType": "uint256",
              "name": "amount",
              "type": "uint256"
            },
            {
              "internalType": "uint256",
              "name": "odds",
              "type": "uint256"
            },
            {
              "internalType": "uint256",
              "name": "teamPickedId",
              "type": "uint256"
            },
            {
              "internalType": "uint256",
              "name": "otherTeamPickedId",
              "type": "uint256"
            },
            {
              "internalType": "uint256",
              "name": "gameId",
              "type": "uint256"
            },
            {
              "internalType": "uint256",
              "name": "betCreated",
              "type": "uint256"
            },
            {
              "internalType": "uint256",
              "name": "betAccepted",
              "type": "uint256"
            },
            {
              "internalType": "address",
              "name": "creator",
              "type": "address"
            },
            {
              "internalType": "address",
              "name": "acceptor",
              "type": "address"
            },
            {
              "internalType": "address",
              "name": "winner",
              "type": "address"
            },
            {
              "internalType": "enum Bets.BetState",
              "name": "state",
              "type": "uint8"
            }
          ],
          "internalType": "struct Bets.Bet[]",
          "name": "",
          "type": "tuple[]"
        }
      ],
      "stateMutability": "view",
      "type": "function"
    },
    {
      "inputs": [
        {
          "internalType": "uint256",
          "name": "_gameId",
          "type": "uint256"
        }
      ],
      "name": "getGameBets",
      "outputs": [
        {
          "internalType": "uint256[]",
          "name": "",
          "type": "uint256[]"
        }
      ],
      "stateMutability": "view",
      "type": "function"
    },
    {
      "inputs": [
        {
          "internalType": "address",
          "name": "_wallet",
          "type": "address"
        }
      ],
      "name": "getWalletBets",
      "outputs": [
        {
          "internalType": "uint256[]",
          "name": "",
          "type": "uint256[]"
        }
      ],
      "stateMutability": "view",
      "type": "function"
    },
    {
      "inputs": [
        {
          "internalType": "address",
          "name": "_wallet",
          "type": "address"
        },
        {
          "internalType": "uint256",
          "name": "_gameId",
          "type": "uint256"
        }
      ],
      "name": "getWalletBetsForGame",
      "outputs": [
        {
          "internalType": "uint256[]",
          "name": "",
          "type": "uint256[]"
        }
      ],
      "stateMutability": "view",
      "type": "function"
    },
    {
      "inputs": [
        {
          "internalType": "address",
          "name": "forwarder",
          "type": "address"
        }
      ],
      "name": "isTrustedForwarder",
      "outputs": [
        {
          "internalType": "bool",
          "name": "",
          "type": "bool"
        }
      ],
      "stateMutability": "view",
      "type": "function"
    },
    {
      "inputs": [],
      "name": "owner",
      "outputs": [
        {
          "internalType": "address",
          "name": "",
          "type": "address"
        }
      ],
      "stateMutability": "view",
      "type": "function"
    },
    {
      "inputs": [],
      "name": "profiles",
      "outputs": [
        {
          "internalType": "contract Profiles",
          "name": "",
          "type": "address"
        }
      ],
      "stateMutability": "view",
      "type": "function"
    },
    {
      "inputs": [],
      "name": "renounceOwnership",
      "outputs": [],
      "stateMutability": "nonpayable",
      "type": "function"
    },
    {
      "inputs": [],
      "name": "teams",
      "outputs": [
        {
          "internalType": "contract Teams",
          "name": "",
          "type": "address"
        }
      ],
      "stateMutability": "view",
      "type": "function"
    },
    {
      "inputs": [],
      "name": "totalBetMoney",
      "outputs": [
        {
          "internalType": "uint256",
          "name": "",
          "type": "uint256"
        }
      ],
      "stateMutability": "view",
      "type": "function"
    },
    {
      "inputs": [],
      "name": "totalRev",
      "outputs": [
        {
          "internalType": "uint256",
          "name": "",
          "type": "uint256"
        }
      ],
      "stateMutability": "view",
      "type": "function"
    },
    {
      "inputs": [
        {
          "internalType": "address",
          "name": "newOwner",
          "type": "address"
        }
      ],
      "name": "transferOwnership",
      "outputs": [],
      "stateMutability": "nonpayable",
      "type": "function"
    },
    {
      "inputs": [
        {
          "internalType": "address",
          "name": "",
          "type": "address"
        },
        {
          "internalType": "uint256",
          "name": "",
          "type": "uint256"
        }
      ],
      "name": "walletBets",
      "outputs": [
        {
          "internalType": "uint256",
          "name": "",
          "type": "uint256"
        }
      ],
      "stateMutability": "view",
      "type": "function"
    },
    {
      "inputs": [],
      "name": "withdraw",
      "outputs": [],
      "stateMutability": "nonpayable",
      "type": "function"
    }
  ],
  "bytecode": "0x60a06040526000600755600060085560006009556000600a556000600b556000600c553480156200002f57600080fd5b5060405162003c8c38038062003c8c833981810160405281019062000055919062000361565b73bf175fcc7086b4f9bd59d5eae8ea67b8f940de0d8073ffffffffffffffffffffffffffffffffffffffff1660808173ffffffffffffffffffffffffffffffffffffffff168152505050620000bf620000b36200018b60201b60201c565b620001a760201b60201c565b82600160006101000a81548173ffffffffffffffffffffffffffffffffffffffff021916908373ffffffffffffffffffffffffffffffffffffffff16021790555081600260006101000a81548173ffffffffffffffffffffffffffffffffffffffff021916908373ffffffffffffffffffffffffffffffffffffffff16021790555080600360006101000a81548173ffffffffffffffffffffffffffffffffffffffff021916908373ffffffffffffffffffffffffffffffffffffffff160217905550505050620003bd565b6000620001a26200026b60201b6200240b1760201c565b905090565b60008060009054906101000a900473ffffffffffffffffffffffffffffffffffffffff169050816000806101000a81548173ffffffffffffffffffffffffffffffffffffffff021916908373ffffffffffffffffffffffffffffffffffffffff1602179055508173ffffffffffffffffffffffffffffffffffffffff168173ffffffffffffffffffffffffffffffffffffffff167f8be0079c531659141344cd1fd0a4f28419497f9722a3daafe3b4186f6b6457e060405160405180910390a35050565b60006200027e33620002b560201b60201c565b156200029457601436033560601c9050620002b1565b620002a9620002ef60201b6200243d1760201c565b9050620002b2565b5b90565b600060805173ffffffffffffffffffffffffffffffffffffffff168273ffffffffffffffffffffffffffffffffffffffff16149050919050565b600033905090565b600080fd5b600073ffffffffffffffffffffffffffffffffffffffff82169050919050565b60006200032982620002fc565b9050919050565b6200033b816200031c565b81146200034757600080fd5b50565b6000815190506200035b8162000330565b92915050565b6000806000606084860312156200037d576200037c620002f7565b5b60006200038d868287016200034a565b9350506020620003a0868287016200034a565b9250506040620003b3868287016200034a565b9150509250925092565b6080516138b3620003d960003960006115fc01526138b36000f3fe6080604052600436106101815760003560e01c80636edcf7c5116100d15780639590616c1161008a578063b4cdfdf011610064578063b4cdfdf01461056a578063c8e4051514610595578063eb4f0ab1146105c0578063f2fde38b146105fd57610181565b80639590616c146104d757806399d652ac14610502578063a6afd5fd1461053f57610181565b80636edcf7c5146103e6578063715018a6146104115780638da5cb5b146104285780639062ce7d14610453578063922ec8051461046f578063955a015b146104ac57610181565b8063230fba481161013e5780633ccfd60b116101185780633ccfd60b1461034b578063495057cf14610362578063572b6c051461038d5780636c0c27e1146103ca57610181565b8063230fba48146102c757806328ad30ed146102f2578063357401f51461032f57610181565b8063019ecd021461018657806301ff9ce3146101c357806303de3ad7146101ee57806304f29ae714610219578063061e494f1461024257806322af00fa1461027f575b600080fd5b34801561019257600080fd5b506101ad60048036038101906101a8919061271a565b610626565b6040516101ba9190612818565b60405180910390f35b3480156101cf57600080fd5b506101d8610835565b6040516101e59190612849565b60405180910390f35b3480156101fa57600080fd5b5061020361083b565b60405161021091906128c3565b60405180910390f35b34801561022557600080fd5b50610240600480360381019061023b91906128de565b610861565b005b34801561024e57600080fd5b506102696004803603810190610264919061291e565b611037565b6040516102769190612ac7565b60405180910390f35b34801561028b57600080fd5b506102a660048036038101906102a1919061291e565b611201565b6040516102be9c9b9a99989796959493929190612b01565b60405180910390f35b3480156102d357600080fd5b506102dc6112de565b6040516102e99190612849565b60405180910390f35b3480156102fe57600080fd5b50610319600480360381019061031491906128de565b6112e4565b6040516103269190612849565b60405180910390f35b6103496004803603810190610344919061291e565b611315565b005b34801561035757600080fd5b50610360611531565b005b34801561036e57600080fd5b506103776115d2565b6040516103849190612bdc565b60405180910390f35b34801561039957600080fd5b506103b460048036038101906103af9190612bf7565b6115f8565b6040516103c19190612c3f565b60405180910390f35b6103e460048036038101906103df919061291e565b611650565b005b3480156103f257600080fd5b506103fb611931565b6040516104089190612849565b60405180910390f35b34801561041d57600080fd5b50610426611937565b005b34801561043457600080fd5b5061043d61194b565b60405161044a9190612c5a565b60405180910390f35b61046d60048036038101906104689190612c75565b611974565b005b34801561047b57600080fd5b5061049660048036038101906104919190612bf7565b612030565b6040516104a39190612818565b60405180910390f35b3480156104b857600080fd5b506104c16120c7565b6040516104ce9190612ce9565b60405180910390f35b3480156104e357600080fd5b506104ec6120ed565b6040516104f99190612849565b60405180910390f35b34801561050e57600080fd5b506105296004803603810190610524919061291e565b6120f3565b6040516105369190612818565b60405180910390f35b34801561054b57600080fd5b5061055461215e565b6040516105619190612eaa565b60405180910390f35b34801561057657600080fd5b5061057f61234b565b60405161058c9190612849565b60405180910390f35b3480156105a157600080fd5b506105aa612351565b6040516105b79190612849565b60405180910390f35b3480156105cc57600080fd5b506105e760048036038101906105e2919061271a565b612357565b6040516105f49190612849565b60405180910390f35b34801561060957600080fd5b50610624600480360381019061061f9190612bf7565b612388565b005b60606000600560008573ffffffffffffffffffffffffffffffffffffffff1673ffffffffffffffffffffffffffffffffffffffff1681526020019081526020016000208054905067ffffffffffffffff81111561068657610685612ecc565b5b6040519080825280602002602001820160405280156106b45781602001602082028036833780820191505090505b5090506000805b600560008773ffffffffffffffffffffffffffffffffffffffff1673ffffffffffffffffffffffffffffffffffffffff1681526020019081526020016000208054905081101561082957846004600560008973ffffffffffffffffffffffffffffffffffffffff1673ffffffffffffffffffffffffffffffffffffffff168152602001908152602001600020838154811061075957610758612efb565b5b90600052602060002001548154811061077557610774612efb565b5b90600052602060002090600b0201600501540361081657600560008773ffffffffffffffffffffffffffffffffffffffff1673ffffffffffffffffffffffffffffffffffffffff16815260200190815260200160002081815481106107dd576107dc612efb565b5b90600052602060002001548383815181106107fb576107fa612efb565b5b602002602001018181525050818061081290612f59565b9250505b808061082190612f59565b9150506106bb565b50819250505092915050565b600a5481565b600260009054906101000a900473ffffffffffffffffffffffffffffffffffffffff1681565b610869612445565b60006004838154811061087f5761087e612efb565b5b90600052602060002090600b02019050600160038111156108a3576108a261295a565b5b81600a0160149054906101000a900460ff1660038111156108c7576108c661295a565b5b14610907576040517f08c379a00000000000000000000000000000000000000000000000000000000081526004016108fe90613024565b60405180910390fd5b600281600a0160146101000a81548160ff0219169083600381111561092f5761092e61295a565b5b02179055506000662386f26fc100008260020154606484600101546109549190613044565b61095e91906130b5565b6109689190613044565b9050600081836001015461097c91906130e6565b905060006109a760646109996005856124c390919063ffffffff16565b6124d990919063ffffffff16565b905080600c60008282546109bb91906130e6565b92505081905550600081836109d0919061311a565b905084600301548603610c29578460080160009054906101000a900473ffffffffffffffffffffffffffffffffffffffff1673ffffffffffffffffffffffffffffffffffffffff166108fc829081150290604051600060405180830381858888f19350505050158015610a47573d6000803e3d6000fd5b50600160009054906101000a900473ffffffffffffffffffffffffffffffffffffffff1673ffffffffffffffffffffffffffffffffffffffff1663f42865698660080160009054906101000a900473ffffffffffffffffffffffffffffffffffffffff16848860010154610abb919061311a565b6040518363ffffffff1660e01b8152600401610ad892919061314e565b600060405180830381600087803b158015610af257600080fd5b505af1158015610b06573d6000803e3d6000fd5b50505050600160009054906101000a900473ffffffffffffffffffffffffffffffffffffffff1673ffffffffffffffffffffffffffffffffffffffff16630a1cb2728660090160009054906101000a900473ffffffffffffffffffffffffffffffffffffffff16866040518363ffffffff1660e01b8152600401610b8b92919061314e565b600060405180830381600087803b158015610ba557600080fd5b505af1158015610bb9573d6000803e3d6000fd5b505050508460080160009054906101000a900473ffffffffffffffffffffffffffffffffffffffff1685600a0160006101000a81548173ffffffffffffffffffffffffffffffffffffffff021916908373ffffffffffffffffffffffffffffffffffffffff160217905550610e7c565b8460090160009054906101000a900473ffffffffffffffffffffffffffffffffffffffff1673ffffffffffffffffffffffffffffffffffffffff166108fc829081150290604051600060405180830381858888f19350505050158015610c93573d6000803e3d6000fd5b50600160009054906101000a900473ffffffffffffffffffffffffffffffffffffffff1673ffffffffffffffffffffffffffffffffffffffff1663f42865698660090160009054906101000a900473ffffffffffffffffffffffffffffffffffffffff168487610d03919061311a565b6040518363ffffffff1660e01b8152600401610d2092919061314e565b600060405180830381600087803b158015610d3a57600080fd5b505af1158015610d4e573d6000803e3d6000fd5b50505050600160009054906101000a900473ffffffffffffffffffffffffffffffffffffffff1673ffffffffffffffffffffffffffffffffffffffff16630a1cb2728660080160009054906101000a900473ffffffffffffffffffffffffffffffffffffffff16848860010154610dc5919061311a565b6040518363ffffffff1660e01b8152600401610de292919061314e565b600060405180830381600087803b158015610dfc57600080fd5b505af1158015610e10573d6000803e3d6000fd5b505050508460090160009054906101000a900473ffffffffffffffffffffffffffffffffffffffff1685600a0160006101000a81548173ffffffffffffffffffffffffffffffffffffffff021916908373ffffffffffffffffffffffffffffffffffffffff1602179055505b600160009054906101000a900473ffffffffffffffffffffffffffffffffffffffff1673ffffffffffffffffffffffffffffffffffffffff16632876674f8660080160009054906101000a900473ffffffffffffffffffffffffffffffffffffffff166040518263ffffffff1660e01b8152600401610efb9190612c5a565b600060405180830381600087803b158015610f1557600080fd5b505af1158015610f29573d6000803e3d6000fd5b50505050600160009054906101000a900473ffffffffffffffffffffffffffffffffffffffff1673ffffffffffffffffffffffffffffffffffffffff16632876674f8660090160009054906101000a900473ffffffffffffffffffffffffffffffffffffffff166040518263ffffffff1660e01b8152600401610fac9190612c5a565b600060405180830381600087803b158015610fc657600080fd5b505af1158015610fda573d6000803e3d6000fd5b5050505060096000815480929190610ff190612f59565b9190505550867f83be4a35029cdd16d4a0947d817c0b35316867415898eb8c2fab99ddd2e098b6876040516110269190612849565b60405180910390a250505050505050565b61103f6125c2565b6004828154811061105357611052612efb565b5b90600052602060002090600b02016040518061018001604052908160008201548152602001600182015481526020016002820154815260200160038201548152602001600482015481526020016005820154815260200160068201548152602001600782015481526020016008820160009054906101000a900473ffffffffffffffffffffffffffffffffffffffff1673ffffffffffffffffffffffffffffffffffffffff1673ffffffffffffffffffffffffffffffffffffffff1681526020016009820160009054906101000a900473ffffffffffffffffffffffffffffffffffffffff1673ffffffffffffffffffffffffffffffffffffffff1673ffffffffffffffffffffffffffffffffffffffff168152602001600a820160009054906101000a900473ffffffffffffffffffffffffffffffffffffffff1673ffffffffffffffffffffffffffffffffffffffff1673ffffffffffffffffffffffffffffffffffffffff168152602001600a820160149054906101000a900460ff1660038111156111e4576111e361295a565b5b60038111156111f6576111f561295a565b5b815250509050919050565b6004818154811061121157600080fd5b90600052602060002090600b02016000915090508060000154908060010154908060020154908060030154908060040154908060050154908060060154908060070154908060080160009054906101000a900473ffffffffffffffffffffffffffffffffffffffff16908060090160009054906101000a900473ffffffffffffffffffffffffffffffffffffffff169080600a0160009054906101000a900473ffffffffffffffffffffffffffffffffffffffff169080600a0160149054906101000a900460ff1690508c565b60085481565b6006602052816000526040600020818154811061130057600080fd5b90600052602060002001600091509150505481565b60006004828154811061132b5761132a612efb565b5b90600052602060002090600b020190508060080160009054906101000a900473ffffffffffffffffffffffffffffffffffffffff1673ffffffffffffffffffffffffffffffffffffffff1661137e6124ef565b73ffffffffffffffffffffffffffffffffffffffff16146113d4576040517f08c379a00000000000000000000000000000000000000000000000000000000081526004016113cb906131e9565b60405180910390fd5b600060038111156113e8576113e761295a565b5b81600a0160149054906101000a900460ff16600381111561140c5761140b61295a565b5b1461144c576040517f08c379a000000000000000000000000000000000000000000000000000000000815260040161144390613255565b60405180910390fd5b600381600a0160146101000a81548160ff021916908360038111156114745761147361295a565b5b02179055508060080160009054906101000a900473ffffffffffffffffffffffffffffffffffffffff1673ffffffffffffffffffffffffffffffffffffffff166108fc82600101549081150290604051600060405180830381858888f193505050501580156114e7573d6000803e3d6000fd5b50600a60008154809291906114fb90612f59565b9190505550817fe3906e8d1e2167ef706b023e6e83af697db5cd38f233c71bf5021b26b316c3a260405160405180910390a25050565b611539612445565b600047905060008111611581576040517f08c379a0000000000000000000000000000000000000000000000000000000008152600401611578906132c1565b60405180910390fd5b61158961194b565b73ffffffffffffffffffffffffffffffffffffffff166108fc829081150290604051600060405180830381858888f193505050501580156115ce573d6000803e3d6000fd5b5050565b600160009054906101000a900473ffffffffffffffffffffffffffffffffffffffff1681565b60007f000000000000000000000000000000000000000000000000000000000000000073ffffffffffffffffffffffffffffffffffffffff168273ffffffffffffffffffffffffffffffffffffffff16149050919050565b60006004828154811061166657611665612efb565b5b90600052602060002090600b02019050662386f26fc100008160020154606483600101546116949190613044565b61169e91906130b5565b6116a89190613044565b34146116e9576040517f08c379a00000000000000000000000000000000000000000000000000000000081526004016116e090613353565b60405180910390fd5b8060080160009054906101000a900473ffffffffffffffffffffffffffffffffffffffff1673ffffffffffffffffffffffffffffffffffffffff1661172c6124ef565b73ffffffffffffffffffffffffffffffffffffffff1603611782576040517f08c379a0000000000000000000000000000000000000000000000000000000008152600401611779906133bf565b60405180910390fd5b600060038111156117965761179561295a565b5b81600a0160149054906101000a900460ff1660038111156117ba576117b961295a565b5b146117fa576040517f08c379a00000000000000000000000000000000000000000000000000000000081526004016117f19061342b565b60405180910390fd5b6118026124ef565b8160090160006101000a81548173ffffffffffffffffffffffffffffffffffffffff021916908373ffffffffffffffffffffffffffffffffffffffff160217905550600181600a0160146101000a81548160ff0219169083600381111561186c5761186b61295a565b5b021790555042816007018190555034600b600082825461188c91906130e6565b92505081905550600860008154809291906118a690612f59565b9190505550817f971b8d88bff3d04bf6a570fd87dd92a7711e4f569b37582a91798876ea0ea1e98260080160009054906101000a900473ffffffffffffffffffffffffffffffffffffffff168360090160009054906101000a900473ffffffffffffffffffffffffffffffffffffffff1660405161192592919061344b565b60405180910390a25050565b60075481565b61193f612445565b61194960006124fe565b565b60008060009054906101000a900473ffffffffffffffffffffffffffffffffffffffff16905090565b600034116119b7576040517f08c379a00000000000000000000000000000000000000000000000000000000081526004016119ae906134e6565b60405180910390fd5b600082116119fa576040517f08c379a00000000000000000000000000000000000000000000000000000000081526004016119f190613552565b60405180910390fd5b42600360009054906101000a900473ffffffffffffffffffffffffffffffffffffffff1673ffffffffffffffffffffffffffffffffffffffff1663a2f77bcc856040518263ffffffff1660e01b8152600401611a569190612849565b60a060405180830381865afa158015611a73573d6000803e3d6000fd5b505050506040513d601f19601f82011682018060405250810190611a9791906136a1565b6060015111611adb576040517f08c379a0000000000000000000000000000000000000000000000000000000008152600401611ad29061371a565b60405180910390fd5b60006004805490509050600060405180610180016040528083815260200134815260200185815260200184815260200184600360009054906101000a900473ffffffffffffffffffffffffffffffffffffffff1673ffffffffffffffffffffffffffffffffffffffff1663a2f77bcc896040518263ffffffff1660e01b8152600401611b679190612849565b60a060405180830381865afa158015611b84573d6000803e3d6000fd5b505050506040513d601f19601f82011682018060405250810190611ba891906136a1565b6020015114611c5657600360009054906101000a900473ffffffffffffffffffffffffffffffffffffffff1673ffffffffffffffffffffffffffffffffffffffff1663a2f77bcc886040518263ffffffff1660e01b8152600401611c0c9190612849565b60a060405180830381865afa158015611c29573d6000803e3d6000fd5b505050506040513d601f19601f82011682018060405250810190611c4d91906136a1565b60200151611cf7565b600360009054906101000a900473ffffffffffffffffffffffffffffffffffffffff1673ffffffffffffffffffffffffffffffffffffffff1663a2f77bcc886040518263ffffffff1660e01b8152600401611cb19190612849565b60a060405180830381865afa158015611cce573d6000803e3d6000fd5b505050506040513d601f19601f82011682018060405250810190611cf291906136a1565b604001515b815260200186815260200142815260200160008152602001611d176124ef565b73ffffffffffffffffffffffffffffffffffffffff168152602001600073ffffffffffffffffffffffffffffffffffffffff168152602001600073ffffffffffffffffffffffffffffffffffffffff16815260200160006003811115611d8057611d7f61295a565b5b815250905060048190806001815401808255809150506001900390600052602060002090600b0201600090919091909150600082015181600001556020820151816001015560408201518160020155606082015181600301556080820151816004015560a0820151816005015560c0820151816006015560e082015181600701556101008201518160080160006101000a81548173ffffffffffffffffffffffffffffffffffffffff021916908373ffffffffffffffffffffffffffffffffffffffff1602179055506101208201518160090160006101000a81548173ffffffffffffffffffffffffffffffffffffffff021916908373ffffffffffffffffffffffffffffffffffffffff16021790555061014082015181600a0160006101000a81548173ffffffffffffffffffffffffffffffffffffffff021916908373ffffffffffffffffffffffffffffffffffffffff16021790555061016082015181600a0160146101000a81548160ff02191690836003811115611f0557611f0461295a565b5b0217905550505034600b6000828254611f1e91906130e6565b9250508190555060056000611f316124ef565b73ffffffffffffffffffffffffffffffffffffffff1673ffffffffffffffffffffffffffffffffffffffff1681526020019081526020016000208290806001815401808255809150506001900390600052602060002001600090919091909150556006600086815260200190815260200160002082908060018154018082558091505060019003906000526020600020016000909190919091505560076000815480929190611fdf90612f59565b9190505550817f29f8f229585877f20d27efb1882df0ca806636f4c7c78e8f58cdc61934032cf13486866120116124ef565b604051612021949392919061373a565b60405180910390a25050505050565b6060600560008373ffffffffffffffffffffffffffffffffffffffff1673ffffffffffffffffffffffffffffffffffffffff1681526020019081526020016000208054806020026020016040519081016040528092919081815260200182805480156120bb57602002820191906000526020600020905b8154815260200190600101908083116120a7575b50505050509050919050565b600360009054906101000a900473ffffffffffffffffffffffffffffffffffffffff1681565b600c5481565b60606006600083815260200190815260200160002080548060200260200160405190810160405280929190818152602001828054801561215257602002820191906000526020600020905b81548152602001906001019080831161213e575b50505050509050919050565b60606004805480602002602001604051908101604052809291908181526020016000905b8282101561234257838290600052602060002090600b02016040518061018001604052908160008201548152602001600182015481526020016002820154815260200160038201548152602001600482015481526020016005820154815260200160068201548152602001600782015481526020016008820160009054906101000a900473ffffffffffffffffffffffffffffffffffffffff1673ffffffffffffffffffffffffffffffffffffffff1673ffffffffffffffffffffffffffffffffffffffff1681526020016009820160009054906101000a900473ffffffffffffffffffffffffffffffffffffffff1673ffffffffffffffffffffffffffffffffffffffff1673ffffffffffffffffffffffffffffffffffffffff168152602001600a820160009054906101000a900473ffffffffffffffffffffffffffffffffffffffff1673ffffffffffffffffffffffffffffffffffffffff1673ffffffffffffffffffffffffffffffffffffffff168152602001600a820160149054906101000a900460ff16600381111561231d5761231c61295a565b5b600381111561232f5761232e61295a565b5b8152505081526020019060010190612182565b50505050905090565b60095481565b600b5481565b6005602052816000526040600020818154811061237357600080fd5b90600052602060002001600091509150505481565b612390612445565b600073ffffffffffffffffffffffffffffffffffffffff168173ffffffffffffffffffffffffffffffffffffffff16036123ff576040517f08c379a00000000000000000000000000000000000000000000000000000000081526004016123f6906137f1565b60405180910390fd5b612408816124fe565b50565b6000612416336115f8565b1561242a57601436033560601c9050612439565b61243261243d565b905061243a565b5b90565b600033905090565b61244d6124ef565b73ffffffffffffffffffffffffffffffffffffffff1661246b61194b565b73ffffffffffffffffffffffffffffffffffffffff16146124c1576040517f08c379a00000000000000000000000000000000000000000000000000000000081526004016124b89061385d565b60405180910390fd5b565b600081836124d19190613044565b905092915050565b600081836124e791906130b5565b905092915050565b60006124f961240b565b905090565b60008060009054906101000a900473ffffffffffffffffffffffffffffffffffffffff169050816000806101000a81548173ffffffffffffffffffffffffffffffffffffffff021916908373ffffffffffffffffffffffffffffffffffffffff1602179055508173ffffffffffffffffffffffffffffffffffffffff168173ffffffffffffffffffffffffffffffffffffffff167f8be0079c531659141344cd1fd0a4f28419497f9722a3daafe3b4186f6b6457e060405160405180910390a35050565b6040518061018001604052806000815260200160008152602001600081526020016000815260200160008152602001600081526020016000815260200160008152602001600073ffffffffffffffffffffffffffffffffffffffff168152602001600073ffffffffffffffffffffffffffffffffffffffff168152602001600073ffffffffffffffffffffffffffffffffffffffff168152602001600060038111156126715761267061295a565b5b81525090565b6000604051905090565b600080fd5b600073ffffffffffffffffffffffffffffffffffffffff82169050919050565b60006126b182612686565b9050919050565b6126c1816126a6565b81146126cc57600080fd5b50565b6000813590506126de816126b8565b92915050565b6000819050919050565b6126f7816126e4565b811461270257600080fd5b50565b600081359050612714816126ee565b92915050565b6000806040838503121561273157612730612681565b5b600061273f858286016126cf565b925050602061275085828601612705565b9150509250929050565b600081519050919050565b600082825260208201905092915050565b6000819050602082019050919050565b61278f816126e4565b82525050565b60006127a18383612786565b60208301905092915050565b6000602082019050919050565b60006127c58261275a565b6127cf8185612765565b93506127da83612776565b8060005b8381101561280b5781516127f28882612795565b97506127fd836127ad565b9250506001810190506127de565b5085935050505092915050565b6000602082019050818103600083015261283281846127ba565b905092915050565b612843816126e4565b82525050565b600060208201905061285e600083018461283a565b92915050565b6000819050919050565b600061288961288461287f84612686565b612864565b612686565b9050919050565b600061289b8261286e565b9050919050565b60006128ad82612890565b9050919050565b6128bd816128a2565b82525050565b60006020820190506128d860008301846128b4565b92915050565b600080604083850312156128f5576128f4612681565b5b600061290385828601612705565b925050602061291485828601612705565b9150509250929050565b60006020828403121561293457612933612681565b5b600061294284828501612705565b91505092915050565b612954816126a6565b82525050565b7f4e487b7100000000000000000000000000000000000000000000000000000000600052602160045260246000fd5b6004811061299a5761299961295a565b5b50565b60008190506129ab82612989565b919050565b60006129bb8261299d565b9050919050565b6129cb816129b0565b82525050565b610180820160008201516129e86000850182612786565b5060208201516129fb6020850182612786565b506040820151612a0e6040850182612786565b506060820151612a216060850182612786565b506080820151612a346080850182612786565b5060a0820151612a4760a0850182612786565b5060c0820151612a5a60c0850182612786565b5060e0820151612a6d60e0850182612786565b50610100820151612a8261010085018261294b565b50610120820151612a9761012085018261294b565b50610140820151612aac61014085018261294b565b50610160820151612ac16101608501826129c2565b50505050565b600061018082019050612add60008301846129d1565b92915050565b612aec816126a6565b82525050565b612afb816129b0565b82525050565b600061018082019050612b17600083018f61283a565b612b24602083018e61283a565b612b31604083018d61283a565b612b3e606083018c61283a565b612b4b608083018b61283a565b612b5860a083018a61283a565b612b6560c083018961283a565b612b7260e083018861283a565b612b80610100830187612ae3565b612b8e610120830186612ae3565b612b9c610140830185612ae3565b612baa610160830184612af2565b9d9c50505050505050505050505050565b6000612bc682612890565b9050919050565b612bd681612bbb565b82525050565b6000602082019050612bf16000830184612bcd565b92915050565b600060208284031215612c0d57612c0c612681565b5b6000612c1b848285016126cf565b91505092915050565b60008115159050919050565b612c3981612c24565b82525050565b6000602082019050612c546000830184612c30565b92915050565b6000602082019050612c6f6000830184612ae3565b92915050565b600080600060608486031215612c8e57612c8d612681565b5b6000612c9c86828701612705565b9350506020612cad86828701612705565b9250506040612cbe86828701612705565b9150509250925092565b6000612cd382612890565b9050919050565b612ce381612cc8565b82525050565b6000602082019050612cfe6000830184612cda565b92915050565b600081519050919050565b600082825260208201905092915050565b6000819050602082019050919050565b61018082016000820151612d476000850182612786565b506020820151612d5a6020850182612786565b506040820151612d6d6040850182612786565b506060820151612d806060850182612786565b506080820151612d936080850182612786565b5060a0820151612da660a0850182612786565b5060c0820151612db960c0850182612786565b5060e0820151612dcc60e0850182612786565b50610100820151612de161010085018261294b565b50610120820151612df661012085018261294b565b50610140820151612e0b61014085018261294b565b50610160820151612e206101608501826129c2565b50505050565b6000612e328383612d30565b6101808301905092915050565b6000602082019050919050565b6000612e5782612d04565b612e618185612d0f565b9350612e6c83612d20565b8060005b83811015612e9d578151612e848882612e26565b9750612e8f83612e3f565b925050600181019050612e70565b5085935050505092915050565b60006020820190508181036000830152612ec48184612e4c565b905092915050565b7f4e487b7100000000000000000000000000000000000000000000000000000000600052604160045260246000fd5b7f4e487b7100000000000000000000000000000000000000000000000000000000600052603260045260246000fd5b7f4e487b7100000000000000000000000000000000000000000000000000000000600052601160045260246000fd5b6000612f64826126e4565b91507fffffffffffffffffffffffffffffffffffffffffffffffffffffffffffffffff8203612f9657612f95612f2a565b5b600182019050919050565b600082825260208201905092915050565b7f596f752063616e206f6e6c792066696e69736820616e2061636365707465642060008201527f6265740000000000000000000000000000000000000000000000000000000000602082015250565b600061300e602383612fa1565b915061301982612fb2565b604082019050919050565b6000602082019050818103600083015261303d81613001565b9050919050565b600061304f826126e4565b915061305a836126e4565b9250828202613068816126e4565b9150828204841483151761307f5761307e612f2a565b5b5092915050565b7f4e487b7100000000000000000000000000000000000000000000000000000000600052601260045260246000fd5b60006130c0826126e4565b91506130cb836126e4565b9250826130db576130da613086565b5b828204905092915050565b60006130f1826126e4565b91506130fc836126e4565b925082820190508082111561311457613113612f2a565b5b92915050565b6000613125826126e4565b9150613130836126e4565b925082820390508181111561314857613147612f2a565b5b92915050565b60006040820190506131636000830185612ae3565b613170602083018461283a565b9392505050565b7f4f6e6c7920746865206265742063726561746f722063616e2063616e63656c2060008201527f7468652062657400000000000000000000000000000000000000000000000000602082015250565b60006131d3602783612fa1565b91506131de82613177565b604082019050919050565b60006020820190508181036000830152613202816131c6565b9050919050565b7f426574206e6f7420617661696c61626c65000000000000000000000000000000600082015250565b600061323f601183612fa1565b915061324a82613209565b602082019050919050565b6000602082019050818103600083015261326e81613232565b9050919050565b7f436f6e74726163742062616c616e6365206973207a65726f2e00000000000000600082015250565b60006132ab601983612fa1565b91506132b682613275565b602082019050919050565b600060208201905081810360008301526132da8161329e565b9050919050565b7f446f6573206e6f74206d617463682074686520657870656374656420616d6f7560008201527f6e74000000000000000000000000000000000000000000000000000000000000602082015250565b600061333d602283612fa1565b9150613348826132e1565b604082019050919050565b6000602082019050818103600083015261336c81613330565b9050919050565b7f43616e6e6f742061636365707420796f7572206f776e20626574000000000000600082015250565b60006133a9601a83612fa1565b91506133b482613373565b602082019050919050565b600060208201905081810360008301526133d88161339c565b9050919050565b7f426574206973206e6f206c6f6e67657220617661696c61626c65000000000000600082015250565b6000613415601a83612fa1565b9150613420826133df565b602082019050919050565b6000602082019050818103600083015261344481613408565b9050919050565b60006040820190506134606000830185612ae3565b61346d6020830184612ae3565b9392505050565b7f42657420616d6f756e74206d7573742062652067726561746572207468616e2060008201527f3000000000000000000000000000000000000000000000000000000000000000602082015250565b60006134d0602183612fa1565b91506134db82613474565b604082019050919050565b600060208201905081810360008301526134ff816134c3565b9050919050565b7f4f646473206d7573742062652067726561746572207468616e20300000000000600082015250565b600061353c601b83612fa1565b915061354782613506565b602082019050919050565b6000602082019050818103600083015261356b8161352f565b9050919050565b600080fd5b6000601f19601f8301169050919050565b61359182613577565b810181811067ffffffffffffffff821117156135b0576135af612ecc565b5b80604052505050565b60006135c3612677565b90506135cf8282613588565b919050565b6000815190506135e3816126ee565b92915050565b6135f281612c24565b81146135fd57600080fd5b50565b60008151905061360f816135e9565b92915050565b600060a0828403121561362b5761362a613572565b5b61363560a06135b9565b90506000613645848285016135d4565b6000830152506020613659848285016135d4565b602083015250604061366d848285016135d4565b6040830152506060613681848285016135d4565b606083015250608061369584828501613600565b60808301525092915050565b600060a082840312156136b7576136b6612681565b5b60006136c584828501613615565b91505092915050565b7f47616d652068617320616c726561647920737461727465640000000000000000600082015250565b6000613704601883612fa1565b915061370f826136ce565b602082019050919050565b60006020820190508181036000830152613733816136f7565b9050919050565b600060808201905061374f600083018761283a565b61375c602083018661283a565b613769604083018561283a565b6137766060830184612ae3565b95945050505050565b7f4f776e61626c653a206e6577206f776e657220697320746865207a65726f206160008201527f6464726573730000000000000000000000000000000000000000000000000000602082015250565b60006137db602683612fa1565b91506137e68261377f565b604082019050919050565b6000602082019050818103600083015261380a816137ce565b9050919050565b7f4f776e61626c653a2063616c6c6572206973206e6f7420746865206f776e6572600082015250565b6000613847602083612fa1565b915061385282613811565b602082019050919050565b600060208201905081810360008301526138768161383a565b905091905056fea2646970667358221220cd01b7a3973be03f4540a3b359f684a1bd8c52760170383054bb3dadee94333964736f6c63430008110033",
  "linkReferences": {},
  "deployedLinkReferences": {}
}