{
  "_format": "hh-sol-artifact-1",
  "contractName": "Derby",
  "sourceName": "contracts/Derby.sol",
  "abi": [
    {
      "anonymous": false,
      "inputs": [
        {
          "indexed": true,
          "internalType": "address",
          "name": "bettor",
          "type": "address"
        },
        {
          "indexed": false,
          "internalType": "uint256",
          "name": "horseNumber",
          "type": "uint256"
        },
        {
          "indexed": false,
          "internalType": "uint256",
          "name": "amount",
          "type": "uint256"
        }
      ],
      "name": "BetPlaced",
      "type": "event"
    },
    {
      "anonymous": false,
      "inputs": [
        {
          "indexed": true,
          "internalType": "address",
          "name": "previousOwner",
          "type": "address"
        },
        {
          "indexed": true,
          "internalType": "address",
          "name": "newOwner",
          "type": "address"
        }
      ],
      "name": "OwnershipTransferred",
      "type": "event"
    },
    {
      "inputs": [],
      "name": "BETTING_DEADLINE",
      "outputs": [
        {
          "internalType": "uint256",
          "name": "",
          "type": "uint256"
        }
      ],
      "stateMutability": "view",
      "type": "function"
    },
    {
      "inputs": [
        {
          "internalType": "uint256",
          "name": "",
          "type": "uint256"
        }
      ],
      "name": "bets",
      "outputs": [
        {
          "internalType": "uint256",
          "name": "amount",
          "type": "uint256"
        },
        {
          "internalType": "uint256",
          "name": "horseNumber",
          "type": "uint256"
        },
        {
          "internalType": "address",
          "name": "bettor",
          "type": "address"
        }
      ],
      "stateMutability": "view",
      "type": "function"
    },
    {
      "inputs": [
        {
          "internalType": "uint256",
          "name": "winningHorse",
          "type": "uint256"
        }
      ],
      "name": "distributeWinnings",
      "outputs": [],
      "stateMutability": "nonpayable",
      "type": "function"
    },
    {
      "inputs": [],
      "name": "getAllBets",
      "outputs": [
        {
          "components": [
            {
              "internalType": "uint256",
              "name": "amount",
              "type": "uint256"
            },
            {
              "internalType": "uint256",
              "name": "horseNumber",
              "type": "uint256"
            },
            {
              "internalType": "address",
              "name": "bettor",
              "type": "address"
            }
          ],
          "internalType": "struct Derby.Bet[]",
          "name": "",
          "type": "tuple[]"
        }
      ],
      "stateMutability": "view",
      "type": "function"
    },
    {
      "inputs": [
        {
          "internalType": "uint256",
          "name": "horseNumber",
          "type": "uint256"
        }
      ],
      "name": "getTotalAmountBetOnHorse",
      "outputs": [
        {
          "internalType": "uint256",
          "name": "",
          "type": "uint256"
        }
      ],
      "stateMutability": "view",
      "type": "function"
    },
    {
      "inputs": [
        {
          "internalType": "uint256",
          "name": "",
          "type": "uint256"
        }
      ],
      "name": "horsePool",
      "outputs": [
        {
          "internalType": "uint256",
          "name": "",
          "type": "uint256"
        }
      ],
      "stateMutability": "view",
      "type": "function"
    },
    {
      "inputs": [],
      "name": "owner",
      "outputs": [
        {
          "internalType": "address",
          "name": "",
          "type": "address"
        }
      ],
      "stateMutability": "view",
      "type": "function"
    },
    {
      "inputs": [
        {
          "internalType": "uint256",
          "name": "horseNumber",
          "type": "uint256"
        }
      ],
      "name": "placeBet",
      "outputs": [],
      "stateMutability": "payable",
      "type": "function"
    },
    {
      "inputs": [],
      "name": "renounceOwnership",
      "outputs": [],
      "stateMutability": "nonpayable",
      "type": "function"
    },
    {
      "inputs": [],
      "name": "totalBets",
      "outputs": [
        {
          "internalType": "uint256",
          "name": "",
          "type": "uint256"
        }
      ],
      "stateMutability": "view",
      "type": "function"
    },
    {
      "inputs": [
        {
          "internalType": "address",
          "name": "newOwner",
          "type": "address"
        }
      ],
      "name": "transferOwnership",
      "outputs": [],
      "stateMutability": "nonpayable",
      "type": "function"
    },
    {
      "inputs": [],
      "name": "withdrawFunds",
      "outputs": [],
      "stateMutability": "nonpayable",
      "type": "function"
    }
  ],
  "bytecode": "0x608060405234801561001057600080fd5b5061002d61002261003260201b60201c565b61003a60201b60201c565b6100fe565b600033905090565b60008060009054906101000a900473ffffffffffffffffffffffffffffffffffffffff169050816000806101000a81548173ffffffffffffffffffffffffffffffffffffffff021916908373ffffffffffffffffffffffffffffffffffffffff1602179055508173ffffffffffffffffffffffffffffffffffffffff168173ffffffffffffffffffffffffffffffffffffffff167f8be0079c531659141344cd1fd0a4f28419497f9722a3daafe3b4186f6b6457e060405160405180910390a35050565b6112d98061010d6000396000f3fe6080604052600436106100a75760003560e01c806386f701db1161006457806386f701db146101895780638da5cb5b146101c6578063befa1e2f146101f1578063e1e64f4a1461021c578063f02398da14610259578063f2fde38b14610284576100a7565b806310fe7c48146100ac57806322af00fa146100c857806324600fc3146101075780634544c48c1461011e578063700eae7314610147578063715018a614610172575b600080fd5b6100c660048036038101906100c19190610b2b565b6102ad565b005b3480156100d457600080fd5b506100ef60048036038101906100ea9190610b2b565b6104c8565b6040516100fe93929190610ba8565b60405180910390f35b34801561011357600080fd5b5061011c610522565b005b34801561012a57600080fd5b5061014560048036038101906101409190610b2b565b610580565b005b34801561015357600080fd5b5061015c6107c4565b6040516101699190610cee565b60405180910390f35b34801561017e57600080fd5b5061018761088d565b005b34801561019557600080fd5b506101b060048036038101906101ab9190610b2b565b6108a1565b6040516101bd9190610d10565b60405180910390f35b3480156101d257600080fd5b506101db6108be565b6040516101e89190610d2b565b60405180910390f35b3480156101fd57600080fd5b506102066108e7565b6040516102139190610d10565b60405180910390f35b34801561022857600080fd5b50610243600480360381019061023e9190610b2b565b6108ed565b6040516102509190610d10565b60405180910390f35b34801561026557600080fd5b5061026e610905565b60405161027b9190610d10565b60405180910390f35b34801561029057600080fd5b506102ab60048036038101906102a69190610d72565b61090d565b005b6363df0ff842116102f3576040517f08c379a00000000000000000000000000000000000000000000000000000000081526004016102ea90610dfc565b60405180910390fd5b6000811015610337576040517f08c379a000000000000000000000000000000000000000000000000000000000815260040161032e90610e68565b60405180910390fd5b6000341161037a576040517f08c379a000000000000000000000000000000000000000000000000000000000815260040161037190610ed4565b60405180910390fd5b600260405180606001604052803481526020018381526020013373ffffffffffffffffffffffffffffffffffffffff168152509080600181540180825580915050600190039060005260206000209060030201600090919091909150600082015181600001556020820151816001015560408201518160020160006101000a81548173ffffffffffffffffffffffffffffffffffffffff021916908373ffffffffffffffffffffffffffffffffffffffff1602179055505050346003600083815260200190815260200160002060008282546104569190610f23565b92505081905550346001600082825461046f9190610f23565b925050819055503373ffffffffffffffffffffffffffffffffffffffff167e1ecf1d0c4d22f324b3ecb9cdf0e5f772bc74ac104e6626f4b3845433d0310582346040516104bd929190610f57565b60405180910390a250565b600281815481106104d857600080fd5b90600052602060002090600302016000915090508060000154908060010154908060020160009054906101000a900473ffffffffffffffffffffffffffffffffffffffff16905083565b61052a610990565b60004790506105376108be565b73ffffffffffffffffffffffffffffffffffffffff166108fc829081150290604051600060405180830381858888f1935050505015801561057c573d6000803e3d6000fd5b5050565b610588610990565b600081116105cb576040517f08c379a00000000000000000000000000000000000000000000000000000000081526004016105c290610fcc565b60405180910390fd5b60006003600083815260200190815260200160002054905060008111610626576040517f08c379a000000000000000000000000000000000000000000000000000000000815260040161061d90611038565b60405180910390fd5b600061063e6064600154610a0e90919063ffffffff16565b90506000816001546106509190611058565b905061065a6108be565b73ffffffffffffffffffffffffffffffffffffffff166108fc839081150290604051600060405180830381858888f1935050505015801561069f573d6000803e3d6000fd5b5060005b6002805490508110156107bd5784600282815481106106c5576106c461108c565b5b906000526020600020906003020160010154036107aa5760008483600284815481106106f4576106f361108c565b5b90600052602060002090600302016000015461071091906110bb565b61071a919061112c565b9050600282815481106107305761072f61108c565b5b906000526020600020906003020160020160009054906101000a900473ffffffffffffffffffffffffffffffffffffffff1673ffffffffffffffffffffffffffffffffffffffff166108fc829081150290604051600060405180830381858888f193505050501580156107a7573d6000803e3d6000fd5b50505b80806107b59061115d565b9150506106a3565b5050505050565b60606002805480602002602001604051908101604052809291908181526020016000905b82821015610884578382906000526020600020906003020160405180606001604052908160008201548152602001600182015481526020016002820160009054906101000a900473ffffffffffffffffffffffffffffffffffffffff1673ffffffffffffffffffffffffffffffffffffffff1673ffffffffffffffffffffffffffffffffffffffff1681525050815260200190600101906107e8565b50505050905090565b610895610990565b61089f6000610a24565b565b600060036000838152602001908152602001600020549050919050565b60008060009054906101000a900473ffffffffffffffffffffffffffffffffffffffff16905090565b60015481565b60036020528060005260406000206000915090505481565b6363df0ff881565b610915610990565b600073ffffffffffffffffffffffffffffffffffffffff168173ffffffffffffffffffffffffffffffffffffffff1603610984576040517f08c379a000000000000000000000000000000000000000000000000000000000815260040161097b90611217565b60405180910390fd5b61098d81610a24565b50565b610998610ae8565b73ffffffffffffffffffffffffffffffffffffffff166109b66108be565b73ffffffffffffffffffffffffffffffffffffffff1614610a0c576040517f08c379a0000000000000000000000000000000000000000000000000000000008152600401610a0390611283565b60405180910390fd5b565b60008183610a1c919061112c565b905092915050565b60008060009054906101000a900473ffffffffffffffffffffffffffffffffffffffff169050816000806101000a81548173ffffffffffffffffffffffffffffffffffffffff021916908373ffffffffffffffffffffffffffffffffffffffff1602179055508173ffffffffffffffffffffffffffffffffffffffff168173ffffffffffffffffffffffffffffffffffffffff167f8be0079c531659141344cd1fd0a4f28419497f9722a3daafe3b4186f6b6457e060405160405180910390a35050565b600033905090565b600080fd5b6000819050919050565b610b0881610af5565b8114610b1357600080fd5b50565b600081359050610b2581610aff565b92915050565b600060208284031215610b4157610b40610af0565b5b6000610b4f84828501610b16565b91505092915050565b610b6181610af5565b82525050565b600073ffffffffffffffffffffffffffffffffffffffff82169050919050565b6000610b9282610b67565b9050919050565b610ba281610b87565b82525050565b6000606082019050610bbd6000830186610b58565b610bca6020830185610b58565b610bd76040830184610b99565b949350505050565b600081519050919050565b600082825260208201905092915050565b6000819050602082019050919050565b610c1481610af5565b82525050565b610c2381610b87565b82525050565b606082016000820151610c3f6000850182610c0b565b506020820151610c526020850182610c0b565b506040820151610c656040850182610c1a565b50505050565b6000610c778383610c29565b60608301905092915050565b6000602082019050919050565b6000610c9b82610bdf565b610ca58185610bea565b9350610cb083610bfb565b8060005b83811015610ce1578151610cc88882610c6b565b9750610cd383610c83565b925050600181019050610cb4565b5085935050505092915050565b60006020820190508181036000830152610d088184610c90565b905092915050565b6000602082019050610d256000830184610b58565b92915050565b6000602082019050610d406000830184610b99565b92915050565b610d4f81610b87565b8114610d5a57600080fd5b50565b600081359050610d6c81610d46565b92915050565b600060208284031215610d8857610d87610af0565b5b6000610d9684828501610d5d565b91505092915050565b600082825260208201905092915050565b7f42657474696e6720697320636c6f736564000000000000000000000000000000600082015250565b6000610de6601183610d9f565b9150610df182610db0565b602082019050919050565b60006020820190508181036000830152610e1581610dd9565b9050919050565b7f496e76616c696420686f727365206e756d626572000000000000000000000000600082015250565b6000610e52601483610d9f565b9150610e5d82610e1c565b602082019050919050565b60006020820190508181036000830152610e8181610e45565b9050919050565b7f4d75737420626574206120706f73697469766520616d6f756e74000000000000600082015250565b6000610ebe601a83610d9f565b9150610ec982610e88565b602082019050919050565b60006020820190508181036000830152610eed81610eb1565b9050919050565b7f4e487b7100000000000000000000000000000000000000000000000000000000600052601160045260246000fd5b6000610f2e82610af5565b9150610f3983610af5565b9250828201905080821115610f5157610f50610ef4565b5b92915050565b6000604082019050610f6c6000830185610b58565b610f796020830184610b58565b9392505050565b7f496e76616c69642077696e6e696e6720686f7273650000000000000000000000600082015250565b6000610fb6601583610d9f565b9150610fc182610f80565b602082019050919050565b60006020820190508181036000830152610fe581610fa9565b9050919050565b7f4e6f2062657473206f6e207468652077696e6e696e6720686f72736500000000600082015250565b6000611022601c83610d9f565b915061102d82610fec565b602082019050919050565b6000602082019050818103600083015261105181611015565b9050919050565b600061106382610af5565b915061106e83610af5565b925082820390508181111561108657611085610ef4565b5b92915050565b7f4e487b7100000000000000000000000000000000000000000000000000000000600052603260045260246000fd5b60006110c682610af5565b91506110d183610af5565b92508282026110df81610af5565b915082820484148315176110f6576110f5610ef4565b5b5092915050565b7f4e487b7100000000000000000000000000000000000000000000000000000000600052601260045260246000fd5b600061113782610af5565b915061114283610af5565b925082611152576111516110fd565b5b828204905092915050565b600061116882610af5565b91507fffffffffffffffffffffffffffffffffffffffffffffffffffffffffffffffff820361119a57611199610ef4565b5b600182019050919050565b7f4f776e61626c653a206e6577206f776e657220697320746865207a65726f206160008201527f6464726573730000000000000000000000000000000000000000000000000000602082015250565b6000611201602683610d9f565b915061120c826111a5565b604082019050919050565b60006020820190508181036000830152611230816111f4565b9050919050565b7f4f776e61626c653a2063616c6c6572206973206e6f7420746865206f776e6572600082015250565b600061126d602083610d9f565b915061127882611237565b602082019050919050565b6000602082019050818103600083015261129c81611260565b905091905056fea2646970667358221220cc1f1e2bba3cca4ab3099156cd66a1cd6b06b7a5ad9ed32b9ba27a2cb2af11e864736f6c63430008110033",
  "linkReferences": {},
  "deployedLinkReferences": {}
}