{
  "_format": "hh-sol-artifact-1",
  "contractName": "Derby",
  "sourceName": "contracts/Derby.sol",
  "abi": [
    {
      "anonymous": false,
      "inputs": [
        {
          "indexed": true,
          "internalType": "address",
          "name": "bettor",
          "type": "address"
        },
        {
          "indexed": false,
          "internalType": "uint256",
          "name": "horseNumber",
          "type": "uint256"
        },
        {
          "indexed": false,
          "internalType": "uint256",
          "name": "amount",
          "type": "uint256"
        }
      ],
      "name": "BetPlaced",
      "type": "event"
    },
    {
      "anonymous": false,
      "inputs": [
        {
          "indexed": true,
          "internalType": "address",
          "name": "previousOwner",
          "type": "address"
        },
        {
          "indexed": true,
          "internalType": "address",
          "name": "newOwner",
          "type": "address"
        }
      ],
      "name": "OwnershipTransferred",
      "type": "event"
    },
    {
      "inputs": [],
      "name": "BETTING_DEADLINE",
      "outputs": [
        {
          "internalType": "uint256",
          "name": "",
          "type": "uint256"
        }
      ],
      "stateMutability": "view",
      "type": "function"
    },
    {
      "inputs": [
        {
          "internalType": "uint256",
          "name": "",
          "type": "uint256"
        }
      ],
      "name": "bets",
      "outputs": [
        {
          "internalType": "uint256",
          "name": "amount",
          "type": "uint256"
        },
        {
          "internalType": "uint256",
          "name": "horseNumber",
          "type": "uint256"
        },
        {
          "internalType": "address",
          "name": "bettor",
          "type": "address"
        }
      ],
      "stateMutability": "view",
      "type": "function"
    },
    {
      "inputs": [
        {
          "internalType": "uint256",
          "name": "winningHorse",
          "type": "uint256"
        }
      ],
      "name": "distributeWinnings",
      "outputs": [],
      "stateMutability": "nonpayable",
      "type": "function"
    },
    {
      "inputs": [],
      "name": "getAllBets",
      "outputs": [
        {
          "components": [
            {
              "internalType": "uint256",
              "name": "amount",
              "type": "uint256"
            },
            {
              "internalType": "uint256",
              "name": "horseNumber",
              "type": "uint256"
            },
            {
              "internalType": "address",
              "name": "bettor",
              "type": "address"
            }
          ],
          "internalType": "struct Derby.Bet[]",
          "name": "",
          "type": "tuple[]"
        }
      ],
      "stateMutability": "view",
      "type": "function"
    },
    {
      "inputs": [
        {
          "internalType": "uint256",
          "name": "horseNumber",
          "type": "uint256"
        }
      ],
      "name": "getTotalAmountBetOnHorse",
      "outputs": [
        {
          "internalType": "uint256",
          "name": "",
          "type": "uint256"
        }
      ],
      "stateMutability": "view",
      "type": "function"
    },
    {
      "inputs": [
        {
          "internalType": "uint256",
          "name": "",
          "type": "uint256"
        }
      ],
      "name": "horsePool",
      "outputs": [
        {
          "internalType": "uint256",
          "name": "",
          "type": "uint256"
        }
      ],
      "stateMutability": "view",
      "type": "function"
    },
    {
      "inputs": [],
      "name": "owner",
      "outputs": [
        {
          "internalType": "address",
          "name": "",
          "type": "address"
        }
      ],
      "stateMutability": "view",
      "type": "function"
    },
    {
      "inputs": [
        {
          "internalType": "uint256",
          "name": "horseNumber",
          "type": "uint256"
        }
      ],
      "name": "placeBet",
      "outputs": [],
      "stateMutability": "payable",
      "type": "function"
    },
    {
      "inputs": [],
      "name": "renounceOwnership",
      "outputs": [],
      "stateMutability": "nonpayable",
      "type": "function"
    },
    {
      "inputs": [],
      "name": "totalBets",
      "outputs": [
        {
          "internalType": "uint256",
          "name": "",
          "type": "uint256"
        }
      ],
      "stateMutability": "view",
      "type": "function"
    },
    {
      "inputs": [
        {
          "internalType": "address",
          "name": "newOwner",
          "type": "address"
        }
      ],
      "name": "transferOwnership",
      "outputs": [],
      "stateMutability": "nonpayable",
      "type": "function"
    },
    {
      "inputs": [],
      "name": "withdrawFunds",
      "outputs": [],
      "stateMutability": "nonpayable",
      "type": "function"
    }
  ],
  "bytecode": "0x608060405234801561001057600080fd5b5061002d61002261003260201b60201c565b61003a60201b60201c565b6100fe565b600033905090565b60008060009054906101000a900473ffffffffffffffffffffffffffffffffffffffff169050816000806101000a81548173ffffffffffffffffffffffffffffffffffffffff021916908373ffffffffffffffffffffffffffffffffffffffff1602179055508173ffffffffffffffffffffffffffffffffffffffff168173ffffffffffffffffffffffffffffffffffffffff167f8be0079c531659141344cd1fd0a4f28419497f9722a3daafe3b4186f6b6457e060405160405180910390a35050565b6113d28061010d6000396000f3fe6080604052600436106100a75760003560e01c806386f701db1161006457806386f701db146101895780638da5cb5b146101c6578063befa1e2f146101f1578063e1e64f4a1461021c578063f02398da14610259578063f2fde38b14610284576100a7565b806310fe7c48146100ac57806322af00fa146100c857806324600fc3146101075780634544c48c1461011e578063700eae7314610147578063715018a614610172575b600080fd5b6100c660048036038101906100c19190610bb8565b6102ad565b005b3480156100d457600080fd5b506100ef60048036038101906100ea9190610bb8565b6104c7565b6040516100fe93929190610c35565b60405180910390f35b34801561011357600080fd5b5061011c610521565b005b34801561012a57600080fd5b5061014560048036038101906101409190610bb8565b6105c6565b005b34801561015357600080fd5b5061015c610851565b6040516101699190610d7b565b60405180910390f35b34801561017e57600080fd5b5061018761091a565b005b34801561019557600080fd5b506101b060048036038101906101ab9190610bb8565b61092e565b6040516101bd9190610d9d565b60405180910390f35b3480156101d257600080fd5b506101db61094b565b6040516101e89190610db8565b60405180910390f35b3480156101fd57600080fd5b50610206610974565b6040516102139190610d9d565b60405180910390f35b34801561022857600080fd5b50610243600480360381019061023e9190610bb8565b61097a565b6040516102509190610d9d565b60405180910390f35b34801561026557600080fd5b5061026e610992565b60405161027b9190610d9d565b60405180910390f35b34801561029057600080fd5b506102ab60048036038101906102a69190610dff565b61099a565b005b6363df0ff842116102f3576040517f08c379a00000000000000000000000000000000000000000000000000000000081526004016102ea90610e89565b60405180910390fd5b60008111610336576040517f08c379a000000000000000000000000000000000000000000000000000000000815260040161032d90610ef5565b60405180910390fd5b60003411610379576040517f08c379a000000000000000000000000000000000000000000000000000000000815260040161037090610f61565b60405180910390fd5b600260405180606001604052803481526020018381526020013373ffffffffffffffffffffffffffffffffffffffff168152509080600181540180825580915050600190039060005260206000209060030201600090919091909150600082015181600001556020820151816001015560408201518160020160006101000a81548173ffffffffffffffffffffffffffffffffffffffff021916908373ffffffffffffffffffffffffffffffffffffffff1602179055505050346003600083815260200190815260200160002060008282546104559190610fb0565b92505081905550346001600082825461046e9190610fb0565b925050819055503373ffffffffffffffffffffffffffffffffffffffff167e1ecf1d0c4d22f324b3ecb9cdf0e5f772bc74ac104e6626f4b3845433d0310582346040516104bc929190610fe4565b60405180910390a250565b600281815481106104d757600080fd5b90600052602060002090600302016000915090508060000154908060010154908060020160009054906101000a900473ffffffffffffffffffffffffffffffffffffffff16905083565b610529610a1d565b6363df0ff8421015610570576040517f08c379a000000000000000000000000000000000000000000000000000000000815260040161056790611059565b60405180910390fd5b600047905061057d61094b565b73ffffffffffffffffffffffffffffffffffffffff166108fc829081150290604051600060405180830381858888f193505050501580156105c2573d6000803e3d6000fd5b5050565b6105ce610a1d565b6363df0ff8421015610615576040517f08c379a000000000000000000000000000000000000000000000000000000000815260040161060c90611059565b60405180910390fd5b60008111610658576040517f08c379a000000000000000000000000000000000000000000000000000000000815260040161064f906110c5565b60405180910390fd5b600060036000838152602001908152602001600020549050600081116106b3576040517f08c379a00000000000000000000000000000000000000000000000000000000081526004016106aa90611131565b60405180910390fd5b60006106cb6064600154610a9b90919063ffffffff16565b90506000816001546106dd9190611151565b90506106e761094b565b73ffffffffffffffffffffffffffffffffffffffff166108fc839081150290604051600060405180830381858888f1935050505015801561072c573d6000803e3d6000fd5b5060005b60028054905081101561084a57846002828154811061075257610751611185565b5b9060005260206000209060030201600101540361083757600084836002848154811061078157610780611185565b5b90600052602060002090600302016000015461079d91906111b4565b6107a79190611225565b9050600282815481106107bd576107bc611185565b5b906000526020600020906003020160020160009054906101000a900473ffffffffffffffffffffffffffffffffffffffff1673ffffffffffffffffffffffffffffffffffffffff166108fc829081150290604051600060405180830381858888f19350505050158015610834573d6000803e3d6000fd5b50505b808061084290611256565b915050610730565b5050505050565b60606002805480602002602001604051908101604052809291908181526020016000905b82821015610911578382906000526020600020906003020160405180606001604052908160008201548152602001600182015481526020016002820160009054906101000a900473ffffffffffffffffffffffffffffffffffffffff1673ffffffffffffffffffffffffffffffffffffffff1673ffffffffffffffffffffffffffffffffffffffff168152505081526020019060010190610875565b50505050905090565b610922610a1d565b61092c6000610ab1565b565b600060036000838152602001908152602001600020549050919050565b60008060009054906101000a900473ffffffffffffffffffffffffffffffffffffffff16905090565b60015481565b60036020528060005260406000206000915090505481565b6363df0ff881565b6109a2610a1d565b600073ffffffffffffffffffffffffffffffffffffffff168173ffffffffffffffffffffffffffffffffffffffff1603610a11576040517f08c379a0000000000000000000000000000000000000000000000000000000008152600401610a0890611310565b60405180910390fd5b610a1a81610ab1565b50565b610a25610b75565b73ffffffffffffffffffffffffffffffffffffffff16610a4361094b565b73ffffffffffffffffffffffffffffffffffffffff1614610a99576040517f08c379a0000000000000000000000000000000000000000000000000000000008152600401610a909061137c565b60405180910390fd5b565b60008183610aa99190611225565b905092915050565b60008060009054906101000a900473ffffffffffffffffffffffffffffffffffffffff169050816000806101000a81548173ffffffffffffffffffffffffffffffffffffffff021916908373ffffffffffffffffffffffffffffffffffffffff1602179055508173ffffffffffffffffffffffffffffffffffffffff168173ffffffffffffffffffffffffffffffffffffffff167f8be0079c531659141344cd1fd0a4f28419497f9722a3daafe3b4186f6b6457e060405160405180910390a35050565b600033905090565b600080fd5b6000819050919050565b610b9581610b82565b8114610ba057600080fd5b50565b600081359050610bb281610b8c565b92915050565b600060208284031215610bce57610bcd610b7d565b5b6000610bdc84828501610ba3565b91505092915050565b610bee81610b82565b82525050565b600073ffffffffffffffffffffffffffffffffffffffff82169050919050565b6000610c1f82610bf4565b9050919050565b610c2f81610c14565b82525050565b6000606082019050610c4a6000830186610be5565b610c576020830185610be5565b610c646040830184610c26565b949350505050565b600081519050919050565b600082825260208201905092915050565b6000819050602082019050919050565b610ca181610b82565b82525050565b610cb081610c14565b82525050565b606082016000820151610ccc6000850182610c98565b506020820151610cdf6020850182610c98565b506040820151610cf26040850182610ca7565b50505050565b6000610d048383610cb6565b60608301905092915050565b6000602082019050919050565b6000610d2882610c6c565b610d328185610c77565b9350610d3d83610c88565b8060005b83811015610d6e578151610d558882610cf8565b9750610d6083610d10565b925050600181019050610d41565b5085935050505092915050565b60006020820190508181036000830152610d958184610d1d565b905092915050565b6000602082019050610db26000830184610be5565b92915050565b6000602082019050610dcd6000830184610c26565b92915050565b610ddc81610c14565b8114610de757600080fd5b50565b600081359050610df981610dd3565b92915050565b600060208284031215610e1557610e14610b7d565b5b6000610e2384828501610dea565b91505092915050565b600082825260208201905092915050565b7f42657474696e6720697320636c6f736564000000000000000000000000000000600082015250565b6000610e73601183610e2c565b9150610e7e82610e3d565b602082019050919050565b60006020820190508181036000830152610ea281610e66565b9050919050565b7f496e76616c696420686f727365206e756d626572000000000000000000000000600082015250565b6000610edf601483610e2c565b9150610eea82610ea9565b602082019050919050565b60006020820190508181036000830152610f0e81610ed2565b9050919050565b7f4d75737420626574206120706f73697469766520616d6f756e74000000000000600082015250565b6000610f4b601a83610e2c565b9150610f5682610f15565b602082019050919050565b60006020820190508181036000830152610f7a81610f3e565b9050919050565b7f4e487b7100000000000000000000000000000000000000000000000000000000600052601160045260246000fd5b6000610fbb82610b82565b9150610fc683610b82565b9250828201905080821115610fde57610fdd610f81565b5b92915050565b6000604082019050610ff96000830185610be5565b6110066020830184610be5565b9392505050565b7f42657474696e67206d75737420626520636c6f73656400000000000000000000600082015250565b6000611043601683610e2c565b915061104e8261100d565b602082019050919050565b6000602082019050818103600083015261107281611036565b9050919050565b7f496e76616c69642077696e6e696e6720686f7273650000000000000000000000600082015250565b60006110af601583610e2c565b91506110ba82611079565b602082019050919050565b600060208201905081810360008301526110de816110a2565b9050919050565b7f4e6f2062657473206f6e207468652077696e6e696e6720686f72736500000000600082015250565b600061111b601c83610e2c565b9150611126826110e5565b602082019050919050565b6000602082019050818103600083015261114a8161110e565b9050919050565b600061115c82610b82565b915061116783610b82565b925082820390508181111561117f5761117e610f81565b5b92915050565b7f4e487b7100000000000000000000000000000000000000000000000000000000600052603260045260246000fd5b60006111bf82610b82565b91506111ca83610b82565b92508282026111d881610b82565b915082820484148315176111ef576111ee610f81565b5b5092915050565b7f4e487b7100000000000000000000000000000000000000000000000000000000600052601260045260246000fd5b600061123082610b82565b915061123b83610b82565b92508261124b5761124a6111f6565b5b828204905092915050565b600061126182610b82565b91507fffffffffffffffffffffffffffffffffffffffffffffffffffffffffffffffff820361129357611292610f81565b5b600182019050919050565b7f4f776e61626c653a206e6577206f776e657220697320746865207a65726f206160008201527f6464726573730000000000000000000000000000000000000000000000000000602082015250565b60006112fa602683610e2c565b91506113058261129e565b604082019050919050565b60006020820190508181036000830152611329816112ed565b9050919050565b7f4f776e61626c653a2063616c6c6572206973206e6f7420746865206f776e6572600082015250565b6000611366602083610e2c565b915061137182611330565b602082019050919050565b6000602082019050818103600083015261139581611359565b905091905056fea26469706673582212200960e786c135321a86029d74305039aac5a31ee39685d6dbb92fec4f453120b464736f6c63430008110033",
  "linkReferences": {},
  "deployedLinkReferences": {}
}