{
  "_format": "hh-sol-artifact-1",
  "contractName": "Games",
  "sourceName": "contracts/Games.sol",
  "abi": [
    {
      "inputs": [
        {
          "internalType": "address",
          "name": "_teamsAddress",
          "type": "address"
        }
      ],
      "stateMutability": "nonpayable",
      "type": "constructor"
    },
    {
      "anonymous": false,
      "inputs": [
        {
          "indexed": true,
          "internalType": "uint256",
          "name": "id",
          "type": "uint256"
        },
        {
          "indexed": false,
          "internalType": "uint256",
          "name": "homeTeamId",
          "type": "uint256"
        },
        {
          "indexed": false,
          "internalType": "uint256",
          "name": "awayTeamId",
          "type": "uint256"
        },
        {
          "indexed": false,
          "internalType": "uint256",
          "name": "startTime",
          "type": "uint256"
        }
      ],
      "name": "GameCreated",
      "type": "event"
    },
    {
      "anonymous": false,
      "inputs": [
        {
          "indexed": true,
          "internalType": "address",
          "name": "previousOwner",
          "type": "address"
        },
        {
          "indexed": true,
          "internalType": "address",
          "name": "newOwner",
          "type": "address"
        }
      ],
      "name": "OwnershipTransferred",
      "type": "event"
    },
    {
      "inputs": [
        {
          "internalType": "uint256",
          "name": "_homeTeamId",
          "type": "uint256"
        },
        {
          "internalType": "uint256",
          "name": "_awayTeamId",
          "type": "uint256"
        },
        {
          "internalType": "uint256",
          "name": "_startTime",
          "type": "uint256"
        }
      ],
      "name": "createGame",
      "outputs": [],
      "stateMutability": "nonpayable",
      "type": "function"
    },
    {
      "inputs": [
        {
          "internalType": "uint256",
          "name": "",
          "type": "uint256"
        }
      ],
      "name": "games",
      "outputs": [
        {
          "internalType": "uint256",
          "name": "gameId",
          "type": "uint256"
        },
        {
          "internalType": "uint256",
          "name": "homeTeamId",
          "type": "uint256"
        },
        {
          "internalType": "uint256",
          "name": "awayTeamId",
          "type": "uint256"
        },
        {
          "internalType": "uint256",
          "name": "startTime",
          "type": "uint256"
        },
        {
          "internalType": "bool",
          "name": "show",
          "type": "bool"
        }
      ],
      "stateMutability": "view",
      "type": "function"
    },
    {
      "inputs": [
        {
          "internalType": "uint256",
          "name": "_id",
          "type": "uint256"
        }
      ],
      "name": "getGame",
      "outputs": [
        {
          "components": [
            {
              "internalType": "uint256",
              "name": "gameId",
              "type": "uint256"
            },
            {
              "internalType": "uint256",
              "name": "homeTeamId",
              "type": "uint256"
            },
            {
              "internalType": "uint256",
              "name": "awayTeamId",
              "type": "uint256"
            },
            {
              "internalType": "uint256",
              "name": "startTime",
              "type": "uint256"
            },
            {
              "internalType": "bool",
              "name": "show",
              "type": "bool"
            }
          ],
          "internalType": "struct Games.Game",
          "name": "",
          "type": "tuple"
        }
      ],
      "stateMutability": "view",
      "type": "function"
    },
    {
      "inputs": [
        {
          "internalType": "uint256",
          "name": "_id",
          "type": "uint256"
        }
      ],
      "name": "getGameAwayTeamId",
      "outputs": [
        {
          "internalType": "uint256",
          "name": "",
          "type": "uint256"
        }
      ],
      "stateMutability": "view",
      "type": "function"
    },
    {
      "inputs": [
        {
          "internalType": "uint256",
          "name": "_id",
          "type": "uint256"
        }
      ],
      "name": "getGameAwayTeamName",
      "outputs": [
        {
          "internalType": "string",
          "name": "",
          "type": "string"
        }
      ],
      "stateMutability": "view",
      "type": "function"
    },
    {
      "inputs": [],
      "name": "getGameCount",
      "outputs": [
        {
          "internalType": "uint256",
          "name": "",
          "type": "uint256"
        }
      ],
      "stateMutability": "view",
      "type": "function"
    },
    {
      "inputs": [
        {
          "internalType": "uint256",
          "name": "_id",
          "type": "uint256"
        }
      ],
      "name": "getGameHomeTeamId",
      "outputs": [
        {
          "internalType": "uint256",
          "name": "",
          "type": "uint256"
        }
      ],
      "stateMutability": "view",
      "type": "function"
    },
    {
      "inputs": [
        {
          "internalType": "uint256",
          "name": "_id",
          "type": "uint256"
        }
      ],
      "name": "getGameHomeTeamName",
      "outputs": [
        {
          "internalType": "string",
          "name": "",
          "type": "string"
        }
      ],
      "stateMutability": "view",
      "type": "function"
    },
    {
      "inputs": [
        {
          "internalType": "uint256",
          "name": "_id",
          "type": "uint256"
        }
      ],
      "name": "getGameShow",
      "outputs": [
        {
          "internalType": "bool",
          "name": "",
          "type": "bool"
        }
      ],
      "stateMutability": "view",
      "type": "function"
    },
    {
      "inputs": [
        {
          "internalType": "uint256",
          "name": "_id",
          "type": "uint256"
        }
      ],
      "name": "getGameStartTime",
      "outputs": [
        {
          "internalType": "uint256",
          "name": "",
          "type": "uint256"
        }
      ],
      "stateMutability": "view",
      "type": "function"
    },
    {
      "inputs": [],
      "name": "getGames",
      "outputs": [
        {
          "components": [
            {
              "internalType": "uint256",
              "name": "gameId",
              "type": "uint256"
            },
            {
              "internalType": "uint256",
              "name": "homeTeamId",
              "type": "uint256"
            },
            {
              "internalType": "uint256",
              "name": "awayTeamId",
              "type": "uint256"
            },
            {
              "internalType": "uint256",
              "name": "startTime",
              "type": "uint256"
            },
            {
              "internalType": "bool",
              "name": "show",
              "type": "bool"
            }
          ],
          "internalType": "struct Games.Game[]",
          "name": "",
          "type": "tuple[]"
        }
      ],
      "stateMutability": "view",
      "type": "function"
    },
    {
      "inputs": [],
      "name": "owner",
      "outputs": [
        {
          "internalType": "address",
          "name": "",
          "type": "address"
        }
      ],
      "stateMutability": "view",
      "type": "function"
    },
    {
      "inputs": [],
      "name": "renounceOwnership",
      "outputs": [],
      "stateMutability": "nonpayable",
      "type": "function"
    },
    {
      "inputs": [],
      "name": "teams",
      "outputs": [
        {
          "internalType": "contract Teams",
          "name": "",
          "type": "address"
        }
      ],
      "stateMutability": "view",
      "type": "function"
    },
    {
      "inputs": [
        {
          "internalType": "address",
          "name": "newOwner",
          "type": "address"
        }
      ],
      "name": "transferOwnership",
      "outputs": [],
      "stateMutability": "nonpayable",
      "type": "function"
    },
    {
      "inputs": [
        {
          "internalType": "uint256",
          "name": "_id",
          "type": "uint256"
        },
        {
          "internalType": "uint256",
          "name": "_awayTeamId",
          "type": "uint256"
        }
      ],
      "name": "updateGameAwayTeamId",
      "outputs": [],
      "stateMutability": "nonpayable",
      "type": "function"
    },
    {
      "inputs": [
        {
          "internalType": "uint256",
          "name": "_id",
          "type": "uint256"
        },
        {
          "internalType": "uint256",
          "name": "_homeTeamId",
          "type": "uint256"
        }
      ],
      "name": "updateGameHomeTeamId",
      "outputs": [],
      "stateMutability": "nonpayable",
      "type": "function"
    },
    {
      "inputs": [
        {
          "internalType": "uint256",
          "name": "_id",
          "type": "uint256"
        },
        {
          "internalType": "bool",
          "name": "_show",
          "type": "bool"
        }
      ],
      "name": "updateGameShow",
      "outputs": [],
      "stateMutability": "nonpayable",
      "type": "function"
    },
    {
      "inputs": [
        {
          "internalType": "uint256",
          "name": "_id",
          "type": "uint256"
        },
        {
          "internalType": "uint256",
          "name": "_startTime",
          "type": "uint256"
        }
      ],
      "name": "updateGameStartTime",
      "outputs": [],
      "stateMutability": "nonpayable",
      "type": "function"
    }
  ],
  "bytecode": "0x60806040523480156200001157600080fd5b5060405162001705380380620017058339818101604052810190620000379190620001d5565b620000576200004b6200009f60201b60201c565b620000a760201b60201c565b80600160006101000a81548173ffffffffffffffffffffffffffffffffffffffff021916908373ffffffffffffffffffffffffffffffffffffffff1602179055505062000207565b600033905090565b60008060009054906101000a900473ffffffffffffffffffffffffffffffffffffffff169050816000806101000a81548173ffffffffffffffffffffffffffffffffffffffff021916908373ffffffffffffffffffffffffffffffffffffffff1602179055508173ffffffffffffffffffffffffffffffffffffffff168173ffffffffffffffffffffffffffffffffffffffff167f8be0079c531659141344cd1fd0a4f28419497f9722a3daafe3b4186f6b6457e060405160405180910390a35050565b600080fd5b600073ffffffffffffffffffffffffffffffffffffffff82169050919050565b60006200019d8262000170565b9050919050565b620001af8162000190565b8114620001bb57600080fd5b50565b600081519050620001cf81620001a4565b92915050565b600060208284031215620001ee57620001ed6200016b565b5b6000620001fe84828501620001be565b91505092915050565b6114ee80620002176000396000f3fe608060405234801561001057600080fd5b50600436106101215760003560e01c8063975a966d116100ad578063e3813efb11610071578063e3813efb1461031e578063e87c0ee61461033a578063f2c2668214610358578063f2fde38b14610388578063f37d5f68146103a457610121565b8063975a966d14610254578063a2f77bcc14610284578063b131d053146102b4578063c04c5947146102e4578063c27415211461030257610121565b80634f53c5b7116100f45780634f53c5b7146101c4578063661a4bd4146101f4578063713f5c5614610210578063715018a61461022c5780638da5cb5b1461023657610121565b806303de3ad714610126578063117a5b901461014457806322f31c59146101785780634167cde014610194575b600080fd5b61012e6103d4565b60405161013b9190610c80565b60405180910390f35b61015e60048036038101906101599190610ce5565b6103fa565b60405161016f959493929190610d3c565b60405180910390f35b610192600480360381019061018d9190610d8f565b61044d565b005b6101ae60048036038101906101a99190610ce5565b610483565b6040516101bb9190610dcf565b60405180910390f35b6101de60048036038101906101d99190610ce5565b6104b2565b6040516101eb9190610e7a565b60405180910390f35b61020e60048036038101906102099190610d8f565b610581565b005b61022a60048036038101906102259190610d8f565b6105b7565b005b6102346105ed565b005b61023e610601565b60405161024b9190610ebd565b60405180910390f35b61026e60048036038101906102699190610ce5565b61062a565b60405161027b9190610e7a565b60405180910390f35b61029e60048036038101906102999190610ce5565b6106f9565b6040516102ab9190610f5e565b60405180910390f35b6102ce60048036038101906102c99190610ce5565b610778565b6040516102db9190610dcf565b60405180910390f35b6102ec6107a7565b6040516102f99190611090565b60405180910390f35b61031c600480360381019061031791906110b2565b610849565b005b61033860048036038101906103339190611131565b610942565b005b61034261098b565b60405161034f9190610dcf565b60405180910390f35b610372600480360381019061036d9190610ce5565b610998565b60405161037f9190610dcf565b60405180910390f35b6103a2600480360381019061039d919061119d565b6109c7565b005b6103be60048036038101906103b99190610ce5565b610a4a565b6040516103cb91906111ca565b60405180910390f35b600160009054906101000a900473ffffffffffffffffffffffffffffffffffffffff1681565b6002818154811061040a57600080fd5b90600052602060002090600502016000915090508060000154908060010154908060020154908060030154908060040160009054906101000a900460ff16905085565b610455610a86565b806002838154811061046a576104696111e5565b5b9060005260206000209060050201600301819055505050565b600060028281548110610499576104986111e5565b5b9060005260206000209060050201600101549050919050565b6060600160009054906101000a900473ffffffffffffffffffffffffffffffffffffffff1673ffffffffffffffffffffffffffffffffffffffff16637ab60d4860028481548110610506576105056111e5565b5b9060005260206000209060050201600101546040518263ffffffff1660e01b81526004016105349190610dcf565b600060405180830381865afa158015610551573d6000803e3d6000fd5b505050506040513d6000823e3d601f19601f8201168201806040525081019061057a919061133a565b9050919050565b610589610a86565b806002838154811061059e5761059d6111e5565b5b9060005260206000209060050201600101819055505050565b6105bf610a86565b80600283815481106105d4576105d36111e5565b5b9060005260206000209060050201600201819055505050565b6105f5610a86565b6105ff6000610b04565b565b60008060009054906101000a900473ffffffffffffffffffffffffffffffffffffffff16905090565b6060600160009054906101000a900473ffffffffffffffffffffffffffffffffffffffff1673ffffffffffffffffffffffffffffffffffffffff16637ab60d486002848154811061067e5761067d6111e5565b5b9060005260206000209060050201600201546040518263ffffffff1660e01b81526004016106ac9190610dcf565b600060405180830381865afa1580156106c9573d6000803e3d6000fd5b505050506040513d6000823e3d601f19601f820116820180604052508101906106f2919061133a565b9050919050565b610701610bd0565b60028281548110610715576107146111e5565b5b90600052602060002090600502016040518060a0016040529081600082015481526020016001820154815260200160028201548152602001600382015481526020016004820160009054906101000a900460ff1615151515815250509050919050565b60006002828154811061078e5761078d6111e5565b5b9060005260206000209060050201600301549050919050565b60606002805480602002602001604051908101604052809291908181526020016000905b8282101561084057838290600052602060002090600502016040518060a0016040529081600082015481526020016001820154815260200160028201548152602001600382015481526020016004820160009054906101000a900460ff161515151581525050815260200190600101906107cb565b50505050905090565b610851610a86565b6000600280549050905060006040518060a0016040528083815260200186815260200185815260200184815260200160011515815250905060028190806001815401808255809150506001900390600052602060002090600502016000909190919091506000820151816000015560208201518160010155604082015181600201556060820151816003015560808201518160040160006101000a81548160ff0219169083151502179055505050817f80b55cf2f646df8d85b80ac067c88c4aa6354a860d6cb55c7e234cf23861627f86868660405161093393929190611383565b60405180910390a25050505050565b61094a610a86565b806002838154811061095f5761095e6111e5565b5b906000526020600020906005020160040160006101000a81548160ff0219169083151502179055505050565b6000600280549050905090565b6000600282815481106109ae576109ad6111e5565b5b9060005260206000209060050201600201549050919050565b6109cf610a86565b600073ffffffffffffffffffffffffffffffffffffffff168173ffffffffffffffffffffffffffffffffffffffff1603610a3e576040517f08c379a0000000000000000000000000000000000000000000000000000000008152600401610a359061142c565b60405180910390fd5b610a4781610b04565b50565b600060028281548110610a6057610a5f6111e5565b5b906000526020600020906005020160040160009054906101000a900460ff169050919050565b610a8e610bc8565b73ffffffffffffffffffffffffffffffffffffffff16610aac610601565b73ffffffffffffffffffffffffffffffffffffffff1614610b02576040517f08c379a0000000000000000000000000000000000000000000000000000000008152600401610af990611498565b60405180910390fd5b565b60008060009054906101000a900473ffffffffffffffffffffffffffffffffffffffff169050816000806101000a81548173ffffffffffffffffffffffffffffffffffffffff021916908373ffffffffffffffffffffffffffffffffffffffff1602179055508173ffffffffffffffffffffffffffffffffffffffff168173ffffffffffffffffffffffffffffffffffffffff167f8be0079c531659141344cd1fd0a4f28419497f9722a3daafe3b4186f6b6457e060405160405180910390a35050565b600033905090565b6040518060a00160405280600081526020016000815260200160008152602001600081526020016000151581525090565b600073ffffffffffffffffffffffffffffffffffffffff82169050919050565b6000819050919050565b6000610c46610c41610c3c84610c01565b610c21565b610c01565b9050919050565b6000610c5882610c2b565b9050919050565b6000610c6a82610c4d565b9050919050565b610c7a81610c5f565b82525050565b6000602082019050610c956000830184610c71565b92915050565b6000604051905090565b600080fd5b600080fd5b6000819050919050565b610cc281610caf565b8114610ccd57600080fd5b50565b600081359050610cdf81610cb9565b92915050565b600060208284031215610cfb57610cfa610ca5565b5b6000610d0984828501610cd0565b91505092915050565b610d1b81610caf565b82525050565b60008115159050919050565b610d3681610d21565b82525050565b600060a082019050610d516000830188610d12565b610d5e6020830187610d12565b610d6b6040830186610d12565b610d786060830185610d12565b610d856080830184610d2d565b9695505050505050565b60008060408385031215610da657610da5610ca5565b5b6000610db485828601610cd0565b9250506020610dc585828601610cd0565b9150509250929050565b6000602082019050610de46000830184610d12565b92915050565b600081519050919050565b600082825260208201905092915050565b60005b83811015610e24578082015181840152602081019050610e09565b60008484015250505050565b6000601f19601f8301169050919050565b6000610e4c82610dea565b610e568185610df5565b9350610e66818560208601610e06565b610e6f81610e30565b840191505092915050565b60006020820190508181036000830152610e948184610e41565b905092915050565b6000610ea782610c01565b9050919050565b610eb781610e9c565b82525050565b6000602082019050610ed26000830184610eae565b92915050565b610ee181610caf565b82525050565b610ef081610d21565b82525050565b60a082016000820151610f0c6000850182610ed8565b506020820151610f1f6020850182610ed8565b506040820151610f326040850182610ed8565b506060820151610f456060850182610ed8565b506080820151610f586080850182610ee7565b50505050565b600060a082019050610f736000830184610ef6565b92915050565b600081519050919050565b600082825260208201905092915050565b6000819050602082019050919050565b60a082016000820151610fbb6000850182610ed8565b506020820151610fce6020850182610ed8565b506040820151610fe16040850182610ed8565b506060820151610ff46060850182610ed8565b5060808201516110076080850182610ee7565b50505050565b60006110198383610fa5565b60a08301905092915050565b6000602082019050919050565b600061103d82610f79565b6110478185610f84565b935061105283610f95565b8060005b8381101561108357815161106a888261100d565b975061107583611025565b925050600181019050611056565b5085935050505092915050565b600060208201905081810360008301526110aa8184611032565b905092915050565b6000806000606084860312156110cb576110ca610ca5565b5b60006110d986828701610cd0565b93505060206110ea86828701610cd0565b92505060406110fb86828701610cd0565b9150509250925092565b61110e81610d21565b811461111957600080fd5b50565b60008135905061112b81611105565b92915050565b6000806040838503121561114857611147610ca5565b5b600061115685828601610cd0565b92505060206111678582860161111c565b9150509250929050565b61117a81610e9c565b811461118557600080fd5b50565b60008135905061119781611171565b92915050565b6000602082840312156111b3576111b2610ca5565b5b60006111c184828501611188565b91505092915050565b60006020820190506111df6000830184610d2d565b92915050565b7f4e487b7100000000000000000000000000000000000000000000000000000000600052603260045260246000fd5b600080fd5b600080fd5b7f4e487b7100000000000000000000000000000000000000000000000000000000600052604160045260246000fd5b61125682610e30565b810181811067ffffffffffffffff821117156112755761127461121e565b5b80604052505050565b6000611288610c9b565b9050611294828261124d565b919050565b600067ffffffffffffffff8211156112b4576112b361121e565b5b6112bd82610e30565b9050602081019050919050565b60006112dd6112d884611299565b61127e565b9050828152602081018484840111156112f9576112f8611219565b5b611304848285610e06565b509392505050565b600082601f83011261132157611320611214565b5b81516113318482602086016112ca565b91505092915050565b6000602082840312156113505761134f610ca5565b5b600082015167ffffffffffffffff81111561136e5761136d610caa565b5b61137a8482850161130c565b91505092915050565b60006060820190506113986000830186610d12565b6113a56020830185610d12565b6113b26040830184610d12565b949350505050565b7f4f776e61626c653a206e6577206f776e657220697320746865207a65726f206160008201527f6464726573730000000000000000000000000000000000000000000000000000602082015250565b6000611416602683610df5565b9150611421826113ba565b604082019050919050565b6000602082019050818103600083015261144581611409565b9050919050565b7f4f776e61626c653a2063616c6c6572206973206e6f7420746865206f776e6572600082015250565b6000611482602083610df5565b915061148d8261144c565b602082019050919050565b600060208201905081810360008301526114b181611475565b905091905056fea26469706673582212205768476517878a268cfd96fe77a214bdb0601f2f0960fdbf0037c059af1e18ac64736f6c63430008110033",
  "linkReferences": {},
  "deployedLinkReferences": {}
}