{
  "_format": "hh-sol-artifact-1",
  "contractName": "Games",
  "sourceName": "contracts/Games.sol",
  "abi": [
    {
      "inputs": [
        {
          "internalType": "address",
          "name": "_teamsAddress",
          "type": "address"
        }
      ],
      "stateMutability": "nonpayable",
      "type": "constructor"
    },
    {
      "anonymous": false,
      "inputs": [
        {
          "indexed": true,
          "internalType": "uint256",
          "name": "id",
          "type": "uint256"
        },
        {
          "indexed": false,
          "internalType": "uint256",
          "name": "homeTeamId",
          "type": "uint256"
        },
        {
          "indexed": false,
          "internalType": "uint256",
          "name": "awayTeamId",
          "type": "uint256"
        },
        {
          "indexed": false,
          "internalType": "uint256",
          "name": "startTime",
          "type": "uint256"
        }
      ],
      "name": "GameCreated",
      "type": "event"
    },
    {
      "anonymous": false,
      "inputs": [
        {
          "indexed": true,
          "internalType": "address",
          "name": "previousOwner",
          "type": "address"
        },
        {
          "indexed": true,
          "internalType": "address",
          "name": "newOwner",
          "type": "address"
        }
      ],
      "name": "OwnershipTransferred",
      "type": "event"
    },
    {
      "inputs": [
        {
          "internalType": "uint256",
          "name": "_homeTeamId",
          "type": "uint256"
        },
        {
          "internalType": "uint256",
          "name": "_awayTeamId",
          "type": "uint256"
        },
        {
          "internalType": "uint256",
          "name": "_startTime",
          "type": "uint256"
        },
        {
          "internalType": "string",
          "name": "_day",
          "type": "string"
        }
      ],
      "name": "createGame",
      "outputs": [],
      "stateMutability": "nonpayable",
      "type": "function"
    },
    {
      "inputs": [
        {
          "internalType": "uint256",
          "name": "",
          "type": "uint256"
        }
      ],
      "name": "games",
      "outputs": [
        {
          "internalType": "uint256",
          "name": "gameId",
          "type": "uint256"
        },
        {
          "internalType": "uint256",
          "name": "homeTeamId",
          "type": "uint256"
        },
        {
          "internalType": "uint256",
          "name": "awayTeamId",
          "type": "uint256"
        },
        {
          "internalType": "uint256",
          "name": "startTime",
          "type": "uint256"
        },
        {
          "internalType": "bool",
          "name": "show",
          "type": "bool"
        },
        {
          "internalType": "string",
          "name": "day",
          "type": "string"
        }
      ],
      "stateMutability": "view",
      "type": "function"
    },
    {
      "inputs": [
        {
          "internalType": "uint256",
          "name": "_id",
          "type": "uint256"
        }
      ],
      "name": "getGame",
      "outputs": [
        {
          "components": [
            {
              "internalType": "uint256",
              "name": "gameId",
              "type": "uint256"
            },
            {
              "internalType": "uint256",
              "name": "homeTeamId",
              "type": "uint256"
            },
            {
              "internalType": "uint256",
              "name": "awayTeamId",
              "type": "uint256"
            },
            {
              "internalType": "uint256",
              "name": "startTime",
              "type": "uint256"
            },
            {
              "internalType": "bool",
              "name": "show",
              "type": "bool"
            },
            {
              "internalType": "string",
              "name": "day",
              "type": "string"
            }
          ],
          "internalType": "struct Games.Game",
          "name": "",
          "type": "tuple"
        }
      ],
      "stateMutability": "view",
      "type": "function"
    },
    {
      "inputs": [
        {
          "internalType": "uint256",
          "name": "_id",
          "type": "uint256"
        }
      ],
      "name": "getGameAwayTeamId",
      "outputs": [
        {
          "internalType": "uint256",
          "name": "",
          "type": "uint256"
        }
      ],
      "stateMutability": "view",
      "type": "function"
    },
    {
      "inputs": [
        {
          "internalType": "uint256",
          "name": "_id",
          "type": "uint256"
        }
      ],
      "name": "getGameAwayTeamName",
      "outputs": [
        {
          "internalType": "string",
          "name": "",
          "type": "string"
        }
      ],
      "stateMutability": "view",
      "type": "function"
    },
    {
      "inputs": [],
      "name": "getGameCount",
      "outputs": [
        {
          "internalType": "uint256",
          "name": "",
          "type": "uint256"
        }
      ],
      "stateMutability": "view",
      "type": "function"
    },
    {
      "inputs": [
        {
          "internalType": "uint256",
          "name": "_id",
          "type": "uint256"
        }
      ],
      "name": "getGameHomeTeamId",
      "outputs": [
        {
          "internalType": "uint256",
          "name": "",
          "type": "uint256"
        }
      ],
      "stateMutability": "view",
      "type": "function"
    },
    {
      "inputs": [
        {
          "internalType": "uint256",
          "name": "_id",
          "type": "uint256"
        }
      ],
      "name": "getGameHomeTeamName",
      "outputs": [
        {
          "internalType": "string",
          "name": "",
          "type": "string"
        }
      ],
      "stateMutability": "view",
      "type": "function"
    },
    {
      "inputs": [
        {
          "internalType": "uint256",
          "name": "_id",
          "type": "uint256"
        }
      ],
      "name": "getGameShow",
      "outputs": [
        {
          "internalType": "bool",
          "name": "",
          "type": "bool"
        }
      ],
      "stateMutability": "view",
      "type": "function"
    },
    {
      "inputs": [
        {
          "internalType": "uint256",
          "name": "_id",
          "type": "uint256"
        }
      ],
      "name": "getGameStartTime",
      "outputs": [
        {
          "internalType": "uint256",
          "name": "",
          "type": "uint256"
        }
      ],
      "stateMutability": "view",
      "type": "function"
    },
    {
      "inputs": [],
      "name": "getGames",
      "outputs": [
        {
          "components": [
            {
              "internalType": "uint256",
              "name": "gameId",
              "type": "uint256"
            },
            {
              "internalType": "uint256",
              "name": "homeTeamId",
              "type": "uint256"
            },
            {
              "internalType": "uint256",
              "name": "awayTeamId",
              "type": "uint256"
            },
            {
              "internalType": "uint256",
              "name": "startTime",
              "type": "uint256"
            },
            {
              "internalType": "bool",
              "name": "show",
              "type": "bool"
            },
            {
              "internalType": "string",
              "name": "day",
              "type": "string"
            }
          ],
          "internalType": "struct Games.Game[]",
          "name": "",
          "type": "tuple[]"
        }
      ],
      "stateMutability": "view",
      "type": "function"
    },
    {
      "inputs": [
        {
          "internalType": "string",
          "name": "_day",
          "type": "string"
        }
      ],
      "name": "getGamesByDay",
      "outputs": [
        {
          "components": [
            {
              "internalType": "uint256",
              "name": "gameId",
              "type": "uint256"
            },
            {
              "internalType": "uint256",
              "name": "homeTeamId",
              "type": "uint256"
            },
            {
              "internalType": "uint256",
              "name": "awayTeamId",
              "type": "uint256"
            },
            {
              "internalType": "uint256",
              "name": "startTime",
              "type": "uint256"
            },
            {
              "internalType": "bool",
              "name": "show",
              "type": "bool"
            },
            {
              "internalType": "string",
              "name": "day",
              "type": "string"
            }
          ],
          "internalType": "struct Games.Game[]",
          "name": "",
          "type": "tuple[]"
        }
      ],
      "stateMutability": "view",
      "type": "function"
    },
    {
      "inputs": [],
      "name": "owner",
      "outputs": [
        {
          "internalType": "address",
          "name": "",
          "type": "address"
        }
      ],
      "stateMutability": "view",
      "type": "function"
    },
    {
      "inputs": [],
      "name": "renounceOwnership",
      "outputs": [],
      "stateMutability": "nonpayable",
      "type": "function"
    },
    {
      "inputs": [],
      "name": "teams",
      "outputs": [
        {
          "internalType": "contract Teams",
          "name": "",
          "type": "address"
        }
      ],
      "stateMutability": "view",
      "type": "function"
    },
    {
      "inputs": [
        {
          "internalType": "address",
          "name": "newOwner",
          "type": "address"
        }
      ],
      "name": "transferOwnership",
      "outputs": [],
      "stateMutability": "nonpayable",
      "type": "function"
    },
    {
      "inputs": [
        {
          "internalType": "uint256",
          "name": "_id",
          "type": "uint256"
        },
        {
          "internalType": "uint256",
          "name": "_awayTeamId",
          "type": "uint256"
        }
      ],
      "name": "updateGameAwayTeamId",
      "outputs": [],
      "stateMutability": "nonpayable",
      "type": "function"
    },
    {
      "inputs": [
        {
          "internalType": "uint256",
          "name": "_id",
          "type": "uint256"
        },
        {
          "internalType": "uint256",
          "name": "_homeTeamId",
          "type": "uint256"
        }
      ],
      "name": "updateGameHomeTeamId",
      "outputs": [],
      "stateMutability": "nonpayable",
      "type": "function"
    },
    {
      "inputs": [
        {
          "internalType": "uint256",
          "name": "_id",
          "type": "uint256"
        },
        {
          "internalType": "bool",
          "name": "_show",
          "type": "bool"
        }
      ],
      "name": "updateGameShow",
      "outputs": [],
      "stateMutability": "nonpayable",
      "type": "function"
    },
    {
      "inputs": [
        {
          "internalType": "uint256",
          "name": "_id",
          "type": "uint256"
        },
        {
          "internalType": "uint256",
          "name": "_startTime",
          "type": "uint256"
        }
      ],
      "name": "updateGameStartTime",
      "outputs": [],
      "stateMutability": "nonpayable",
      "type": "function"
    }
  ],
  "bytecode": "0x60806040523480156200001157600080fd5b5060405162002024380380620020248339818101604052810190620000379190620001d5565b620000576200004b6200009f60201b60201c565b620000a760201b60201c565b80600160006101000a81548173ffffffffffffffffffffffffffffffffffffffff021916908373ffffffffffffffffffffffffffffffffffffffff1602179055505062000207565b600033905090565b60008060009054906101000a900473ffffffffffffffffffffffffffffffffffffffff169050816000806101000a81548173ffffffffffffffffffffffffffffffffffffffff021916908373ffffffffffffffffffffffffffffffffffffffff1602179055508173ffffffffffffffffffffffffffffffffffffffff168173ffffffffffffffffffffffffffffffffffffffff167f8be0079c531659141344cd1fd0a4f28419497f9722a3daafe3b4186f6b6457e060405160405180910390a35050565b600080fd5b600073ffffffffffffffffffffffffffffffffffffffff82169050919050565b60006200019d8262000170565b9050919050565b620001af8162000190565b8114620001bb57600080fd5b50565b600081519050620001cf81620001a4565b92915050565b600060208284031215620001ee57620001ed6200016b565b5b6000620001fe84828501620001be565b91505092915050565b611e0d80620002176000396000f3fe608060405234801561001057600080fd5b506004361061012c5760003560e01c8063975a966d116100ad578063e3813efb11610071578063e3813efb1461035a578063e87c0ee614610376578063f2c2668214610394578063f2fde38b146103c4578063f37d5f68146103e05761012c565b8063975a966d1461027c578063a2f77bcc146102ac578063b131d053146102dc578063c04c59471461030c578063c62543001461032a5761012c565b8063661a4bd4116100f4578063661a4bd41461020057806370bfd0951461021c578063713f5c5614610238578063715018a6146102545780638da5cb5b1461025e5761012c565b806303de3ad714610131578063117a5b901461014f57806322f31c59146101845780634167cde0146101a05780634f53c5b7146101d0575b600080fd5b610139610410565b60405161014691906110d6565b60405180910390f35b6101696004803603810190610164919061113b565b610436565b60405161017b96959493929190611222565b60405180910390f35b61019e6004803603810190610199919061128a565b610517565b005b6101ba60048036038101906101b5919061113b565b61054d565b6040516101c791906112ca565b60405180910390f35b6101ea60048036038101906101e5919061113b565b61057c565b6040516101f791906112e5565b60405180910390f35b61021a6004803603810190610215919061128a565b61064b565b005b6102366004803603810190610231919061136c565b610681565b005b610252600480360381019061024d919061128a565b610886565b005b61025c6108bc565b005b6102666108d0565b6040516102739190611415565b60405180910390f35b6102966004803603810190610291919061113b565b6108f9565b6040516102a391906112e5565b60405180910390f35b6102c660048036038101906102c1919061113b565b6109c8565b6040516102d39190611521565b60405180910390f35b6102f660048036038101906102f1919061113b565b610ad9565b60405161030391906112ca565b60405180910390f35b610314610b08565b604051610321919061168e565b60405180910390f35b610344600480360381019061033f91906116b0565b610c3c565b604051610351919061168e565b60405180910390f35b610374600480360381019061036f9190611729565b610d91565b005b61037e610dda565b60405161038b91906112ca565b60405180910390f35b6103ae60048036038101906103a9919061113b565b610de7565b6040516103bb91906112ca565b60405180910390f35b6103de60048036038101906103d99190611795565b610e16565b005b6103fa60048036038101906103f5919061113b565b610e99565b60405161040791906117c2565b60405180910390f35b600160009054906101000a900473ffffffffffffffffffffffffffffffffffffffff1681565b6002818154811061044657600080fd5b90600052602060002090600602016000915090508060000154908060010154908060020154908060030154908060040160009054906101000a900460ff16908060050180546104949061180c565b80601f01602080910402602001604051908101604052809291908181526020018280546104c09061180c565b801561050d5780601f106104e25761010080835404028352916020019161050d565b820191906000526020600020905b8154815290600101906020018083116104f057829003601f168201915b5050505050905086565b61051f610ed5565b80600283815481106105345761053361183d565b5b9060005260206000209060060201600301819055505050565b6000600282815481106105635761056261183d565b5b9060005260206000209060060201600101549050919050565b6060600160009054906101000a900473ffffffffffffffffffffffffffffffffffffffff1673ffffffffffffffffffffffffffffffffffffffff16637ab60d48600284815481106105d0576105cf61183d565b5b9060005260206000209060060201600101546040518263ffffffff1660e01b81526004016105fe91906112ca565b600060405180830381865afa15801561061b573d6000803e3d6000fd5b505050506040513d6000823e3d601f19601f82011682018060405250810190610644919061198d565b9050919050565b610653610ed5565b80600283815481106106685761066761183d565b5b9060005260206000209060060201600101819055505050565b610689610ed5565b6000600280549050905060006040518060c0016040528083815260200188815260200187815260200186815260200160011515815260200185858080601f016020809104026020016040519081016040528093929190818152602001838380828437600081840152601f19601f82011690508083019250505050505050815250905060028190806001815401808255809150506001900390600052602060002090600602016000909190919091506000820151816000015560208201518160010155604082015181600201556060820151816003015560808201518160040160006101000a81548160ff02191690831515021790555060a08201518160050190816107949190611b78565b505050600384846040516107a9929190611c89565b90815260200160405180910390208190806001815401808255809150506001900390600052602060002090600602016000909190919091506000820151816000015560208201518160010155604082015181600201556060820151816003015560808201518160040160006101000a81548160ff02191690831515021790555060a082015181600501908161083e9190611b78565b505050817f80b55cf2f646df8d85b80ac067c88c4aa6354a860d6cb55c7e234cf23861627f88888860405161087593929190611ca2565b60405180910390a250505050505050565b61088e610ed5565b80600283815481106108a3576108a261183d565b5b9060005260206000209060060201600201819055505050565b6108c4610ed5565b6108ce6000610f53565b565b60008060009054906101000a900473ffffffffffffffffffffffffffffffffffffffff16905090565b6060600160009054906101000a900473ffffffffffffffffffffffffffffffffffffffff1673ffffffffffffffffffffffffffffffffffffffff16637ab60d486002848154811061094d5761094c61183d565b5b9060005260206000209060060201600201546040518263ffffffff1660e01b815260040161097b91906112ca565b600060405180830381865afa158015610998573d6000803e3d6000fd5b505050506040513d6000823e3d601f19601f820116820180604052508101906109c1919061198d565b9050919050565b6109d061101f565b600282815481106109e4576109e361183d565b5b90600052602060002090600602016040518060c0016040529081600082015481526020016001820154815260200160028201548152602001600382015481526020016004820160009054906101000a900460ff16151515158152602001600582018054610a509061180c565b80601f0160208091040260200160405190810160405280929190818152602001828054610a7c9061180c565b8015610ac95780601f10610a9e57610100808354040283529160200191610ac9565b820191906000526020600020905b815481529060010190602001808311610aac57829003601f168201915b5050505050815250509050919050565b600060028281548110610aef57610aee61183d565b5b9060005260206000209060060201600301549050919050565b60606002805480602002602001604051908101604052809291908181526020016000905b82821015610c3357838290600052602060002090600602016040518060c0016040529081600082015481526020016001820154815260200160028201548152602001600382015481526020016004820160009054906101000a900460ff16151515158152602001600582018054610ba29061180c565b80601f0160208091040260200160405190810160405280929190818152602001828054610bce9061180c565b8015610c1b5780601f10610bf057610100808354040283529160200191610c1b565b820191906000526020600020905b815481529060010190602001808311610bfe57829003601f168201915b50505050508152505081526020019060010190610b2c565b50505050905090565b606060038383604051610c50929190611c89565b9081526020016040518091039020805480602002602001604051908101604052809291908181526020016000905b82821015610d8557838290600052602060002090600602016040518060c0016040529081600082015481526020016001820154815260200160028201548152602001600382015481526020016004820160009054906101000a900460ff16151515158152602001600582018054610cf49061180c565b80601f0160208091040260200160405190810160405280929190818152602001828054610d209061180c565b8015610d6d5780601f10610d4257610100808354040283529160200191610d6d565b820191906000526020600020905b815481529060010190602001808311610d5057829003601f168201915b50505050508152505081526020019060010190610c7e565b50505050905092915050565b610d99610ed5565b8060028381548110610dae57610dad61183d565b5b906000526020600020906006020160040160006101000a81548160ff0219169083151502179055505050565b6000600280549050905090565b600060028281548110610dfd57610dfc61183d565b5b9060005260206000209060060201600201549050919050565b610e1e610ed5565b600073ffffffffffffffffffffffffffffffffffffffff168173ffffffffffffffffffffffffffffffffffffffff1603610e8d576040517f08c379a0000000000000000000000000000000000000000000000000000000008152600401610e8490611d4b565b60405180910390fd5b610e9681610f53565b50565b600060028281548110610eaf57610eae61183d565b5b906000526020600020906006020160040160009054906101000a900460ff169050919050565b610edd611017565b73ffffffffffffffffffffffffffffffffffffffff16610efb6108d0565b73ffffffffffffffffffffffffffffffffffffffff1614610f51576040517f08c379a0000000000000000000000000000000000000000000000000000000008152600401610f4890611db7565b60405180910390fd5b565b60008060009054906101000a900473ffffffffffffffffffffffffffffffffffffffff169050816000806101000a81548173ffffffffffffffffffffffffffffffffffffffff021916908373ffffffffffffffffffffffffffffffffffffffff1602179055508173ffffffffffffffffffffffffffffffffffffffff168173ffffffffffffffffffffffffffffffffffffffff167f8be0079c531659141344cd1fd0a4f28419497f9722a3daafe3b4186f6b6457e060405160405180910390a35050565b600033905090565b6040518060c0016040528060008152602001600081526020016000815260200160008152602001600015158152602001606081525090565b600073ffffffffffffffffffffffffffffffffffffffff82169050919050565b6000819050919050565b600061109c61109761109284611057565b611077565b611057565b9050919050565b60006110ae82611081565b9050919050565b60006110c0826110a3565b9050919050565b6110d0816110b5565b82525050565b60006020820190506110eb60008301846110c7565b92915050565b6000604051905090565b600080fd5b600080fd5b6000819050919050565b61111881611105565b811461112357600080fd5b50565b6000813590506111358161110f565b92915050565b600060208284031215611151576111506110fb565b5b600061115f84828501611126565b91505092915050565b61117181611105565b82525050565b60008115159050919050565b61118c81611177565b82525050565b600081519050919050565b600082825260208201905092915050565b60005b838110156111cc5780820151818401526020810190506111b1565b60008484015250505050565b6000601f19601f8301169050919050565b60006111f482611192565b6111fe818561119d565b935061120e8185602086016111ae565b611217816111d8565b840191505092915050565b600060c0820190506112376000830189611168565b6112446020830188611168565b6112516040830187611168565b61125e6060830186611168565b61126b6080830185611183565b81810360a083015261127d81846111e9565b9050979650505050505050565b600080604083850312156112a1576112a06110fb565b5b60006112af85828601611126565b92505060206112c085828601611126565b9150509250929050565b60006020820190506112df6000830184611168565b92915050565b600060208201905081810360008301526112ff81846111e9565b905092915050565b600080fd5b600080fd5b600080fd5b60008083601f84011261132c5761132b611307565b5b8235905067ffffffffffffffff8111156113495761134861130c565b5b60208301915083600182028301111561136557611364611311565b5b9250929050565b600080600080600060808688031215611388576113876110fb565b5b600061139688828901611126565b95505060206113a788828901611126565b94505060406113b888828901611126565b935050606086013567ffffffffffffffff8111156113d9576113d8611100565b5b6113e588828901611316565b92509250509295509295909350565b60006113ff82611057565b9050919050565b61140f816113f4565b82525050565b600060208201905061142a6000830184611406565b92915050565b61143981611105565b82525050565b61144881611177565b82525050565b600082825260208201905092915050565b600061146a82611192565b611474818561144e565b93506114848185602086016111ae565b61148d816111d8565b840191505092915050565b600060c0830160008301516114b06000860182611430565b5060208301516114c36020860182611430565b5060408301516114d66040860182611430565b5060608301516114e96060860182611430565b5060808301516114fc608086018261143f565b5060a083015184820360a0860152611514828261145f565b9150508091505092915050565b6000602082019050818103600083015261153b8184611498565b905092915050565b600081519050919050565b600082825260208201905092915050565b6000819050602082019050919050565b600060c0830160008301516115876000860182611430565b50602083015161159a6020860182611430565b5060408301516115ad6040860182611430565b5060608301516115c06060860182611430565b5060808301516115d3608086018261143f565b5060a083015184820360a08601526115eb828261145f565b9150508091505092915050565b6000611604838361156f565b905092915050565b6000602082019050919050565b600061162482611543565b61162e818561154e565b9350836020820285016116408561155f565b8060005b8581101561167c578484038952815161165d85826115f8565b94506116688361160c565b925060208a01995050600181019050611644565b50829750879550505050505092915050565b600060208201905081810360008301526116a88184611619565b905092915050565b600080602083850312156116c7576116c66110fb565b5b600083013567ffffffffffffffff8111156116e5576116e4611100565b5b6116f185828601611316565b92509250509250929050565b61170681611177565b811461171157600080fd5b50565b600081359050611723816116fd565b92915050565b600080604083850312156117405761173f6110fb565b5b600061174e85828601611126565b925050602061175f85828601611714565b9150509250929050565b611772816113f4565b811461177d57600080fd5b50565b60008135905061178f81611769565b92915050565b6000602082840312156117ab576117aa6110fb565b5b60006117b984828501611780565b91505092915050565b60006020820190506117d76000830184611183565b92915050565b7f4e487b7100000000000000000000000000000000000000000000000000000000600052602260045260246000fd5b6000600282049050600182168061182457607f821691505b602082108103611837576118366117dd565b5b50919050565b7f4e487b7100000000000000000000000000000000000000000000000000000000600052603260045260246000fd5b600080fd5b7f4e487b7100000000000000000000000000000000000000000000000000000000600052604160045260246000fd5b6118a9826111d8565b810181811067ffffffffffffffff821117156118c8576118c7611871565b5b80604052505050565b60006118db6110f1565b90506118e782826118a0565b919050565b600067ffffffffffffffff82111561190757611906611871565b5b611910826111d8565b9050602081019050919050565b600061193061192b846118ec565b6118d1565b90508281526020810184848401111561194c5761194b61186c565b5b6119578482856111ae565b509392505050565b600082601f83011261197457611973611307565b5b815161198484826020860161191d565b91505092915050565b6000602082840312156119a3576119a26110fb565b5b600082015167ffffffffffffffff8111156119c1576119c0611100565b5b6119cd8482850161195f565b91505092915050565b60008190508160005260206000209050919050565b60006020601f8301049050919050565b600082821b905092915050565b600060088302611a387fffffffffffffffffffffffffffffffffffffffffffffffffffffffffffffffff826119fb565b611a4286836119fb565b95508019841693508086168417925050509392505050565b6000611a75611a70611a6b84611105565b611077565b611105565b9050919050565b6000819050919050565b611a8f83611a5a565b611aa3611a9b82611a7c565b848454611a08565b825550505050565b600090565b611ab8611aab565b611ac3818484611a86565b505050565b5b81811015611ae757611adc600082611ab0565b600181019050611ac9565b5050565b601f821115611b2c57611afd816119d6565b611b06846119eb565b81016020851015611b15578190505b611b29611b21856119eb565b830182611ac8565b50505b505050565b600082821c905092915050565b6000611b4f60001984600802611b31565b1980831691505092915050565b6000611b688383611b3e565b9150826002028217905092915050565b611b8182611192565b67ffffffffffffffff811115611b9a57611b99611871565b5b611ba4825461180c565b611baf828285611aeb565b600060209050601f831160018114611be25760008415611bd0578287015190505b611bda8582611b5c565b865550611c42565b601f198416611bf0866119d6565b60005b82811015611c1857848901518255600182019150602085019450602081019050611bf3565b86831015611c355784890151611c31601f891682611b3e565b8355505b6001600288020188555050505b505050505050565b600081905092915050565b82818337600083830152505050565b6000611c708385611c4a565b9350611c7d838584611c55565b82840190509392505050565b6000611c96828486611c64565b91508190509392505050565b6000606082019050611cb76000830186611168565b611cc46020830185611168565b611cd16040830184611168565b949350505050565b7f4f776e61626c653a206e6577206f776e657220697320746865207a65726f206160008201527f6464726573730000000000000000000000000000000000000000000000000000602082015250565b6000611d3560268361119d565b9150611d4082611cd9565b604082019050919050565b60006020820190508181036000830152611d6481611d28565b9050919050565b7f4f776e61626c653a2063616c6c6572206973206e6f7420746865206f776e6572600082015250565b6000611da160208361119d565b9150611dac82611d6b565b602082019050919050565b60006020820190508181036000830152611dd081611d94565b905091905056fea2646970667358221220154af6ebe35b3fc1c935b1bb86db03c1d4561512fbb7a525717203ee4dc6f79664736f6c63430008110033",
  "linkReferences": {},
  "deployedLinkReferences": {}
}