{
  "_format": "hh-sol-artifact-1",
  "contractName": "Mojo",
  "sourceName": "contracts/Mojo.sol",
  "abi": [
    {
      "inputs": [],
      "stateMutability": "nonpayable",
      "type": "constructor"
    },
    {
      "anonymous": false,
      "inputs": [
        {
          "indexed": true,
          "internalType": "address",
          "name": "owner",
          "type": "address"
        },
        {
          "indexed": true,
          "internalType": "address",
          "name": "spender",
          "type": "address"
        },
        {
          "indexed": false,
          "internalType": "uint256",
          "name": "value",
          "type": "uint256"
        }
      ],
      "name": "Approval",
      "type": "event"
    },
    {
      "anonymous": false,
      "inputs": [
        {
          "indexed": true,
          "internalType": "address",
          "name": "from",
          "type": "address"
        },
        {
          "indexed": true,
          "internalType": "address",
          "name": "to",
          "type": "address"
        },
        {
          "indexed": false,
          "internalType": "uint256",
          "name": "value",
          "type": "uint256"
        }
      ],
      "name": "Transfer",
      "type": "event"
    },
    {
      "inputs": [
        {
          "internalType": "address",
          "name": "",
          "type": "address"
        },
        {
          "internalType": "address",
          "name": "",
          "type": "address"
        }
      ],
      "name": "allowance",
      "outputs": [
        {
          "internalType": "uint256",
          "name": "",
          "type": "uint256"
        }
      ],
      "stateMutability": "view",
      "type": "function"
    },
    {
      "inputs": [
        {
          "internalType": "address",
          "name": "spender",
          "type": "address"
        },
        {
          "internalType": "uint256",
          "name": "amount",
          "type": "uint256"
        }
      ],
      "name": "approve",
      "outputs": [
        {
          "internalType": "bool",
          "name": "",
          "type": "bool"
        }
      ],
      "stateMutability": "nonpayable",
      "type": "function"
    },
    {
      "inputs": [
        {
          "internalType": "address",
          "name": "",
          "type": "address"
        }
      ],
      "name": "balanceOf",
      "outputs": [
        {
          "internalType": "uint256",
          "name": "",
          "type": "uint256"
        }
      ],
      "stateMutability": "view",
      "type": "function"
    },
    {
      "inputs": [
        {
          "internalType": "uint256",
          "name": "amount",
          "type": "uint256"
        }
      ],
      "name": "burn",
      "outputs": [],
      "stateMutability": "nonpayable",
      "type": "function"
    },
    {
      "inputs": [],
      "name": "decimals",
      "outputs": [
        {
          "internalType": "uint256",
          "name": "",
          "type": "uint256"
        }
      ],
      "stateMutability": "view",
      "type": "function"
    },
    {
      "inputs": [
        {
          "internalType": "address",
          "name": "_spender",
          "type": "address"
        }
      ],
      "name": "getAllowance",
      "outputs": [
        {
          "internalType": "uint256",
          "name": "",
          "type": "uint256"
        }
      ],
      "stateMutability": "view",
      "type": "function"
    },
    {
      "inputs": [
        {
          "internalType": "address",
          "name": "_address",
          "type": "address"
        }
      ],
      "name": "getMintCount",
      "outputs": [
        {
          "internalType": "uint256",
          "name": "",
          "type": "uint256"
        }
      ],
      "stateMutability": "view",
      "type": "function"
    },
    {
      "inputs": [
        {
          "internalType": "address",
          "name": "forwarder",
          "type": "address"
        }
      ],
      "name": "isTrustedForwarder",
      "outputs": [
        {
          "internalType": "bool",
          "name": "",
          "type": "bool"
        }
      ],
      "stateMutability": "view",
      "type": "function"
    },
    {
      "inputs": [
        {
          "internalType": "uint256",
          "name": "amount",
          "type": "uint256"
        }
      ],
      "name": "mint",
      "outputs": [],
      "stateMutability": "nonpayable",
      "type": "function"
    },
    {
      "inputs": [],
      "name": "name",
      "outputs": [
        {
          "internalType": "string",
          "name": "",
          "type": "string"
        }
      ],
      "stateMutability": "view",
      "type": "function"
    },
    {
      "inputs": [],
      "name": "symbol",
      "outputs": [
        {
          "internalType": "string",
          "name": "",
          "type": "string"
        }
      ],
      "stateMutability": "view",
      "type": "function"
    },
    {
      "inputs": [],
      "name": "totalSupply",
      "outputs": [
        {
          "internalType": "uint256",
          "name": "",
          "type": "uint256"
        }
      ],
      "stateMutability": "view",
      "type": "function"
    },
    {
      "inputs": [
        {
          "internalType": "address",
          "name": "recipient",
          "type": "address"
        },
        {
          "internalType": "uint256",
          "name": "amount",
          "type": "uint256"
        }
      ],
      "name": "transfer",
      "outputs": [
        {
          "internalType": "bool",
          "name": "",
          "type": "bool"
        }
      ],
      "stateMutability": "nonpayable",
      "type": "function"
    },
    {
      "inputs": [
        {
          "internalType": "address",
          "name": "sender",
          "type": "address"
        },
        {
          "internalType": "address",
          "name": "recipient",
          "type": "address"
        },
        {
          "internalType": "uint256",
          "name": "amount",
          "type": "uint256"
        }
      ],
      "name": "transferFrom",
      "outputs": [
        {
          "internalType": "bool",
          "name": "",
          "type": "bool"
        }
      ],
      "stateMutability": "nonpayable",
      "type": "function"
    },
    {
      "inputs": [
        {
          "internalType": "address",
          "name": "",
          "type": "address"
        }
      ],
      "name": "usersMintCount",
      "outputs": [
        {
          "internalType": "uint256",
          "name": "",
          "type": "uint256"
        }
      ],
      "stateMutability": "view",
      "type": "function"
    }
  ],
  "bytecode": "0x60a06040526040518060400160405280600481526020017f4d6f6a6f00000000000000000000000000000000000000000000000000000000815250600490816200004a91906200036f565b506040518060400160405280600481526020017f4d4f4a4f00000000000000000000000000000000000000000000000000000000815250600590816200009191906200036f565b506012600655348015620000a457600080fd5b5073bf175fcc7086b4f9bd59d5eae8ea67b8f940de0d8073ffffffffffffffffffffffffffffffffffffffff1660808173ffffffffffffffffffffffffffffffffffffffff16815250505062000456565b600081519050919050565b7f4e487b7100000000000000000000000000000000000000000000000000000000600052604160045260246000fd5b7f4e487b7100000000000000000000000000000000000000000000000000000000600052602260045260246000fd5b600060028204905060018216806200017757607f821691505b6020821081036200018d576200018c6200012f565b5b50919050565b60008190508160005260206000209050919050565b60006020601f8301049050919050565b600082821b905092915050565b600060088302620001f77fffffffffffffffffffffffffffffffffffffffffffffffffffffffffffffffff82620001b8565b620002038683620001b8565b95508019841693508086168417925050509392505050565b6000819050919050565b6000819050919050565b6000620002506200024a62000244846200021b565b62000225565b6200021b565b9050919050565b6000819050919050565b6200026c836200022f565b620002846200027b8262000257565b848454620001c5565b825550505050565b600090565b6200029b6200028c565b620002a881848462000261565b505050565b5b81811015620002d057620002c460008262000291565b600181019050620002ae565b5050565b601f8211156200031f57620002e98162000193565b620002f484620001a8565b8101602085101562000304578190505b6200031c6200031385620001a8565b830182620002ad565b50505b505050565b600082821c905092915050565b6000620003446000198460080262000324565b1980831691505092915050565b60006200035f838362000331565b9150826002028217905092915050565b6200037a82620000f5565b67ffffffffffffffff81111562000396576200039562000100565b5b620003a282546200015e565b620003af828285620002d4565b600060209050601f831160018114620003e75760008415620003d2578287015190505b620003de858262000351565b8655506200044e565b601f198416620003f78662000193565b60005b828110156200042157848901518255600182019150602085019450602081019050620003fa565b868310156200044157848901516200043d601f89168262000331565b8355505b6001600288020188555050505b505050505050565b60805161126b620004726000396000610893015261126b6000f3fe608060405234801561001057600080fd5b50600436106100f55760003560e01c80635b358fb011610097578063a2801f5711610066578063a2801f571461029a578063a9059cbb146102ca578063dd62ed3e146102fa578063eb5a662e1461032a576100f5565b80635b358fb01461020057806370a082311461023057806395d89b4114610260578063a0712d681461027e576100f5565b806323b872dd116100d357806323b872dd14610166578063313ce5671461019657806342966c68146101b4578063572b6c05146101d0576100f5565b806306fdde03146100fa578063095ea7b31461011857806318160ddd14610148575b600080fd5b61010261035a565b60405161010f9190610dd6565b60405180910390f35b610132600480360381019061012d9190610e91565b6103e8565b60405161013f9190610eec565b60405180910390f35b6101506105e6565b60405161015d9190610f16565b60405180910390f35b610180600480360381019061017b9190610f31565b6105ec565b60405161018d9190610eec565b60405180910390f35b61019e6107a4565b6040516101ab9190610f16565b60405180910390f35b6101ce60048036038101906101c99190610f84565b6107aa565b005b6101ea60048036038101906101e59190610fb1565b61088f565b6040516101f79190610eec565b60405180910390f35b61021a60048036038101906102159190610fb1565b6108e7565b6040516102279190610f16565b60405180910390f35b61024a60048036038101906102459190610fb1565b6108ff565b6040516102579190610f16565b60405180910390f35b610268610917565b6040516102759190610dd6565b60405180910390f35b61029860048036038101906102939190610f84565b6109a5565b005b6102b460048036038101906102af9190610fb1565b610ae6565b6040516102c19190610f16565b60405180910390f35b6102e460048036038101906102df9190610e91565b610b2f565b6040516102f19190610eec565b60405180910390f35b610314600480360381019061030f9190610fde565b610c5a565b6040516103219190610f16565b60405180910390f35b610344600480360381019061033f9190610fb1565b610c7f565b6040516103519190610f16565b60405180910390f35b600480546103679061104d565b80601f01602080910402602001604051908101604052809291908181526020018280546103939061104d565b80156103e05780601f106103b5576101008083540402835291602001916103e0565b820191906000526020600020905b8154815290600101906020018083116103c357829003601f168201915b505050505081565b60008273ffffffffffffffffffffffffffffffffffffffff16610409610d0c565b73ffffffffffffffffffffffffffffffffffffffff160361045f576040517f08c379a0000000000000000000000000000000000000000000000000000000008152600401610456906110ca565b60405180910390fd5b816001600061046c610d0c565b73ffffffffffffffffffffffffffffffffffffffff1673ffffffffffffffffffffffffffffffffffffffff1681526020019081526020016000205410156104e8576040517f08c379a00000000000000000000000000000000000000000000000000000000081526004016104df90611136565b60405180910390fd5b81600260006104f5610d0c565b73ffffffffffffffffffffffffffffffffffffffff1673ffffffffffffffffffffffffffffffffffffffff16815260200190815260200160002060008573ffffffffffffffffffffffffffffffffffffffff1673ffffffffffffffffffffffffffffffffffffffff168152602001908152602001600020819055508273ffffffffffffffffffffffffffffffffffffffff1661058f610d0c565b73ffffffffffffffffffffffffffffffffffffffff167f8c5be1e5ebec7d5bd14f71427d1e84f3dd0314c0f7b2291e5b200ac8c7c3b925846040516105d49190610f16565b60405180910390a36001905092915050565b60005481565b600081600260008673ffffffffffffffffffffffffffffffffffffffff1673ffffffffffffffffffffffffffffffffffffffff1681526020019081526020016000206000610638610d0c565b73ffffffffffffffffffffffffffffffffffffffff1673ffffffffffffffffffffffffffffffffffffffff16815260200190815260200160002060008282546106819190611185565b9250508190555081600160008673ffffffffffffffffffffffffffffffffffffffff1673ffffffffffffffffffffffffffffffffffffffff16815260200190815260200160002060008282546106d79190611185565b9250508190555081600160008573ffffffffffffffffffffffffffffffffffffffff1673ffffffffffffffffffffffffffffffffffffffff168152602001908152602001600020600082825461072d91906111b9565b925050819055508273ffffffffffffffffffffffffffffffffffffffff168473ffffffffffffffffffffffffffffffffffffffff167fddf252ad1be2c89b69c2b068fc378daa952ba7f163c4a11628f55a4df523b3ef846040516107919190610f16565b60405180910390a3600190509392505050565b60065481565b80600160006107b7610d0c565b73ffffffffffffffffffffffffffffffffffffffff1673ffffffffffffffffffffffffffffffffffffffff16815260200190815260200160002060008282546108009190611185565b92505081905550806000808282546108189190611185565b92505081905550600073ffffffffffffffffffffffffffffffffffffffff1661083f610d0c565b73ffffffffffffffffffffffffffffffffffffffff167fddf252ad1be2c89b69c2b068fc378daa952ba7f163c4a11628f55a4df523b3ef836040516108849190610f16565b60405180910390a350565b60007f000000000000000000000000000000000000000000000000000000000000000073ffffffffffffffffffffffffffffffffffffffff168273ffffffffffffffffffffffffffffffffffffffff16149050919050565b60036020528060005260406000206000915090505481565b60016020528060005260406000206000915090505481565b600580546109249061104d565b80601f01602080910402602001604051908101604052809291908181526020018280546109509061104d565b801561099d5780601f106109725761010080835404028352916020019161099d565b820191906000526020600020905b81548152906001019060200180831161098057829003601f168201915b505050505081565b80600160006109b2610d0c565b73ffffffffffffffffffffffffffffffffffffffff1673ffffffffffffffffffffffffffffffffffffffff16815260200190815260200160002060008282546109fb91906111b9565b9250508190555080600080828254610a1391906111b9565b9250508190555060036000610a26610d0c565b73ffffffffffffffffffffffffffffffffffffffff1673ffffffffffffffffffffffffffffffffffffffff1681526020019081526020016000206000815480929190610a71906111ed565b9190505550610a7e610d0c565b73ffffffffffffffffffffffffffffffffffffffff16600073ffffffffffffffffffffffffffffffffffffffff167fddf252ad1be2c89b69c2b068fc378daa952ba7f163c4a11628f55a4df523b3ef83604051610adb9190610f16565b60405180910390a350565b6000600360008373ffffffffffffffffffffffffffffffffffffffff1673ffffffffffffffffffffffffffffffffffffffff168152602001908152602001600020549050919050565b60008160016000610b3e610d0c565b73ffffffffffffffffffffffffffffffffffffffff1673ffffffffffffffffffffffffffffffffffffffff1681526020019081526020016000206000828254610b879190611185565b9250508190555081600160008573ffffffffffffffffffffffffffffffffffffffff1673ffffffffffffffffffffffffffffffffffffffff1681526020019081526020016000206000828254610bdd91906111b9565b925050819055508273ffffffffffffffffffffffffffffffffffffffff16610c03610d0c565b73ffffffffffffffffffffffffffffffffffffffff167fddf252ad1be2c89b69c2b068fc378daa952ba7f163c4a11628f55a4df523b3ef84604051610c489190610f16565b60405180910390a36001905092915050565b6002602052816000526040600020602052806000526040600020600091509150505481565b600060026000610c8d610d0c565b73ffffffffffffffffffffffffffffffffffffffff1673ffffffffffffffffffffffffffffffffffffffff16815260200190815260200160002060008373ffffffffffffffffffffffffffffffffffffffff1673ffffffffffffffffffffffffffffffffffffffff168152602001908152602001600020549050919050565b6000610d173361088f565b15610d2b57601436033560601c9050610d3a565b610d33610d3e565b9050610d3b565b5b90565b600033905090565b600081519050919050565b600082825260208201905092915050565b60005b83811015610d80578082015181840152602081019050610d65565b60008484015250505050565b6000601f19601f8301169050919050565b6000610da882610d46565b610db28185610d51565b9350610dc2818560208601610d62565b610dcb81610d8c565b840191505092915050565b60006020820190508181036000830152610df08184610d9d565b905092915050565b600080fd5b600073ffffffffffffffffffffffffffffffffffffffff82169050919050565b6000610e2882610dfd565b9050919050565b610e3881610e1d565b8114610e4357600080fd5b50565b600081359050610e5581610e2f565b92915050565b6000819050919050565b610e6e81610e5b565b8114610e7957600080fd5b50565b600081359050610e8b81610e65565b92915050565b60008060408385031215610ea857610ea7610df8565b5b6000610eb685828601610e46565b9250506020610ec785828601610e7c565b9150509250929050565b60008115159050919050565b610ee681610ed1565b82525050565b6000602082019050610f016000830184610edd565b92915050565b610f1081610e5b565b82525050565b6000602082019050610f2b6000830184610f07565b92915050565b600080600060608486031215610f4a57610f49610df8565b5b6000610f5886828701610e46565b9350506020610f6986828701610e46565b9250506040610f7a86828701610e7c565b9150509250925092565b600060208284031215610f9a57610f99610df8565b5b6000610fa884828501610e7c565b91505092915050565b600060208284031215610fc757610fc6610df8565b5b6000610fd584828501610e46565b91505092915050565b60008060408385031215610ff557610ff4610df8565b5b600061100385828601610e46565b925050602061101485828601610e46565b9150509250929050565b7f4e487b7100000000000000000000000000000000000000000000000000000000600052602260045260246000fd5b6000600282049050600182168061106557607f821691505b6020821081036110785761107761101e565b5b50919050565b7f43616e6e6f7420617070726f76652073656c6600000000000000000000000000600082015250565b60006110b4601383610d51565b91506110bf8261107e565b602082019050919050565b600060208201905081810360008301526110e3816110a7565b9050919050565b7f4e656564206d6f726520746f6b656e7320746f207570766f7465000000000000600082015250565b6000611120601a83610d51565b915061112b826110ea565b602082019050919050565b6000602082019050818103600083015261114f81611113565b9050919050565b7f4e487b7100000000000000000000000000000000000000000000000000000000600052601160045260246000fd5b600061119082610e5b565b915061119b83610e5b565b92508282039050818111156111b3576111b2611156565b5b92915050565b60006111c482610e5b565b91506111cf83610e5b565b92508282019050808211156111e7576111e6611156565b5b92915050565b60006111f882610e5b565b91507fffffffffffffffffffffffffffffffffffffffffffffffffffffffffffffffff820361122a57611229611156565b5b60018201905091905056fea264697066735822122031cab0bfaae2d8f12f56fe1bc8895b09e744fb08130b3b5e350ecd0c26ed970364736f6c63430008110033",
  "linkReferences": {},
  "deployedLinkReferences": {}
}