{
  "_format": "hh-sol-artifact-1",
  "contractName": "Profiles",
  "sourceName": "contracts/Profiles.sol",
  "abi": [
    {
      "inputs": [],
      "stateMutability": "nonpayable",
      "type": "constructor"
    },
    {
      "anonymous": false,
      "inputs": [
        {
          "indexed": true,
          "internalType": "address",
          "name": "previousOwner",
          "type": "address"
        },
        {
          "indexed": true,
          "internalType": "address",
          "name": "newOwner",
          "type": "address"
        }
      ],
      "name": "OwnershipTransferred",
      "type": "event"
    },
    {
      "anonymous": false,
      "inputs": [
        {
          "indexed": true,
          "internalType": "uint256",
          "name": "id",
          "type": "uint256"
        },
        {
          "indexed": false,
          "internalType": "string",
          "name": "username",
          "type": "string"
        },
        {
          "indexed": false,
          "internalType": "address",
          "name": "walletAddress",
          "type": "address"
        }
      ],
      "name": "ProfileCreated",
      "type": "event"
    },
    {
      "inputs": [
        {
          "internalType": "uint256",
          "name": "_id",
          "type": "uint256"
        }
      ],
      "name": "checkIdExists",
      "outputs": [
        {
          "internalType": "bool",
          "name": "",
          "type": "bool"
        }
      ],
      "stateMutability": "view",
      "type": "function"
    },
    {
      "inputs": [
        {
          "internalType": "string",
          "name": "_username",
          "type": "string"
        }
      ],
      "name": "checkUsernameExists",
      "outputs": [
        {
          "internalType": "bool",
          "name": "",
          "type": "bool"
        }
      ],
      "stateMutability": "view",
      "type": "function"
    },
    {
      "inputs": [
        {
          "internalType": "address",
          "name": "_walletAddress",
          "type": "address"
        }
      ],
      "name": "checkWalletAddressExists",
      "outputs": [
        {
          "internalType": "bool",
          "name": "",
          "type": "bool"
        }
      ],
      "stateMutability": "view",
      "type": "function"
    },
    {
      "inputs": [
        {
          "internalType": "string",
          "name": "_username",
          "type": "string"
        }
      ],
      "name": "createProfile",
      "outputs": [],
      "stateMutability": "nonpayable",
      "type": "function"
    },
    {
      "inputs": [
        {
          "internalType": "uint256",
          "name": "_id",
          "type": "uint256"
        }
      ],
      "name": "getBetCount",
      "outputs": [
        {
          "internalType": "uint256",
          "name": "",
          "type": "uint256"
        }
      ],
      "stateMutability": "view",
      "type": "function"
    },
    {
      "inputs": [
        {
          "internalType": "uint256",
          "name": "_id",
          "type": "uint256"
        }
      ],
      "name": "getLosses",
      "outputs": [
        {
          "internalType": "uint256",
          "name": "",
          "type": "uint256"
        }
      ],
      "stateMutability": "view",
      "type": "function"
    },
    {
      "inputs": [
        {
          "internalType": "address",
          "name": "_walletAddress",
          "type": "address"
        }
      ],
      "name": "getProfileByWalletAddress",
      "outputs": [
        {
          "components": [
            {
              "internalType": "uint256",
              "name": "id",
              "type": "uint256"
            },
            {
              "internalType": "uint256",
              "name": "timestamp",
              "type": "uint256"
            },
            {
              "internalType": "string",
              "name": "username",
              "type": "string"
            },
            {
              "internalType": "address",
              "name": "walletAddress",
              "type": "address"
            },
            {
              "internalType": "uint256",
              "name": "betCount",
              "type": "uint256"
            },
            {
              "internalType": "uint256",
              "name": "winnings",
              "type": "uint256"
            },
            {
              "internalType": "uint256",
              "name": "losses",
              "type": "uint256"
            }
          ],
          "internalType": "struct Profiles.Profile",
          "name": "",
          "type": "tuple"
        }
      ],
      "stateMutability": "view",
      "type": "function"
    },
    {
      "inputs": [],
      "name": "getProfileCount",
      "outputs": [
        {
          "internalType": "uint256",
          "name": "",
          "type": "uint256"
        }
      ],
      "stateMutability": "view",
      "type": "function"
    },
    {
      "inputs": [],
      "name": "getProfiles",
      "outputs": [
        {
          "components": [
            {
              "internalType": "uint256",
              "name": "id",
              "type": "uint256"
            },
            {
              "internalType": "uint256",
              "name": "timestamp",
              "type": "uint256"
            },
            {
              "internalType": "string",
              "name": "username",
              "type": "string"
            },
            {
              "internalType": "address",
              "name": "walletAddress",
              "type": "address"
            },
            {
              "internalType": "uint256",
              "name": "betCount",
              "type": "uint256"
            },
            {
              "internalType": "uint256",
              "name": "winnings",
              "type": "uint256"
            },
            {
              "internalType": "uint256",
              "name": "losses",
              "type": "uint256"
            }
          ],
          "internalType": "struct Profiles.Profile[]",
          "name": "",
          "type": "tuple[]"
        }
      ],
      "stateMutability": "view",
      "type": "function"
    },
    {
      "inputs": [
        {
          "internalType": "uint256",
          "name": "_id",
          "type": "uint256"
        }
      ],
      "name": "getWins",
      "outputs": [
        {
          "internalType": "uint256",
          "name": "",
          "type": "uint256"
        }
      ],
      "stateMutability": "view",
      "type": "function"
    },
    {
      "inputs": [
        {
          "internalType": "address",
          "name": "forwarder",
          "type": "address"
        }
      ],
      "name": "isTrustedForwarder",
      "outputs": [
        {
          "internalType": "bool",
          "name": "",
          "type": "bool"
        }
      ],
      "stateMutability": "view",
      "type": "function"
    },
    {
      "inputs": [],
      "name": "owner",
      "outputs": [
        {
          "internalType": "address",
          "name": "",
          "type": "address"
        }
      ],
      "stateMutability": "view",
      "type": "function"
    },
    {
      "inputs": [
        {
          "internalType": "uint256",
          "name": "",
          "type": "uint256"
        }
      ],
      "name": "profiles",
      "outputs": [
        {
          "internalType": "uint256",
          "name": "id",
          "type": "uint256"
        },
        {
          "internalType": "uint256",
          "name": "timestamp",
          "type": "uint256"
        },
        {
          "internalType": "string",
          "name": "username",
          "type": "string"
        },
        {
          "internalType": "address",
          "name": "walletAddress",
          "type": "address"
        },
        {
          "internalType": "uint256",
          "name": "betCount",
          "type": "uint256"
        },
        {
          "internalType": "uint256",
          "name": "winnings",
          "type": "uint256"
        },
        {
          "internalType": "uint256",
          "name": "losses",
          "type": "uint256"
        }
      ],
      "stateMutability": "view",
      "type": "function"
    },
    {
      "inputs": [],
      "name": "renounceOwnership",
      "outputs": [],
      "stateMutability": "nonpayable",
      "type": "function"
    },
    {
      "inputs": [
        {
          "internalType": "address",
          "name": "newOwner",
          "type": "address"
        }
      ],
      "name": "transferOwnership",
      "outputs": [],
      "stateMutability": "nonpayable",
      "type": "function"
    },
    {
      "inputs": [
        {
          "internalType": "address",
          "name": "_walletAddress",
          "type": "address"
        }
      ],
      "name": "updateBetCount",
      "outputs": [],
      "stateMutability": "nonpayable",
      "type": "function"
    },
    {
      "inputs": [
        {
          "internalType": "address",
          "name": "_walletAddress",
          "type": "address"
        },
        {
          "internalType": "uint256",
          "name": "_losses",
          "type": "uint256"
        }
      ],
      "name": "updateLosses",
      "outputs": [],
      "stateMutability": "nonpayable",
      "type": "function"
    },
    {
      "inputs": [
        {
          "internalType": "string",
          "name": "_username",
          "type": "string"
        }
      ],
      "name": "updateProfileUsername",
      "outputs": [],
      "stateMutability": "nonpayable",
      "type": "function"
    },
    {
      "inputs": [
        {
          "internalType": "address",
          "name": "_walletAddress",
          "type": "address"
        },
        {
          "internalType": "uint256",
          "name": "_winnings",
          "type": "uint256"
        }
      ],
      "name": "updateWins",
      "outputs": [],
      "stateMutability": "nonpayable",
      "type": "function"
    }
  ],
  "bytecode": "0x60a06040523480156200001157600080fd5b5073bf175fcc7086b4f9bd59d5eae8ea67b8f940de0d8073ffffffffffffffffffffffffffffffffffffffff1660808173ffffffffffffffffffffffffffffffffffffffff1681525050506200007c620000706200008260201b60201c565b6200009e60201b60201c565b620001ee565b6000620000996200016260201b620015321760201c565b905090565b60008060009054906101000a900473ffffffffffffffffffffffffffffffffffffffff169050816000806101000a81548173ffffffffffffffffffffffffffffffffffffffff021916908373ffffffffffffffffffffffffffffffffffffffff1602179055508173ffffffffffffffffffffffffffffffffffffffff168173ffffffffffffffffffffffffffffffffffffffff167f8be0079c531659141344cd1fd0a4f28419497f9722a3daafe3b4186f6b6457e060405160405180910390a35050565b60006200017533620001ac60201b60201c565b156200018b57601436033560601c9050620001a8565b620001a0620001e660201b620015641760201c565b9050620001a9565b5b90565b600060805173ffffffffffffffffffffffffffffffffffffffff168273ffffffffffffffffffffffffffffffffffffffff16149050919050565b600033905090565b60805161259d6200020a6000396000610cee015261259d6000f3fe608060405234801561001057600080fd5b50600436106101215760003560e01c80636b7128ec116100ad578063aade6e4211610071578063aade6e421461032c578063b21370331461035c578063c36fe3d61461037a578063f2fde38b146103b0578063f4286569146103cc57610121565b80636b7128ec14610274578063715018a6146102a457806384c31a20146102ae5780638da5cb5b146102de578063a3a178e7146102fc57610121565b8063334c3f0e116100f4578063334c3f0e146101aa5780633697611a146101c6578063565bf037146101e4578063572b6c05146102145780635b86eb041461024457610121565b80630a1cb272146101265780630f729834146101425780632876674f1461015e5780632fd333c41461017a575b600080fd5b610140600480360381019061013b91906117b8565b6103e8565b005b61015c6004803603810190610157919061193e565b610501565b005b61017860048036038101906101739190611987565b61079b565b005b610194600480360381019061018f91906119b4565b6108b3565b6040516101a191906119f0565b60405180910390f35b6101c460048036038101906101bf919061193e565b610942565b005b6101ce610cb3565b6040516101db91906119f0565b60405180910390f35b6101fe60048036038101906101f991906119b4565b610cc0565b60405161020b9190611a26565b60405180910390f35b61022e60048036038101906102299190611987565b610cea565b60405161023b9190611a26565b60405180910390f35b61025e60048036038101906102599190611987565b610d42565b60405161026b9190611a26565b60405180910390f35b61028e600480360381019061028991906119b4565b610d98565b60405161029b91906119f0565b60405180910390f35b6102ac610e27565b005b6102c860048036038101906102c39190611987565b610e3b565b6040516102d59190611b7a565b60405180910390f35b6102e6611036565b6040516102f39190611bab565b60405180910390f35b6103166004803603810190610311919061193e565b61105f565b6040516103239190611a26565b60405180910390f35b610346600480360381019061034191906119b4565b611094565b60405161035391906119f0565b60405180910390f35b610364611123565b6040516103719190611d24565b60405180910390f35b610394600480360381019061038f91906119b4565b61129c565b6040516103a79796959493929190611d90565b60405180910390f35b6103ca60048036038101906103c59190611987565b611396565b005b6103e660048036038101906103e191906117b8565b611419565b005b6103f061156c565b600260008373ffffffffffffffffffffffffffffffffffffffff1673ffffffffffffffffffffffffffffffffffffffff16815260200190815260200160002060009054906101000a900460ff1661047c576040517f08c379a000000000000000000000000000000000000000000000000000000000815260040161047390611e52565b60405180910390fd5b6000600560008473ffffffffffffffffffffffffffffffffffffffff1673ffffffffffffffffffffffffffffffffffffffff16815260200190815260200160002054905081600182815481106104d5576104d4611e72565b5b906000526020600020906007020160060160008282546104f59190611ed0565b92505081905550505050565b60006005600061050f6115ea565b73ffffffffffffffffffffffffffffffffffffffff1673ffffffffffffffffffffffffffffffffffffffff1681526020019081526020016000205490506004600082815260200190815260200160002060009054906101000a900460ff166105ac576040517f08c379a00000000000000000000000000000000000000000000000000000000081526004016105a390611e52565b60405180910390fd5b600181815481106105c0576105bf611e72565b5b906000526020600020906007020160030160009054906101000a900473ffffffffffffffffffffffffffffffffffffffff1673ffffffffffffffffffffffffffffffffffffffff166106106115ea565b73ffffffffffffffffffffffffffffffffffffffff1614610666576040517f08c379a000000000000000000000000000000000000000000000000000000000815260040161065d90611f76565b60405180910390fd5b6003826040516106769190611fd2565b908152602001604051809103902060009054906101000a900460ff16156106d2576040517f08c379a00000000000000000000000000000000000000000000000000000000081526004016106c990612035565b60405180910390fd5b60006003600183815481106106ea576106e9611e72565b5b9060005260206000209060070201600201604051610708919061214d565b908152602001604051809103902060006101000a81548160ff021916908315150217905550816001828154811061074257610741611e72565b5b9060005260206000209060070201600201908161075f91906122fb565b5060016003836040516107729190611fd2565b908152602001604051809103902060006101000a81548160ff0219169083151502179055505050565b6107a361156c565b600260008273ffffffffffffffffffffffffffffffffffffffff1673ffffffffffffffffffffffffffffffffffffffff16815260200190815260200160002060009054906101000a900460ff1661082f576040517f08c379a000000000000000000000000000000000000000000000000000000000815260040161082690611e52565b60405180910390fd5b6000600560008373ffffffffffffffffffffffffffffffffffffffff1673ffffffffffffffffffffffffffffffffffffffff168152602001908152602001600020549050600180828154811061088857610887611e72565b5b906000526020600020906007020160040160008282546108a89190611ed0565b925050819055505050565b60006004600083815260200190815260200160002060009054906101000a900460ff16610915576040517f08c379a000000000000000000000000000000000000000000000000000000000815260040161090c90611e52565b60405180910390fd5b6001828154811061092957610928611e72565b5b9060005260206000209060070201600601549050919050565b6003816040516109529190611fd2565b908152602001604051809103902060009054906101000a900460ff16156109ae576040517f08c379a00000000000000000000000000000000000000000000000000000000081526004016109a590612035565b60405180910390fd5b600260006109ba6115ea565b73ffffffffffffffffffffffffffffffffffffffff1673ffffffffffffffffffffffffffffffffffffffff16815260200190815260200160002060009054906101000a900460ff1615610a42576040517f08c379a0000000000000000000000000000000000000000000000000000000008152600401610a3990612419565b60405180910390fd5b6000600180549050905060006040518060e00160405280838152602001428152602001848152602001610a736115ea565b73ffffffffffffffffffffffffffffffffffffffff168152602001600081526020016000815260200160008152509050600181908060018154018082558091505060019003906000526020600020906007020160009091909190915060008201518160000155602082015181600101556040820151816002019081610af891906122fb565b5060608201518160030160006101000a81548173ffffffffffffffffffffffffffffffffffffffff021916908373ffffffffffffffffffffffffffffffffffffffff1602179055506080820151816004015560a0820151816005015560c0820151816006015550506001600384604051610b729190611fd2565b908152602001604051809103902060006101000a81548160ff021916908315150217905550600160026000610ba56115ea565b73ffffffffffffffffffffffffffffffffffffffff1673ffffffffffffffffffffffffffffffffffffffff16815260200190815260200160002060006101000a81548160ff02191690831515021790555060016004600084815260200190815260200160002060006101000a81548160ff0219169083151502179055508160056000610c2f6115ea565b73ffffffffffffffffffffffffffffffffffffffff1673ffffffffffffffffffffffffffffffffffffffff16815260200190815260200160002081905550817f3c98a8055fb1f0d721830447db4ec316d500c8d7a5d04c5371bef5fe8280a02684610c986115ea565b604051610ca6929190612439565b60405180910390a2505050565b6000600180549050905090565b60006004600083815260200190815260200160002060009054906101000a900460ff169050919050565b60007f000000000000000000000000000000000000000000000000000000000000000073ffffffffffffffffffffffffffffffffffffffff168273ffffffffffffffffffffffffffffffffffffffff16149050919050565b6000600260008373ffffffffffffffffffffffffffffffffffffffff1673ffffffffffffffffffffffffffffffffffffffff16815260200190815260200160002060009054906101000a900460ff169050919050565b60006004600083815260200190815260200160002060009054906101000a900460ff16610dfa576040517f08c379a0000000000000000000000000000000000000000000000000000000008152600401610df190611e52565b60405180910390fd5b60018281548110610e0e57610e0d611e72565b5b9060005260206000209060070201600401549050919050565b610e2f61156c565b610e3960006115f9565b565b610e436116bd565b6000600560008473ffffffffffffffffffffffffffffffffffffffff1673ffffffffffffffffffffffffffffffffffffffff1681526020019081526020016000205490506004600082815260200190815260200160002060009054906101000a900460ff16610ee7576040517f08c379a0000000000000000000000000000000000000000000000000000000008152600401610ede90611e52565b60405180910390fd5b60018181548110610efb57610efa611e72565b5b90600052602060002090600702016040518060e00160405290816000820154815260200160018201548152602001600282018054610f3890612084565b80601f0160208091040260200160405190810160405280929190818152602001828054610f6490612084565b8015610fb15780601f10610f8657610100808354040283529160200191610fb1565b820191906000526020600020905b815481529060010190602001808311610f9457829003601f168201915b505050505081526020016003820160009054906101000a900473ffffffffffffffffffffffffffffffffffffffff1673ffffffffffffffffffffffffffffffffffffffff1673ffffffffffffffffffffffffffffffffffffffff1681526020016004820154815260200160058201548152602001600682015481525050915050919050565b60008060009054906101000a900473ffffffffffffffffffffffffffffffffffffffff16905090565b60006003826040516110719190611fd2565b908152602001604051809103902060009054906101000a900460ff169050919050565b60006004600083815260200190815260200160002060009054906101000a900460ff166110f6576040517f08c379a00000000000000000000000000000000000000000000000000000000081526004016110ed90611e52565b60405180910390fd5b6001828154811061110a57611109611e72565b5b9060005260206000209060070201600501549050919050565b60606001805480602002602001604051908101604052809291908181526020016000905b8282101561129357838290600052602060002090600702016040518060e0016040529081600082015481526020016001820154815260200160028201805461118e90612084565b80601f01602080910402602001604051908101604052809291908181526020018280546111ba90612084565b80156112075780601f106111dc57610100808354040283529160200191611207565b820191906000526020600020905b8154815290600101906020018083116111ea57829003601f168201915b505050505081526020016003820160009054906101000a900473ffffffffffffffffffffffffffffffffffffffff1673ffffffffffffffffffffffffffffffffffffffff1673ffffffffffffffffffffffffffffffffffffffff168152602001600482015481526020016005820154815260200160068201548152505081526020019060010190611147565b50505050905090565b600181815481106112ac57600080fd5b90600052602060002090600702016000915090508060000154908060010154908060020180546112db90612084565b80601f016020809104026020016040519081016040528092919081815260200182805461130790612084565b80156113545780601f1061132957610100808354040283529160200191611354565b820191906000526020600020905b81548152906001019060200180831161133757829003601f168201915b5050505050908060030160009054906101000a900473ffffffffffffffffffffffffffffffffffffffff16908060040154908060050154908060060154905087565b61139e61156c565b600073ffffffffffffffffffffffffffffffffffffffff168173ffffffffffffffffffffffffffffffffffffffff160361140d576040517f08c379a0000000000000000000000000000000000000000000000000000000008152600401611404906124db565b60405180910390fd5b611416816115f9565b50565b61142161156c565b600260008373ffffffffffffffffffffffffffffffffffffffff1673ffffffffffffffffffffffffffffffffffffffff16815260200190815260200160002060009054906101000a900460ff166114ad576040517f08c379a00000000000000000000000000000000000000000000000000000000081526004016114a490611e52565b60405180910390fd5b6000600560008473ffffffffffffffffffffffffffffffffffffffff1673ffffffffffffffffffffffffffffffffffffffff168152602001908152602001600020549050816001828154811061150657611505611e72565b5b906000526020600020906007020160050160008282546115269190611ed0565b92505081905550505050565b600061153d33610cea565b1561155157601436033560601c9050611560565b611559611564565b9050611561565b5b90565b600033905090565b6115746115ea565b73ffffffffffffffffffffffffffffffffffffffff16611592611036565b73ffffffffffffffffffffffffffffffffffffffff16146115e8576040517f08c379a00000000000000000000000000000000000000000000000000000000081526004016115df90612547565b60405180910390fd5b565b60006115f4611532565b905090565b60008060009054906101000a900473ffffffffffffffffffffffffffffffffffffffff169050816000806101000a81548173ffffffffffffffffffffffffffffffffffffffff021916908373ffffffffffffffffffffffffffffffffffffffff1602179055508173ffffffffffffffffffffffffffffffffffffffff168173ffffffffffffffffffffffffffffffffffffffff167f8be0079c531659141344cd1fd0a4f28419497f9722a3daafe3b4186f6b6457e060405160405180910390a35050565b6040518060e00160405280600081526020016000815260200160608152602001600073ffffffffffffffffffffffffffffffffffffffff1681526020016000815260200160008152602001600081525090565b6000604051905090565b600080fd5b600080fd5b600073ffffffffffffffffffffffffffffffffffffffff82169050919050565b600061174f82611724565b9050919050565b61175f81611744565b811461176a57600080fd5b50565b60008135905061177c81611756565b92915050565b6000819050919050565b61179581611782565b81146117a057600080fd5b50565b6000813590506117b28161178c565b92915050565b600080604083850312156117cf576117ce61171a565b5b60006117dd8582860161176d565b92505060206117ee858286016117a3565b9150509250929050565b600080fd5b600080fd5b6000601f19601f8301169050919050565b7f4e487b7100000000000000000000000000000000000000000000000000000000600052604160045260246000fd5b61184b82611802565b810181811067ffffffffffffffff8211171561186a57611869611813565b5b80604052505050565b600061187d611710565b90506118898282611842565b919050565b600067ffffffffffffffff8211156118a9576118a8611813565b5b6118b282611802565b9050602081019050919050565b82818337600083830152505050565b60006118e16118dc8461188e565b611873565b9050828152602081018484840111156118fd576118fc6117fd565b5b6119088482856118bf565b509392505050565b600082601f830112611925576119246117f8565b5b81356119358482602086016118ce565b91505092915050565b6000602082840312156119545761195361171a565b5b600082013567ffffffffffffffff8111156119725761197161171f565b5b61197e84828501611910565b91505092915050565b60006020828403121561199d5761199c61171a565b5b60006119ab8482850161176d565b91505092915050565b6000602082840312156119ca576119c961171a565b5b60006119d8848285016117a3565b91505092915050565b6119ea81611782565b82525050565b6000602082019050611a0560008301846119e1565b92915050565b60008115159050919050565b611a2081611a0b565b82525050565b6000602082019050611a3b6000830184611a17565b92915050565b611a4a81611782565b82525050565b600081519050919050565b600082825260208201905092915050565b60005b83811015611a8a578082015181840152602081019050611a6f565b60008484015250505050565b6000611aa182611a50565b611aab8185611a5b565b9350611abb818560208601611a6c565b611ac481611802565b840191505092915050565b611ad881611744565b82525050565b600060e083016000830151611af66000860182611a41565b506020830151611b096020860182611a41565b5060408301518482036040860152611b218282611a96565b9150506060830151611b366060860182611acf565b506080830151611b496080860182611a41565b5060a0830151611b5c60a0860182611a41565b5060c0830151611b6f60c0860182611a41565b508091505092915050565b60006020820190508181036000830152611b948184611ade565b905092915050565b611ba581611744565b82525050565b6000602082019050611bc06000830184611b9c565b92915050565b600081519050919050565b600082825260208201905092915050565b6000819050602082019050919050565b600060e083016000830151611c0a6000860182611a41565b506020830151611c1d6020860182611a41565b5060408301518482036040860152611c358282611a96565b9150506060830151611c4a6060860182611acf565b506080830151611c5d6080860182611a41565b5060a0830151611c7060a0860182611a41565b5060c0830151611c8360c0860182611a41565b508091505092915050565b6000611c9a8383611bf2565b905092915050565b6000602082019050919050565b6000611cba82611bc6565b611cc48185611bd1565b935083602082028501611cd685611be2565b8060005b85811015611d125784840389528151611cf38582611c8e565b9450611cfe83611ca2565b925060208a01995050600181019050611cda565b50829750879550505050505092915050565b60006020820190508181036000830152611d3e8184611caf565b905092915050565b600082825260208201905092915050565b6000611d6282611a50565b611d6c8185611d46565b9350611d7c818560208601611a6c565b611d8581611802565b840191505092915050565b600060e082019050611da5600083018a6119e1565b611db260208301896119e1565b8181036040830152611dc48188611d57565b9050611dd36060830187611b9c565b611de060808301866119e1565b611ded60a08301856119e1565b611dfa60c08301846119e1565b98975050505050505050565b7f50726f66696c6520646f6573206e6f7420657869737400000000000000000000600082015250565b6000611e3c601683611d46565b9150611e4782611e06565b602082019050919050565b60006020820190508181036000830152611e6b81611e2f565b9050919050565b7f4e487b7100000000000000000000000000000000000000000000000000000000600052603260045260246000fd5b7f4e487b7100000000000000000000000000000000000000000000000000000000600052601160045260246000fd5b6000611edb82611782565b9150611ee683611782565b9250828201905080821115611efe57611efd611ea1565b5b92915050565b7f596f7520617265206e6f7420746865206f776e6572206f66207468697320707260008201527f6f66696c65000000000000000000000000000000000000000000000000000000602082015250565b6000611f60602583611d46565b9150611f6b82611f04565b604082019050919050565b60006020820190508181036000830152611f8f81611f53565b9050919050565b600081905092915050565b6000611fac82611a50565b611fb68185611f96565b9350611fc6818560208601611a6c565b80840191505092915050565b6000611fde8284611fa1565b915081905092915050565b7f557365726e616d6520616c726561647920657869737473000000000000000000600082015250565b600061201f601783611d46565b915061202a82611fe9565b602082019050919050565b6000602082019050818103600083015261204e81612012565b9050919050565b7f4e487b7100000000000000000000000000000000000000000000000000000000600052602260045260246000fd5b6000600282049050600182168061209c57607f821691505b6020821081036120af576120ae612055565b5b50919050565b60008190508160005260206000209050919050565b600081546120d781612084565b6120e18186611f96565b945060018216600081146120fc576001811461211157612144565b60ff1983168652811515820286019350612144565b61211a856120b5565b60005b8381101561213c5781548189015260018201915060208101905061211d565b838801955050505b50505092915050565b600061215982846120ca565b915081905092915050565b60006020601f8301049050919050565b600082821b905092915050565b6000600883026121b17fffffffffffffffffffffffffffffffffffffffffffffffffffffffffffffffff82612174565b6121bb8683612174565b95508019841693508086168417925050509392505050565b6000819050919050565b60006121f86121f36121ee84611782565b6121d3565b611782565b9050919050565b6000819050919050565b612212836121dd565b61222661221e826121ff565b848454612181565b825550505050565b600090565b61223b61222e565b612246818484612209565b505050565b5b8181101561226a5761225f600082612233565b60018101905061224c565b5050565b601f8211156122af57612280816120b5565b61228984612164565b81016020851015612298578190505b6122ac6122a485612164565b83018261224b565b50505b505050565b600082821c905092915050565b60006122d2600019846008026122b4565b1980831691505092915050565b60006122eb83836122c1565b9150826002028217905092915050565b61230482611a50565b67ffffffffffffffff81111561231d5761231c611813565b5b6123278254612084565b61233282828561226e565b600060209050601f8311600181146123655760008415612353578287015190505b61235d85826122df565b8655506123c5565b601f198416612373866120b5565b60005b8281101561239b57848901518255600182019150602085019450602081019050612376565b868310156123b857848901516123b4601f8916826122c1565b8355505b6001600288020188555050505b505050505050565b7f57616c6c6574206164647265737320616c726561647920657869737473000000600082015250565b6000612403601d83611d46565b915061240e826123cd565b602082019050919050565b60006020820190508181036000830152612432816123f6565b9050919050565b600060408201905081810360008301526124538185611d57565b90506124626020830184611b9c565b9392505050565b7f4f776e61626c653a206e6577206f776e657220697320746865207a65726f206160008201527f6464726573730000000000000000000000000000000000000000000000000000602082015250565b60006124c5602683611d46565b91506124d082612469565b604082019050919050565b600060208201905081810360008301526124f4816124b8565b9050919050565b7f4f776e61626c653a2063616c6c6572206973206e6f7420746865206f776e6572600082015250565b6000612531602083611d46565b915061253c826124fb565b602082019050919050565b6000602082019050818103600083015261256081612524565b905091905056fea26469706673582212207146983a0e94d7540700088f9edb4517c85e8e4ac3c405764f0602376d6a069e64736f6c63430008110033",
  "linkReferences": {},
  "deployedLinkReferences": {}
}