{
  "_format": "hh-sol-artifact-1",
  "contractName": "Teams",
  "sourceName": "contracts/Teams.sol",
  "abi": [
    {
      "anonymous": false,
      "inputs": [
        {
          "indexed": true,
          "internalType": "address",
          "name": "previousOwner",
          "type": "address"
        },
        {
          "indexed": true,
          "internalType": "address",
          "name": "newOwner",
          "type": "address"
        }
      ],
      "name": "OwnershipTransferred",
      "type": "event"
    },
    {
      "inputs": [
        {
          "internalType": "string",
          "name": "_name",
          "type": "string"
        }
      ],
      "name": "createTeam",
      "outputs": [],
      "stateMutability": "nonpayable",
      "type": "function"
    },
    {
      "inputs": [
        {
          "internalType": "uint256",
          "name": "_id",
          "type": "uint256"
        }
      ],
      "name": "getTeam",
      "outputs": [
        {
          "components": [
            {
              "internalType": "uint256",
              "name": "teamId",
              "type": "uint256"
            },
            {
              "internalType": "string",
              "name": "name",
              "type": "string"
            }
          ],
          "internalType": "struct Teams.Team",
          "name": "",
          "type": "tuple"
        }
      ],
      "stateMutability": "view",
      "type": "function"
    },
    {
      "inputs": [
        {
          "internalType": "uint256",
          "name": "_id",
          "type": "uint256"
        }
      ],
      "name": "getTeamName",
      "outputs": [
        {
          "internalType": "string",
          "name": "",
          "type": "string"
        }
      ],
      "stateMutability": "view",
      "type": "function"
    },
    {
      "inputs": [],
      "name": "getTeams",
      "outputs": [
        {
          "components": [
            {
              "internalType": "uint256",
              "name": "teamId",
              "type": "uint256"
            },
            {
              "internalType": "string",
              "name": "name",
              "type": "string"
            }
          ],
          "internalType": "struct Teams.Team[]",
          "name": "",
          "type": "tuple[]"
        }
      ],
      "stateMutability": "view",
      "type": "function"
    },
    {
      "inputs": [],
      "name": "owner",
      "outputs": [
        {
          "internalType": "address",
          "name": "",
          "type": "address"
        }
      ],
      "stateMutability": "view",
      "type": "function"
    },
    {
      "inputs": [],
      "name": "renounceOwnership",
      "outputs": [],
      "stateMutability": "nonpayable",
      "type": "function"
    },
    {
      "inputs": [
        {
          "internalType": "uint256",
          "name": "",
          "type": "uint256"
        }
      ],
      "name": "teams",
      "outputs": [
        {
          "internalType": "uint256",
          "name": "teamId",
          "type": "uint256"
        },
        {
          "internalType": "string",
          "name": "name",
          "type": "string"
        }
      ],
      "stateMutability": "view",
      "type": "function"
    },
    {
      "inputs": [
        {
          "internalType": "address",
          "name": "newOwner",
          "type": "address"
        }
      ],
      "name": "transferOwnership",
      "outputs": [],
      "stateMutability": "nonpayable",
      "type": "function"
    }
  ],
  "bytecode": "0x608060405234801561001057600080fd5b5061002d61002261003260201b60201c565b61003a60201b60201c565b6100fe565b600033905090565b60008060009054906101000a900473ffffffffffffffffffffffffffffffffffffffff169050816000806101000a81548173ffffffffffffffffffffffffffffffffffffffff021916908373ffffffffffffffffffffffffffffffffffffffff1602179055508173ffffffffffffffffffffffffffffffffffffffff168173ffffffffffffffffffffffffffffffffffffffff167f8be0079c531659141344cd1fd0a4f28419497f9722a3daafe3b4186f6b6457e060405160405180910390a35050565b6111388061010d6000396000f3fe608060405234801561001057600080fd5b50600436106100875760003560e01c80638da5cb5b1161005b5780638da5cb5b14610127578063972fa53f14610145578063f2fde38b14610161578063f4ec521e1461017d57610087565b80628e0f1b1461008c5780633ed2b77a146100bc578063715018a6146100ed5780637ab60d48146100f7575b600080fd5b6100a660048036038101906100a191906107cd565b61019b565b6040516100b391906108d6565b60405180910390f35b6100d660048036038101906100d191906107cd565b610273565b6040516100e4929190610951565b60405180910390f35b6100f561032f565b005b610111600480360381019061010c91906107cd565b610343565b60405161011e9190610981565b60405180910390f35b61012f6103fa565b60405161013c91906109e4565b60405180910390f35b61015f600480360381019061015a9190610b34565b610423565b005b61017b60048036038101906101769190610ba9565b6104a1565b005b610185610524565b6040516101929190610cd5565b60405180910390f35b6101a3610769565b600182815481106101b7576101b6610cf7565b5b9060005260206000209060020201604051806040016040529081600082015481526020016001820180546101ea90610d55565b80601f016020809104026020016040519081016040528092919081815260200182805461021690610d55565b80156102635780601f1061023857610100808354040283529160200191610263565b820191906000526020600020905b81548152906001019060200180831161024657829003601f168201915b5050505050815250509050919050565b6001818154811061028357600080fd5b90600052602060002090600202016000915090508060000154908060010180546102ac90610d55565b80601f01602080910402602001604051908101604052809291908181526020018280546102d890610d55565b80156103255780601f106102fa57610100808354040283529160200191610325565b820191906000526020600020905b81548152906001019060200180831161030857829003601f168201915b5050505050905082565b61033761061f565b610341600061069d565b565b60606001828154811061035957610358610cf7565b5b9060005260206000209060020201600101805461037590610d55565b80601f01602080910402602001604051908101604052809291908181526020018280546103a190610d55565b80156103ee5780601f106103c3576101008083540402835291602001916103ee565b820191906000526020600020905b8154815290600101906020018083116103d157829003601f168201915b50505050509050919050565b60008060009054906101000a900473ffffffffffffffffffffffffffffffffffffffff16905090565b61042b61061f565b600060018054905090506000604051806040016040528083815260200184815250905060018190806001815401808255809150506001900390600052602060002090600202016000909190919091506000820151816000015560208201518160010190816104999190610f32565b505050505050565b6104a961061f565b600073ffffffffffffffffffffffffffffffffffffffff168173ffffffffffffffffffffffffffffffffffffffff1603610518576040517f08c379a000000000000000000000000000000000000000000000000000000000815260040161050f90611076565b60405180910390fd5b6105218161069d565b50565b60606001805480602002602001604051908101604052809291908181526020016000905b8282101561061657838290600052602060002090600202016040518060400160405290816000820154815260200160018201805461058590610d55565b80601f01602080910402602001604051908101604052809291908181526020018280546105b190610d55565b80156105fe5780601f106105d3576101008083540402835291602001916105fe565b820191906000526020600020905b8154815290600101906020018083116105e157829003601f168201915b50505050508152505081526020019060010190610548565b50505050905090565b610627610761565b73ffffffffffffffffffffffffffffffffffffffff166106456103fa565b73ffffffffffffffffffffffffffffffffffffffff161461069b576040517f08c379a0000000000000000000000000000000000000000000000000000000008152600401610692906110e2565b60405180910390fd5b565b60008060009054906101000a900473ffffffffffffffffffffffffffffffffffffffff169050816000806101000a81548173ffffffffffffffffffffffffffffffffffffffff021916908373ffffffffffffffffffffffffffffffffffffffff1602179055508173ffffffffffffffffffffffffffffffffffffffff168173ffffffffffffffffffffffffffffffffffffffff167f8be0079c531659141344cd1fd0a4f28419497f9722a3daafe3b4186f6b6457e060405160405180910390a35050565b600033905090565b604051806040016040528060008152602001606081525090565b6000604051905090565b600080fd5b600080fd5b6000819050919050565b6107aa81610797565b81146107b557600080fd5b50565b6000813590506107c7816107a1565b92915050565b6000602082840312156107e3576107e261078d565b5b60006107f1848285016107b8565b91505092915050565b61080381610797565b82525050565b600081519050919050565b600082825260208201905092915050565b60005b83811015610843578082015181840152602081019050610828565b60008484015250505050565b6000601f19601f8301169050919050565b600061086b82610809565b6108758185610814565b9350610885818560208601610825565b61088e8161084f565b840191505092915050565b60006040830160008301516108b160008601826107fa565b50602083015184820360208601526108c98282610860565b9150508091505092915050565b600060208201905081810360008301526108f08184610899565b905092915050565b61090181610797565b82525050565b600082825260208201905092915050565b600061092382610809565b61092d8185610907565b935061093d818560208601610825565b6109468161084f565b840191505092915050565b600060408201905061096660008301856108f8565b81810360208301526109788184610918565b90509392505050565b6000602082019050818103600083015261099b8184610918565b905092915050565b600073ffffffffffffffffffffffffffffffffffffffff82169050919050565b60006109ce826109a3565b9050919050565b6109de816109c3565b82525050565b60006020820190506109f960008301846109d5565b92915050565b600080fd5b600080fd5b7f4e487b7100000000000000000000000000000000000000000000000000000000600052604160045260246000fd5b610a418261084f565b810181811067ffffffffffffffff82111715610a6057610a5f610a09565b5b80604052505050565b6000610a73610783565b9050610a7f8282610a38565b919050565b600067ffffffffffffffff821115610a9f57610a9e610a09565b5b610aa88261084f565b9050602081019050919050565b82818337600083830152505050565b6000610ad7610ad284610a84565b610a69565b905082815260208101848484011115610af357610af2610a04565b5b610afe848285610ab5565b509392505050565b600082601f830112610b1b57610b1a6109ff565b5b8135610b2b848260208601610ac4565b91505092915050565b600060208284031215610b4a57610b4961078d565b5b600082013567ffffffffffffffff811115610b6857610b67610792565b5b610b7484828501610b06565b91505092915050565b610b86816109c3565b8114610b9157600080fd5b50565b600081359050610ba381610b7d565b92915050565b600060208284031215610bbf57610bbe61078d565b5b6000610bcd84828501610b94565b91505092915050565b600081519050919050565b600082825260208201905092915050565b6000819050602082019050919050565b6000604083016000830151610c1a60008601826107fa565b5060208301518482036020860152610c328282610860565b9150508091505092915050565b6000610c4b8383610c02565b905092915050565b6000602082019050919050565b6000610c6b82610bd6565b610c758185610be1565b935083602082028501610c8785610bf2565b8060005b85811015610cc35784840389528151610ca48582610c3f565b9450610caf83610c53565b925060208a01995050600181019050610c8b565b50829750879550505050505092915050565b60006020820190508181036000830152610cef8184610c60565b905092915050565b7f4e487b7100000000000000000000000000000000000000000000000000000000600052603260045260246000fd5b7f4e487b7100000000000000000000000000000000000000000000000000000000600052602260045260246000fd5b60006002820490506001821680610d6d57607f821691505b602082108103610d8057610d7f610d26565b5b50919050565b60008190508160005260206000209050919050565b60006020601f8301049050919050565b600082821b905092915050565b600060088302610de87fffffffffffffffffffffffffffffffffffffffffffffffffffffffffffffffff82610dab565b610df28683610dab565b95508019841693508086168417925050509392505050565b6000819050919050565b6000610e2f610e2a610e2584610797565b610e0a565b610797565b9050919050565b6000819050919050565b610e4983610e14565b610e5d610e5582610e36565b848454610db8565b825550505050565b600090565b610e72610e65565b610e7d818484610e40565b505050565b5b81811015610ea157610e96600082610e6a565b600181019050610e83565b5050565b601f821115610ee657610eb781610d86565b610ec084610d9b565b81016020851015610ecf578190505b610ee3610edb85610d9b565b830182610e82565b50505b505050565b600082821c905092915050565b6000610f0960001984600802610eeb565b1980831691505092915050565b6000610f228383610ef8565b9150826002028217905092915050565b610f3b82610809565b67ffffffffffffffff811115610f5457610f53610a09565b5b610f5e8254610d55565b610f69828285610ea5565b600060209050601f831160018114610f9c5760008415610f8a578287015190505b610f948582610f16565b865550610ffc565b601f198416610faa86610d86565b60005b82811015610fd257848901518255600182019150602085019450602081019050610fad565b86831015610fef5784890151610feb601f891682610ef8565b8355505b6001600288020188555050505b505050505050565b7f4f776e61626c653a206e6577206f776e657220697320746865207a65726f206160008201527f6464726573730000000000000000000000000000000000000000000000000000602082015250565b6000611060602683610907565b915061106b82611004565b604082019050919050565b6000602082019050818103600083015261108f81611053565b9050919050565b7f4f776e61626c653a2063616c6c6572206973206e6f7420746865206f776e6572600082015250565b60006110cc602083610907565b91506110d782611096565b602082019050919050565b600060208201905081810360008301526110fb816110bf565b905091905056fea26469706673582212209af8965cd62e680fb8af0e897377c63f248c5416f21191631630c4642ab64c6064736f6c63430008110033",
  "linkReferences": {},
  "deployedLinkReferences": {}
}